:020000040800F2
:1000000000C0002049990008E1400008E3400008D2
:10001000E5400008E7400008E94000080000000053
:10002000000000000000000000000000EB4000089D
:10003000ED40000800000000EF400008F14000081B
:1000400091990008919900089199000891990008E8
:1000500091990008919900089199000891990008D8
:1000600091990008919900089199000891990008C8
:1000700091990008919900089199000891990008B8
:1000800091990008919900089199000891990008A8
:100090009199000891990008919900089199000898
:1000A0009199000891990008919900089199000888
:1000B0001D4100082D410008919900089199000800
:1000C0009199000891990008919900089199000868
:1000D000919900083D4100084D41000891990008A0
:1000E000919900085D4100089199000891990008D4
:1000F0009199000891990008919900089199000838
:100100009199000891990008919900089199000827
:100110006D41000891990008919900089199000893
:100120009199000891990008919900089199000807
:1001300000000000000000000000000000000000BF
:1001400000000000000000000000000000000000AF
:10015000000000000000000000000000000000009F
:10016000000000000000000000000000000000008F
:10017000000000000000000000000000000000007F
:10018000000000000000000000000000000000006F
:10019000000000000000000000000000000000005F
:1001A000000000000000000000000000000000004F
:1001B000000000000000000000000000000000003F
:1001C000000000000000000000000000000000002F
:1001D000000000000000000000000000000000001F
:0401E0005FF8E0F1F3
:1001E80010B5054C237833B9044B13B10448AFF369
:1001F80000800123237010BD2002002000000000B1
:10020800D4E3000808B5034B1BB103490348AFF317
:10021800008008BD0000000024020020D4E300088C
:1002280010F8012B11F8013B012A28BF9A42F7D098
:10023800D01A7047034613F8012B002AFBD1181A6D
:100248000138704781F0004102E000BF83F00043AD
:1002580030B54FEA41044FEA430594EA050F08BF59
:1002680090EA020F1FBF54EA000C55EA020C7FEA1D
:10027800645C7FEA655C00F0E2804FEA5454D4EB9A
:100288005555B8BF6D420CDD2C4480EA020281EA64
:10029800030382EA000083EA010180EA020281EA9C
:1002A8000303362D88BF30BD11F0004F4FEA0131EE
:1002B8004FF4801C4CEA113102D0404261EB4101FD
:1002C80013F0004F4FEA03334CEA133302D0524283
:1002D80063EB430394EA050F00F0A780A4F101043F
:1002E800D5F1200E0DDB02FA0EFC22FA05F2801879
:1002F80041F1000103FA0EF2801843FA05F359415F
:100308000EE0A5F120050EF1200E012A03FA0EFCDD
:1003180028BF4CF0020C43FA05F3C01851EBE37107
:1003280001F0004507D54FF0000EDCF1000C7EEB24
:1003380000006EEB0101B1F5801F1BD3B1F5001F62
:100348000CD349085FEA30004FEA3C0C04F1010481
:100358004FEA445212F5800F80F09A80BCF1004FAA
:1003680008BF5FEA500C50F1000041EB045141EA2C
:10037800050130BD5FEA4C0C404141EB0101013CF5
:1003880028BFB1F5801FE9D291F0000F04BF0146E4
:100398000020B1FA81F308BF2033A3F10B03B3F1B6
:1003A80020020CDA0C3208DD02F1140CC2F10C0246
:1003B80001FA0CF021FA02F10CE002F11402D8BFA4
:1003C800C2F1200C01FA02F120FA0CFCDCBF41EA70
:1003D8000C019040E41AA2BF01EB0451294330BD3F
:1003E8006FEA04041F3C1CDA0C340EDC04F114041C
:1003F800C4F1200220FA04F001FA02F340EA0300F3
:1004080021FA04F345EA030130BDC4F10C04C4F138
:10041800200220FA02F001FA04F340EA0300294618
:1004280030BD21FA04F0294630BD94F0000F83F462
:10043800801306BF81F480110134013D4EE77FEA45
:10044800645C18BF7FEA655C29D094EA050F08BF91
:1004580090EA020F05D054EA000C04BF1946104672
:1004680030BD91EA030F1EBF0021002030BD5FEAB6
:10047800545C05D14000494128BF41F0004130BDDE
:1004880014F580043CBF01F5801130BD01F0004532
:1004980045F0FE4141F470014FF0000030BD7FEAA5
:1004A800645C1ABF194610467FEA655C1CBF0B46A0
:1004B800024650EA013406BF52EA033591EA030FB7
:1004C80041F4002130BD00BF90F0000F04BF0021AF
:1004D800704730B54FF4806404F132044FF00005E2
:1004E8004FF0000150E700BF90F0000F04BF00215B
:1004F800704730B54FF4806404F1320410F00045C1
:1005080048BF40424FF000013EE700BF42004FEABB
:10051800E2014FEA31014FEA02701FBF12F07F4338
:1005280093F07F4F81F06051704732F07F4208BFEF
:10053800704793F07F4F04BF41F40021704730B5F6
:100548004FF4607401F0004521F000411CE700BF42
:1005580050EA010208BF704730B54FF000050AE0C5
:1005680050EA010208BF704730B511F0004502D5C6
:10057800404261EB41014FF4806404F132045FEAC8
:10058800915C3FF4D8AE4FF003025FEADC0C18BF71
:1005980003325FEADC0C18BF033202EBDC02C2F163
:1005A800200300FA03FC20FA02F001FA03FE40EAF5
:1005B8000E0021FA02F11444BDE600BF70B54FF0F9
:1005C800FF0C4CF4E06C1CEA11541DBF1CEA1355D7
:1005D80094EA0C0F95EA0C0F00F0DEF82C4481EA3F
:1005E800030621EA4C5123EA4C5350EA013518BF5F
:1005F80052EA033541F4801143F4801338D0A0FB4C
:1006080002CE4FF00005E1FB02E506F00042E0FBF8
:1006180003E54FF00006E1FB03569CF0000F18BFFE
:100628004EF0010EA4F1FF04B6F5007F64F54074A6
:1006380004D25FEA4E0E6D4146EB060642EAC62139
:1006480041EA55514FEAC52040EA5E504FEACE2EA6
:10065800B4F1FD0C88BFBCF5E06F1ED8BEF1004FA9
:1006680008BF5FEA500E50F1000041EB045170BD25
:1006780006F0004646EA010140EA020081EA030169
:10068800B4EB5C04C2BFD4EB0C0541EA045170BD65
:1006980041F480114FF0000E013C00F3AB8014F1DF
:1006A800360FDEBF002001F0004170BDC4F1000428
:1006B800203C35DA0C341BDC04F11404C4F12005A9
:1006C80000FA05F320FA04F001FA05F240EA020004
:1006D80001F0004221F0004110EBD37021FA04F63A
:1006E80042EB06015EEA430E08BF20EAD37070BDF4
:1006F800C4F10C04C4F1200500FA04F320FA05F053
:1007080001FA04F240EA020001F0004110EBD37054
:1007180041F100015EEA430E08BF20EAD37070BDC4
:10072800C4F1200500FA05F24EEA020E20FA04F39D
:1007380001FA05F243EA020321FA04F001F000414C
:1007480021FA04F220EA020000EBD3705EEA430EBD
:1007580008BF20EAD37070BD94F0000F0FD101F0EC
:100768000046400041EB010111F4801F08BF013C25
:10077800F7D041EA060195F0000F18BF704703F063
:100788000046520043EB030313F4801F08BF013DEA
:10079800F7D043EA0603704794EA0C0F0CEA1355A6
:1007A80018BF95EA0C0F0CD050EA410618BF52EA60
:1007B8004306D1D181EA030101F000414FF0000066
:1007C80070BD50EA410606BF1046194652EA430674
:1007D80019D094EA0C0F02D150EA013613D195EAE8
:1007E8000C0F05D152EA03361CBF104619460AD130
:1007F80081EA030101F0004141F0FE4141F470013A
:100808004FF0000070BD41F0FE4141F4780170BD29
:1008180070B54FF0FF0C4CF4E06C1CEA11541DBF8E
:100828001CEA135594EA0C0F95EA0C0F00F0A7F890
:10083800A4EB050481EA030E52EA03354FEA0131BD
:1008480000F088804FEA03334FF0805545EA1313D0
:1008580043EA12634FEA022245EA111545EA106598
:100868004FEA00260EF000419D4208BF964244F12F
:10087800FD0404F5407402D25B084FEA3202B61A4E
:1008880065EB03055B084FEA32024FF480104FF422
:10089800002CB6EB020E75EB030E22BFB61A754696
:1008A80040EA0C005B084FEA3202B6EB020E75EB29
:1008B800030E22BFB61A754640EA5C005B084FEA91
:1008C8003202B6EB020E75EB030E22BFB61A75465E
:1008D80040EA9C005B084FEA3202B6EB020E75EB69
:1008E800030E22BFB61A754640EADC0055EA060E2A
:1008F80018D04FEA051545EA16754FEA06164FEA6D
:10090800C30343EA52734FEAC2025FEA1C1CC0D118
:1009180011F4801F0BD141EA00014FF000004FF0A5
:10092800004CB6E711F4801F04BF01430020B4F166
:10093800FD0C88BFBCF5E06F3FF6AFAEB5EB030C1E
:1009480004BFB6EB020C5FEA500C50F1000041EB1B
:10095800045170BD0EF0004E4EEA113114EB5C04E8
:10096800C2BFD4EB0C0541EA045170BD41F48011BB
:100978004FF0000E013C90E645EA060E8DE60CEAC3
:10098800135594EA0C0F08BF95EA0C0F3FF43BAFE0
:1009980094EA0C0F0AD150EA01347FF434AF95EA97
:1009A8000C0F7FF425AF104619462CE795EA0C0F7B
:1009B80006D152EA03353FF4FDAE1046194622E748
:1009C80050EA410618BF52EA43067FF4C5AE50EA22
:1009D80041047FF40DAF52EA43057FF4EBAE12E712
:1009E8004FF0FF3C06E000BF4FF0010C02E000BFF3
:1009F8004FF0010C4DF804CD4FEA410C7FEA6C5CD6
:100A08004FEA430C18BF7FEA6C5C1BD001B050EA78
:100A1800410C0CBF52EA430C91EA030F02BF90EA63
:100A2800020F0020704710F1000F91EA030F58BF22
:100A3800994208BF90422CBFD8176FEAE37040F084
:100A4800010070474FEA410C7FEA6C5C02D150EA22
:100A5800013C07D14FEA430C7FEA6C5CD6D152EADD
:100A6800033CD3D05DF8040B704700BF84461046A2
:100A780062468C461946634600E000BF01B5FFF7A1
:100A8800B7FF002848BF10F1000F01BD4DF808ED71
:100A9800FFF7F4FF0CBF012000205DF808FB00BF42
:100AA8004DF808EDFFF7EAFF34BF012000205DF89C
:100AB80008FB00BF4DF808EDFFF7E0FF94BF0120E9
:100AC80000205DF808FB00BF4DF808EDFFF7CEFFEA
:100AD80094BF012000205DF808FB00BF4DF808ED29
:100AE800FFF7C4FF34BF012000205DF808FB00BFFA
:100AF8004FEA410C7FEA6C5C02D150EA013C0AD112
:100B08004FEA430C7FEA6C5C02D152EA033C02D103
:100B18004FF0000070474FF0010070474FEA410264
:100B280012F5001215D211D56FF47873B3EB625237
:100B380012D94FEAC12343F0004343EA505311F05E
:100B4800004F23FA02F018BF404270474FF00000F0
:100B5800704750EA013005D111F0004008BF6FF02E
:100B6800004070474FF00000704700BF4A0011D2A4
:100B780012F5001211D20DD56FF47873B3EB6252EF
:100B88000ED44FEAC12343F0004343EA505323FAFB
:100B980002F070474FF00000704750EA013002D170
:100BA8004FF0FF3070474FF0000070474FEA4102A6
:100BB800B2F1E04324BFB3F5001CDCF1FE5C0DD9B3
:100BC80001F0004C4FEAC0024CEA5070B2F1004FFD
:100BD80040EB830008BF20F00100704711F0804F00
:100BE80021D113F13872BCBF01F00040704741F4C5
:100BF80080114FEA5252C2F11802C2F1200C10FAC9
:100C08000CF320FA02F018BF40F001004FEAC123AC
:100C18004FEAD32303FA0CFC40EA0C0023FA02F350
:100C28004FEA4303CCE77FEA625307D150EA013326
:100C38001EBF4FF0FE4040F44000704701F00040F6
:100C480040F0FE4040F40000704700BF80F00040D4
:100C580002E000BF81F0004142001FBF5FEA41038C
:100C680092EA030F7FEA226C7FEA236C6AD04FEA8C
:100C78001262D2EB1363C1BFD218414048404140D1
:100C8800B8BF5B42192B88BF704710F0004F40F483
:100C9800000020F07F4018BF404211F0004F41F49F
:100CA800000121F07F4118BF494292EA030F3FD06B
:100CB800A2F1010241FA03FC10EB0C00C3F120037E
:100CC80001FA03F100F0004302D5494260EB40000D
:100CD800B0F5000F13D3B0F1807F06D340084FEA78
:100CE800310102F10102FE2A51D2B1F1004F40EB6D
:100CF800C25008BF20F0010040EA030070474900D5
:100D080040EB0000013A28BFB0F5000FEDD2B0FA71
:100D180080FCACF1080CB2EB0C0200FA0CF0AABF94
:100D280000EBC25052421843BCBFD0401843704732
:100D380092F0000F81F4000106BF80F40000013238
:100D4800013BB5E74FEA41037FEA226C18BF7FEA0F
:100D5800236C21D092EA030F04D092F0000F08BF51
:100D68000846704790EA010F1CBF0020704712F038
:100D78007F4F04D1400028BF40F00040704712F177
:100D880000723CBF00F50000704700F0004343F0DC
:100D9800FE4040F4000070477FEA226216BF084612
:100DA8007FEA23630146420206BF5FEA412390EAD5
:100DB800010F40F4800070474FF0000304E000BFCB
:100DC80010F0004348BF40425FEA000C08BF70477C
:100DD80043F0964301464FF000001CE050EA010240
:100DE80008BF70474FF000030AE000BF50EA010255
:100DF80008BF704711F0004302D5404261EB410142
:100E08005FEA010C02BF84460146002043F0B64366
:100E180008BFA3F18053A3F50003BCFA8CF2083A8B
:100E2800A3EBC25310DB01FA02FC634400FA02FC94
:100E3800C2F12002BCF1004F20FA02F243EB02009B
:100E480008BF20F00100704702F1200201FA02FCFD
:100E5800C2F1200250EA4C0021FA02F243EB0200F0
:100E680008BF20EADC7070474FF0FF0C1CEAD05234
:100E78001EBF1CEAD15392EA0C0F93EA0C0F6FD0F5
:100E88001A4480EA010C400218BF5FEA41211ED0D3
:100E98004FF0006343EA501043EA5111A0FB0131BF
:100EA8000CF00040B1F5000F3EBF490041EAD37194
:100EB8005B0040EA010062F17F02FD2A1DD8B3F110
:100EC800004F40EBC25008BF20F00100704790F07F
:100ED800000F0CF0004C08BF49024CEA502040EAD1
:100EE80051207F3AC2BFD2F1FF0340EAC250704797
:100EF80040F400004FF00003013A5DDC12F1190FD5
:100F0800DCBF00F000407047C2F10002410021FA46
:100F180002F1C2F1200200FA02FC5FEA310040F15E
:100F2800000053EA4C0308BF20EADC70704792F0D7
:100F3800000F00F0004C02BF400010F4000F013A0F
:100F4800F9D040EA0C0093F0000F01F0004C02BF0A
:100F5800490011F4000F013BF9D041EA0C018FE779
:100F68000CEAD15392EA0C0F18BF93EA0C0F0AD07F
:100F780030F0004C18BF31F0004CD8D180EA0100A5
:100F880000F00040704790F0000F17BF90F0004F3E
:100F9800084691F0000F91F0004F14D092EA0C0F20
:100FA80001D142020FD193EA0C0F03D14B0218BFB3
:100FB800084608D180EA010000F0004040F0FE40F9
:100FC80040F40000704740F0FE4040F44000704795
:100FD8004FF0FF0C1CEAD0521EBF1CEAD15392EA14
:100FE8000C0F93EA0C0F69D0A2EB030280EA010C04
:100FF80049024FEA402037D04FF0805343EA11119D
:1010080043EA10130CF000408B4238BF5B0042F1FA
:101018007D024FF4000C8B4224BF5B1A40EA0C009F
:10102800B3EB510F24BFA3EB510340EA5C00B3EBD1
:10103800910F24BFA3EB910340EA9C00B3EBD10FBF
:1010480024BFA3EBD10340EADC001B0118BF5FEA11
:101058001C1CE0D1FD2A3FF650AF8B4240EBC2503A
:1010680008BF20F0010070470CF0004C4CEA5020FB
:101078007F32C2BFD2F1FF0340EAC250704740F44A
:1010880000004FF00003013A37E792F0000F00F03C
:10109800004C02BF400010F4000F013AF9D040EABA
:1010A8000C0093F0000F01F0004C02BF490011F44E
:1010B800000F013BF9D041EA0C0195E70CEAD15346
:1010C80092EA0C0F08D142027FF47DAF93EA0C0F2D
:1010D8007FF470AF084676E793EA0C0F04D14B0211
:1010E8003FF44CAF08466EE730F0004C18BF31F0C3
:1010F800004CCAD130F000427FF45CAF31F00043BD
:101108007FF43CAF5FE700BF4FEA4002B2F1FE4F09
:101118000FD34FF09E03B3EB12620DD94FEA0023B1
:1011280043F0004310F0004F23FA02F018BF40428A
:1011380070474FF00000704712F1610F01D1420271
:1011480005D110F0004008BF6FF0004070474FF025
:101158000000704738B505460C4600220023284693
:101168002146FFF79DFC28B928462146BDE83840AE
:1011780000F00AB8284604F1004100F005F84042A2
:1011880061EB410138BD00BFD0B500220B4B0646CC
:101198000F46FFF713FAFFF7E9FC0446FFF794F947
:1011A8000022074BFFF70AFA02460B46304639463B
:1011B800FFF74CF8FFF7DAFC2146D0BD0000F03D00
:1011C8000000F04110B50446FFF734F841F28833C7
:1011D80082B22146014805F0C7FE10BDA4320020A6
:1011E80038B50446074D01220221284603F0F5FED2
:1011F800204603F08DF900220221284603F0EDFE77
:1012080038BD00BF000801406FF009024EF66023A8
:1012180002FB0033014A5362704700BF00040040DC
:1012280008B541F28830FFF7DBFF0249024801F0B8
:10123800AFFD08BDFCE300082226002010B50446D7
:101248000F4B984206D00F4B9C4206D00E4B9C4247
:1012580006D010BD01F066FDF5E701F06BF9F5E782
:101268000A4B05221A600A4B1A680A4B1B780A496E
:101278008B540A2BEDD1094B01221A70E9E700BF04
:101288005C320020EC320020A43200200000002054
:101298004427002042270020102700204327002051
:1012A80010B50446314B984203D0314B9C4213D0C1
:1012B80010BD304801F0B0FC0028F6D12E4B1B7849
:1012C800002BF2D02C4B00221A702C4B05221A60EE
:1012D8002B4B01221A70E8E7284B1B68CBB1274B30
:1012E8001B68012B20D0254B1B68022B27D0234BD2
:1012F8001B68032B2ED0214B1B68042BD8D100234D
:10130800204A13711D4A13604FF47A70FFF77CFF6F
:10131800CEE71C4B00221A70184B01221A604FF4BA
:10132800FA70FFF771FFC3E7164B00225A70134B90
:1013380002221A6040F2DC50FFF766FFB8E7114B53
:1013480000229A700D4B03221A604FF4FA70FFF7CF
:101358005BFFADE70B4B0022DA70084B04221A60E2
:101368004FF4FA70FFF750FFA2E700BFCC3100201E
:10137800143200203C020020022800200000002037
:10138800640400206805002072B6FEE700B583B04B
:101398000022009201920A4B197801448DF800103E
:1013A80059788DF801109B788DF802306946054808
:1013B80004F034FE10B903B05DF804FBFFF7E4FF56
:1013C80074050020B828002000B597B02822002115
:1013D8000CA808F00FFB00230793089309930A93BE
:1013E8000B930193029303930493059306930523A8
:1013F8000C934FF480330D9301220F921092022226
:10140800139214934FF4E01315930CA803F0AAF861
:10141800E0B90F23079302210891002309934FF4A1
:1014280080620A920B9307A803F0CEFA80B90323CF
:1014380001934FF4807302934FF40043039301A880
:1014480003F09EFB30B917B05DF804FBFFF79CFF73
:10145800FFF79AFFFFF798FF80B58CB003F034F8D8
:10146800FFF7B2FF00F0BAFC00F040FD00F0B8FE54
:1014780000F06AFD02F0D2FB02F0DAFC00F0E4FDB5
:1014880000F0D0FE00F0EEFE02F0B8FC02F0EAFC3C
:1014980002F002FD02F0FAFB02F030FC00F024FE3C
:1014A80005F0C0FFA84800F099FF01F080FAA748AE
:1014B80000F094FF0A2003F02BF801F00FF8A4487D
:1014C80000F08CFF4FF4FA7003F022F802F0F2FA01
:1014D80002F0E8FA012401944023009380239D4AF6
:1014E8000021084602F0D2F902214B2002F018FA36
:1014F800994D22462946994802F066FA10211E2085
:1015080002F00EFA22462946954802F05DFA1C219F
:10151800204602F005FA22462946924802F054FA7B
:101528002821204602F0FCF9224629468E4802F07E
:101538004BFA3421204602F0F3F9224629468B481B
:1015480002F042FA02F08AFA22468949894807F0ED
:1015580025FB894B1870002857D0884800F03EFFBB
:10156800874B31221A8030225A809A80854A118806
:101578009278D9801A72844C844A234607CA03C3D6
:101588001A7004F11405824E0FCE0FC533682B7004
:10159800804B07CBC4F83200C4F83610C4F83A20A0
:1015A8001A889B78E28784F840307B4B283493E88C
:1015B800070003C42270794C794B93E8030020603C
:1015C8002171784B04F114050FCB07C52B70764BAE
:1015D80007CBC4F83200C4F83610C4F83A201A8889
:1015E8009B78E28784F84030704B283493E80700F2
:1015F80003C422706E4A6F4B03CBC2F84600C2F890
:101608004A101B88A2F84E3009E06B4800F0E6FE4D
:10161800A6E76A4801F000FB002800F00781684946
:101628005948FEF7FDFD0028F3D165495B48FEF7F0
:10163800F7FD0028EDD1634C634D00222146284672
:1016480004F0C8FB614E00223146284604F0B2FC83
:101658000420FFF79BFEA3785D4F00936378227800
:101668005C49384608F0CEF9384600F0B7FE5A4FC4
:10167800384600F0B3FEF378DFF8608100937378A2
:10168800B2785749404608F0BDF9404600F0A6FE3A
:10169800384600F0A3FE534E00223146284604F097
:1016A80099FB00225049284604F084FC327873786C
:1016B800C2EB021203EB82039BB221786278C1EB82
:1016C800011102EB810292B29B1A9BB2474A138026
:1016D800474AA2FB0312520946490A60A2EB0211CB
:1016E80003EB810344490B604449454808F08AF9F3
:1016F80000F068FF434B186000F0BEFF4FF47A70AB
:1017080002F006FF4049414808F013FA28B13E4963
:101718003F4808F00EFA0028EAD13E4800F05EFE85
:101728004FF47A70FFF770FD3B4805F0BFF83B486F
:1017380005F086F83A4805F0B9F8012239493A48DF
:1017480005F05BFEE6E000BF28E4000838E4000886
:1017580050E40008BCE700083800002068E40008EE
:1017680070E400087CE4000890E40008A4E40008A1
:10177800B4E40008C0150020BC150020B8E4000837
:10178800B827002000E500084C26002004E50008E2
:1017980010E5000824E5000834E50008A826002024
:1017A80040E5000848E5000858E5000868E5000835
:1017B800F025002074E50008DCE400083C02002065
:1017C8005802002074050020B82800207005002069
:1017D800C4270020CCE50008D8E4000878050020DC
:1017E800D8E500080827002004270020E02700206B
:1017F80089888888D8270020DC270020E4E50008AD
:10180800E42700206C020020ECE50008E82900200D
:10181800FC290020F4E5000814320020843100205F
:10182800CC31002042270020A43200209D4A937822
:10183800D1789D4C01910093537812789B492046AA
:1018480008F0E0F8204600F0C9FD21469848FEF768
:10185800E7FC50BB94499748FEF7E2FC002849D0C2
:10186800944D954C2946204608F05BF905F1140182
:1018780004F1140008F055F905F1320104F13200C1
:1018880008F04FF905F1280104F1280008F049F99A
:10189800C820FFF7A5FCC82002F03AFEC820FFF7D1
:1018A8009FFC864800F09AFDB9E6814D824C294696
:1018B800204608F036F905F1140104F1140008F087
:1018C80030F905F1320104F1320008F02AF905F186
:1018D800280104F1280008F024F9C820FFF780FC4B
:1018E800C82002F015FEC820FFF77AFC744800F003
:1018F80075FDAFE7734B01221A70C820FFF770FC23
:10190800714800F06BFD96E6704B1B78B3B164200C
:1019180002F0FEFD6E4B1B68052BF8D801A252F8A9
:1019280023F000BF111900089F190008C119000809
:10193800491B0008031C0008851C0008654800F0C6
:101948004DFD624B01221A7001F018FBFFF7DCFB1A
:101958000246614B1860614C6149204608F052F814
:10196800604B1A889B78A4F80520E3715E4B1A88AF
:101978009B78A4F8372084F83930A4F8692084F8D3
:101988006B305A4800F02AFD204600F027FD5848E1
:1019980000F024FDBBE74D4B5B78002BB7D15548D1
:1019A80000F01CFD494B01225A7000F00BFE524B0F
:1019B800186000F061FEAAE7444B9B78002BA6D183
:1019C8004E4800F00BFD414B01229A704C4C4FF4ED
:1019D800FA720021204608F00DF84A4A3F4B03F1FD
:1019E80069010B9103F137010A91591D0991089377
:1019F800454B0793143B0693931D05932E4B03F118
:101A08003201049103F11401039103F128010291B9
:101A180046330193131D0093931C3C49204607F05D
:101A2800F1FF21463A4801F0DDFA3A4A13680133DA
:101A380013600A2B7FF46BAF00251560364C374EC8
:101A48002A462146304604F0C5F92A46344930462C
:101A580004F0B0FA22786378C2EB021203EB820337
:101A68009BB2304A11785278C1EB011102EB810226
:101A780092B29B1A9BB22C4A13802C4AA2FB0312E7
:101A880052092B490A60A2EB021103EB8103294991
:101A98000B60294C2949204607F0B4FF204600F086
:101AA8009DFC34E73C0200205802002080E5000835
:101AB8004C260020A8260020F0250020A8E50008D4
:101AC80094E5000802280020BCE50008680500200D
:101AD8000000002004E600088C05002048270020AC
:101AE80014E6000818E600081CE6000820E60008CE
:101AF800D8E4000834E600086C02002040E600083C
:101B080070020020B8270020FC2900204CE60008BD
:101B1800FCE600080C27002008270020B828002031
:101B28000427002074050020E02700208988888881
:101B3800D8270020DC270020E4270020E4E500085F
:101B4800884BDB78002B7FF4E2AE874800F046FC38
:101B5800844B0122DA7002228449854807F050F844
:101B6800844B1870002844D0834800F037FC804C20
:101B780004F58053D968204607F06AFC7F4E214659
:101B8800304607F055FE7E4D2146284607F050FEA8
:101B980021467C4807F04CFE2146284607F048FEBF
:101BA800214606F10C0007F043FE2146284607F0BF
:101BB8003FFE214606F1200007F03AFE214628465E
:101BC80007F036FE214606F1340007F031FE2146C3
:101BD800284607F02DFE21466B4807F029FE2146CE
:101BE8006A4807F025FE204607F01CFC614B187078
:101BF8008DE6674800F0F2FBB9E75A4B1B79002BDA
:101C08007FF485AE634800F0E9FB0124554B1C7155
:101C180002214B2001F084FE5F4E584D224631468A
:101C2800284601F0D1FE10211E2001F079FE22463F
:101C3800314605F1480001F0C7FE1C21192001F0CA
:101C48006FFE2246314605F1200001F0BDFE282135
:101C5800192001F065FE2246314605F10C0001F01D
:101C6800B3FE3421232001F05BFE2246314605F104
:101C7800340001F0A9FE01F0F1FE48E6474B1B785D
:101C8800DBB9474B1B78002B3FF441AE444B002295
:101C98001A704449444807F04CFF00283FF437AE17
:101CA80001223249324806F0ABFF324B1870002847
:101CB80047D0314800F092FB4AE0384B00221A70B6
:101CC8003A4A9378D1783A4C019100935378127834
:101CD8003849204607F096FE21462A48FEF7A0FA22
:101CE80050B1354800F07AFB4FF47A7002F010FCDE
:101CF800324800F073FBC4E7314800F06FFB314C09
:101D0800314D00222146284604F064F800222F496C
:101D1800284604F04FF922786378C2EB021203EBED
:101D280082039BB22A4A11785278C1EB011102EB67
:101D3800810292B29B1A274A13800A20FFF726FBDA
:101D4800D2E7134800F04AFB02E02348FFF73AFACB
:101D5800074A4FF48071204807F03FFD0028F4D16E
:101D6800D5E500BF6805002014E7000820E7000853
:101D780090050020BC1500202CE70008DC29002075
:101D880054E700085802002048270020D8E400083B
:101D98003CE7000858E700083800002064040020E9
:101DA80043270020A8E70008102700203C02002055
:101DB8004402002080E5000868E7000894E700086E
:101DC80078E7000808270020B8280020042700200A
:101DD80074050020E0270020680400202DE9F04366
:101DE80089B0002404940594069407943A4B9A69A0
:101DF80042F010029A619A6902F010020092009A69
:101E08009A6942F020029A619A6902F020020192CE
:101E1800019A9A6942F004029A619A6902F00402EE
:101E28000292029A9A6942F008029A619B6903F049
:101E380008030393039BDFF8A48022464FF44671FE
:101E4800404603F0CAF8264D224649F202012846C8
:101E580003F0C3F801224FF40161284603F0BDF8EE
:101E6800DFF88090224641F20201484603F0B5F8B7
:101E7800012604961C4B0593069404A9404602F0DB
:101E880085FF4FF446730493059606940227079737
:101E980004A9404602F07AFF49F612030493059616
:101EA8000694079704A9284602F070FF41F202033E
:101EB800049305960694079704A9484602F066FF1E
:101EC8004FF4807304930594069404A9284602F0FD
:101ED8005DFF09B0BDE8F08300100240001001402A
:101EE80000080140000C01400000311000B585B029
:101EF80000230193029303931148124A02608360FE
:101F08000122027303754FF46021C16143600261CD
:101F180002F020FA68B90B230193012302930323EB
:101F2800039301A9064802F047F928B905B05DF8FE
:101F380004FBFFF729FAEEE7FFF726FAF6E700BFFA
:101F4800042800200024014000B585B00023019337
:101F5800029303931148124A0260836001220273BC
:101F680003754FF46021C1614360026102F0F2F928
:101F780070B90C23019301230293042303930DEBFF
:101F88000301064802F018F928B905B05DF804FB0A
:101F9800FFF7FAF9EDE7FFF7F7F9F6E7342800203D
:101FA8000028014000B589B00023049305930693E7
:101FB80007930368204A934205D0204A93421ED0D3
:101FC80009B05DF804FB1E4B9A6942F400729A61ED
:101FD8009A6902F400720092009A9A6942F010021B
:101FE8009A619B6903F010030193019B02230493F8
:101FF8000323059304A9134802F0C8FEE0E7104B39
:102008009A6942F480629A619A6902F48062029243
:10201800029A9A6942F010029A619B6903F01003D0
:102028000393039B042304930323059304A90548FE
:1020380002F0ACFEC4E700BF0024014000280140C4
:10204800001002400010014008B50B480B4B03601C
:102058000B4B436000238360C3604FF480420261EE
:1020680043618361C361036203F09AFA00B908BD52
:10207800FFF78AF9FBE700BF6428002000540040FE
:10208800801A060010B586B00023029303930493C8
:1020980005930268114B9A4201D006B010BD104C4E
:1020A800A36943F00803A361A36903F0080300933D
:1020B800009BC0230293122303930323059302A9D1
:1020C800084802F063FEE36943F40013E361E3693F
:1020D80003F400130193019BDFE700BF00540040A5
:1020E80000100240000C014000B585B00023ADF897
:1020F8000C308DF80E300293009301932248234B45
:1021080003604FF0FF3343604FF48073836004F043
:1021180039F868BB10238DF80C3000238DF80D308A
:102128008DF80E30012203A9174803F0F1FD10BB0A
:1021380001228DF808208DF809208DF80A20232324
:102148008DF80B3002A9104803F0CAFEB0B900237D
:102158008DF800308DF801308DF80230019301229E
:102168006946094803F05AFF58B905B05DF804FB01
:10217800FFF70AF9CEE7FFF707F9D9E7FFF704F900
:10218800E5E7FFF701F9F0E7B8280020002800404C
:102198000268104B9A4200D0704700B583B003F034
:1021A80067F80D4BDA6942F00062DA61DB6903F027
:1021B80000630193019B094B0122C3F83C240022D0
:1021C8001146292002F0FAFF292003F02FF803B066
:1021D8005DF804FB00280040001002400000424265
:1021E80008B50E480E4B03604FF48273436000231A
:1021F8008360C360036143614FF4007282611022FF
:10220800C2610362436283620A23C36204F08EF8E8
:1022180000B908BDFFF7B8F8FBE700BFCC280020DD
:102228000030014008B50D480D4B03604FF4827330
:10223800436000238360C360036143614FF400720D
:102248008261C3610362436283620A23C36204F04A
:102258006DF800B908BDFFF797F8FBE724290020BF
:102268000038004008B50E480E4B03604FF48273E7
:10227800436000238360C360036143614FF40072CD
:1022880082611822C2610362436283620A23C362C5
:1022980004F04CF800B908BDFFF776F8FBE700BF7B
:1022A8007C290020003C004010B58AB0002306932A
:1022B8000793089309930368424A934207D0424A16
:1022C80093422CD0414A934253D00AB010BD404BA0
:1022D8009A6942F480529A619A6902F48052009293
:1022E800009A9A6942F004029A619B6903F0040318
:1022F8000193019BA02306930223079303230993C9
:10230800344C06A9204602F041FD402306930023E1
:102318000793089306A9204602F038FDD5E72C4B11
:10232800DA6942F48042DA61DA6902F480420292A0
:10233800029A9A6942F008029A619B6903F00803BD
:102348000393039B4FF4204306930223079303232D
:102358000993214C06A9204602F018FD4FF480434A
:10236800069300230793089306A9204602F00EFD62
:10237800ABE7174BDA6942F40042DA61DA6902F432
:1023880000420492049A9A6942F008029A619B6991
:1023980003F008030593059B28230693022307935C
:1023A800032309930C4C06A9204602F0EFFC1023E6
:1023B800069300230793089306A9204602F0E6FC3B
:1023C80083E700BF0030014000380040003C004077
:1023D8000010024000080140000C014010B50446FE
:1023E800FDF728FF4FF47A7382B22146014804F0C2
:1023F800BBFD10BD343300200139002307E0C25C67
:1024080010F801C000F803C04254013301398B426F
:10241800F5DB704770B50E4618B930230B700124F0
:1024280015E00546002495B10E4981FB0531EB17EF
:10243800C3EBA103194603EB8303A5EB4303303336
:1024480033550D460134EEE73023335501349442B9
:10245800FADB21463046FFF7CFFF002333552046ED
:1024680070BD00BF676666662DE9F84306460C46F0
:102478001746FEF749FE0546FEF7A2FC0146304620
:10248800FEF7E8FB0646002221462846FFF7C2FF72
:102498000FB9BDE8F88305462E2323543846FEF7C6
:1024A80023F802460B4600200B490AF0CDFF804670
:1024B80089463046FEF72AF842464B46FEF77EF834
:1024C800FEF774FB691C0C44FEF71EFE3A462146D3
:1024D800FFF7A0FFDDE700BF0000244010B5124C55
:1024E80000224FF48071204602F077FD642002F04C
:1024F8000FF801224FF48071204602F06EFD64202F
:1025080002F006F800224FF48071204602F065FDC3
:10251800642001F0FDFF4FF47A7333220349044825
:1025280004F022FD10BD00BF00100140BCEB000804
:10253800EC32002008B51E4B1B78242B0BD00A2B3D
:102548001BD01C4A1278012A25D0012218491A48A2
:1025580004F053FF08BD174A1278002AEFD1174933
:102568000A68501C086016498B540122114B1A70D6
:102578000F49114804F041FFECE70E4A1278012A8E
:10258800DFD10E490A68501C08600D498B54094B6D
:1025980002221A70DEE709490A68501C08600849D7
:1025A8008B5401220249044804F027FFD2E700BFF8
:1025B800D8290020F82A0020EC320020D429002055
:1025C800942A002010B50024094B1C60642221467F
:1025D800084807F00FFA084B1C7001220749084801
:1025E80004F00BFF044B1B78022BFBD1014810BDF4
:1025F800D4290020942A0020F82A0020D829002075
:10260800EC3200202DE9F04707F0BFF980468946F3
:10261800FEF784FA8246154B83FB0023C617C6EBE8
:1026280063163046FDF760FF04460D46642000FB44
:1026380016A0FDF759FF06460F465046FDF754FF12
:1026480002460B4640464946FDF700FE02460B4649
:1026580030463946FDF7FCFD0022054BFEF7D8F859
:1026680022462B46FDF7F4FDBDE8F0871F85EB51A8
:1026780000004E40000000002DE9F04F89B00446EC
:102688007748FFF7ABFE2046FFF7A8FE75492046BE
:1026980007F04FFA744D05F14B0ACDF818A005F173
:1026A8004103059305F13706049605F136030393B4
:1026B80005F12207029705F12103019305F10D04A5
:1026C800009405F10C032A46684907F0BBF9204637
:1026D800FFF798FF664C04F10C09FEF767FA06222B
:1026E8004946FFF7C1FE3846FFF78CFF04F1200882
:1026F800FEF75CFA06224146FFF7B6FE304607F0C1
:1027080044F902460B465B4EC6E9002352A3D3E9BF
:102718000023FDF753FF02460B46574EC6E9002338
:1027280004F13407FEF742FA01223946FFF79CFE0E
:10273800284607F02AF9FEF7F1F9504D85FB0032DB
:10274800C317C3EB6212642101FB12024C4EB26044
:102758004C4A82FB00C1C3EB213242F2107C0CFBD5
:10276800120285FB02E0D217C2EB60127260C3EB63
:1027780021300730306000222146FFF74BFE4FF032
:102788003A0B84F802B00022E11C7068FFF742FEA1
:1027980084F805B00022A11DB068FFF73BFE504643
:1027A80007F0F3F8FEF7BAF985FB0063C217C2EB2E
:1027B8006313642101FB130303F5FA63324EB3601C
:1027C800304B83FB0031C2EB213342F2107C0CFB0F
:1027D800130385FB0305DB17C3EB65137360C2EBBB
:1027E8002130306004F1480A00225146FFF712FEFA
:1027F8002F2584F84A50002204F14B017068FFF736
:1028080009FE84F84D50002204F14E01B068FFF72C
:1028180001FE4846FFF7E2FD1C4D2846FFF7DEFDA6
:102828004046FFF7DBFD2846FFF7D8FD2046FFF7B7
:10283800D5FD2846FFF7D2FD5046FFF7CFFD2846C5
:10284800FFF7CCFD3846FFF7C9FD1148FFF7C6FD75
:1028580009B0BDE8F08F00BF6F1283C0CAA1FD3F69
:10286800F0EB000804EC00083C2A00200CEC0008FF
:10287800DC290020102B0020082B00201F85EB519D
:10288800FC2A0020AD8BDB68302A0020D8E4000841
:102898004CEC000810B582B00022ADF804204000CE
:1028A80000F07E008DF804008DF80510084C10210A
:1028B800204602F092FB6423022201A9054803F096
:1028C80090FD01221021204602F087FB02B010BDC6
:1028D80000080140CC28002070B586B08DF80F00A4
:1028E80000228DF817208DF81620C3B25B0003F084
:1028F8007E0343F080038DF80F30114C10212046E1
:1029080002F06BFB0F4D6426009601230DF11702B0
:102918000DF10F01284603F040FE009601230DF14A
:1029280017020DF11601284603F037FE0122102187
:10293800204602F052FB9DF8170006B070BD00BF9C
:1029480000080140CC28002008B50F210120FFF71E
:10295800A1FF08BD38B504460D46FFF7BDFF40EAA4
:102968000501C9B22046FFF795FF38BD38B50446C2
:102978000D46FFF7B1FF20EA0501C9B22046FFF76F
:1029880089FF38BD08B510B1012805D008BD03215D
:102998001420FFF7EBFFF9E71420FFF79DFF10F075
:1029A800030FF3D103211420FFF7D4FFEEE708B596
:1029B800FFF7CAFF80212A20FFF76CFFA9212B20EF
:1029C800FFF768FFE8212D20FFF764FF03212C2083
:1029D800FFF760FF70212620FFF75CFF40211520DC
:1029E800FFF758FF3D211120FFF754FF0120FFF7A3
:1029F800C9FF08BD2DE9F04707468A46154699469E
:102A08000C2817D00E2819D110264FF0120848F0BC
:102A180080010220FFF73EFF80210420FFF7A6FF78
:102A280080210A20FFF796FF00210120FFF732FFDF
:102A380000240DE030264FF07708E8E70026B0467E
:102A4800E5E71AF804100920FFF724FF0134A4B2BF
:102A5800ABB2A342F5D839460120FFF71BFF0C2F74
:102A680016D04FF4FA640420FFF736FF0546013C00
:102A7800A4B224B110F0010F01D10642F3D0802195
:102A88000D20FFF773FF44B902252846BDE8F087FB
:102A980080210D20FFF75EFFE3E70620FFF71CFF0C
:102AA80010F01B0F2CD108EA050515F0010500D020
:102AB80001250C2FE9D10A20FFF70EFF06460C204E
:102AC800FFF70AFF10F0070009D0731E00EBC300E0
:102AD800089B18803EB1102E06D9102604E0F3009A
:102AE800089A1380F6E701260024B3B2A342CCD992
:102AF8000920FFF7F1FE09F804000134A4B2F4E755
:102B08000225C2E730B585B005460C4607210D20E1
:102B1800FFF7C0FE25700DF10E0300932346012236
:102B280021460C20FFF766FF28B9BDF80E30102BA0
:102B380002D0022000E0022005B030BD10B584B0FC
:102B4800044600210D20FFF7A5FE932323702023C0
:102B580063700DF10E0300932346022221460C20D8
:102B6800FFF748FF68B104B010BDA15C4B40DBB271
:102B78000132D2B2032AF8D9A25C9A42F3D00220D9
:102B8800F1E703460246F5E7F8B507460D4616464F
:102B980004210520FFF7EAFE80210A20FFF7DAFE6C
:102BA800002405E0395D0920FFF774FE0134E4B222
:102BB800AC42F7D303210120FFF76CFEFF24052068
:102BC800FFF78AFE631E13F0FF0402D010F0040F13
:102BD800F5D02220FFF780FE30702120FFF77CFE21
:102BE8007070F8BD00B585B050238DF8083000230B
:102BF8008DF809300DF10A02022102A8FFF7C4FF7F
:102C08000DF10E03009302AB042219460C20FFF7C6
:102C1800F1FE05B05DF804FB38B5044601462620F0
:102C2800FFF770FF054618B1FFF7DCFF284638BDEF
:102C38002046FFF783FF0546F6E7000010B5044677
:102C4800FDF7F8FA642382B22146024804F08CF9B1
:102C580010BD00BF5C3200202DE9F04106460F464A
:102C680015462A4C2046FDF7E5FA02460021204683
:102C780006F0C0FE264C2046FDF7DCFA024600218D
:102C8800204606F0B7FE234B00221A6001F03AFCFA
:102C98000446DFF8848001222049404604F0ADFB59
:102CA8003046FDF7C7FA642382B23146404604F045
:102CB8005BF93046FFF792FB02E0322001F028FC76
:102CC80001F020FC001BA842F7D9114D2846FDF75A
:102CD800B1FA02460D4C2946204606F07DFE2046F4
:102CE800FFF77CFB3946204606F023FF20B1012080
:102CF8000B4B1870BDE8F0812046FDF79BFA0246A1
:102D08000021204606F076FE0020F3E7E82B00209D
:102D1800182B0020E42B00205C320020E02B002040
:102D28000400002010B5114A1368591C116010489E
:102D3800104A1278C254104906F0FBFE18B10B4B2A
:102D48001B68022B05D001220A490C4804F055FBE8
:102D580010BD074C2046FDF76DFA024600212046BB
:102D680006F048FE014B00221A60ECE7E42B002035
:102D7800182B0020E02B00209CEC00085C3200207F
:102D880008B50248FFF72AFBFEE700BF50EC000831
:102D980070B58EB004460E46002501952E222946B0
:102DA80002A806F027FEADF800501A238DF800306F
:102DB8002246134901A806F025FEC82211491248E7
:102DC800FFF74AFF012815D1642001F0A1FBC822B2
:102DD8000E4901A8FFF740FF01280DD13046FFF743
:102DE8002DFFC82207496846FFF736FF012805D19D
:102DF8000EB070BDFFF7C4FFFFF7C2FFFFF7C0FFBB
:102E080090EC00086CEC0008A0EC0008ACEC0008A2
:102E1800034B1A6800235362536A8342FCD37047FA
:102E28008431002000B585B00023009301930293FC
:102E3800039300910123019302230393694601F050
:102E4800A5FF05B05DF804FB00B585B0002300932D
:102E5800019302930393009101230293694601F0C1
:102E680095FF05B05DF804FB10B50F4C082120460E
:102E7800FFF7D8FF00220821204602F0AEF84FF4F1
:102E8800F070FFF7C5FF08212046FFF7DDFF50204F
:102E9800FFF7BEFF0821204602F098F84FF4C870EB
:102EA800FFF7B6FF012010BD0010014070B50646BF
:102EB80008211A48FFF7B6FF002411E0174D082132
:102EC8002846FFF7AFFF00220821284602F085F8C0
:102ED8003220FFF79DFF08212846FFF7B5FF013490
:102EE800072C19DC46FA04F313F0010FE6D00B4D5A
:102EF80008212846FFF796FF00220821284602F0FD
:102F08006CF80120FFF784FF08212846FFF79CFF93
:102F18003220FFF77DFFE2E770BD00BF00100140DF
:102F280070B508211448FFF78FFF00252E4603E0EF
:102F38003220FFF76DFF0135072D1BDC0E4C0821F1
:102F48002046FFF76FFF00220821204602F045F8CF
:102F58000120FFF75DFF08212046FFF775FF0821D4
:102F6800204602F033F80028E2D00123AB401E438C
:102F7800F6B2DDE7304670BD0010014010B5FFF72E
:102F880073FF04E01648FFF729FAFFF76DFF0128E1
:102F9800F8D101F0BDFACC20FFF788FF4420FFF7F5
:102FA80085FF4FF4487001F0B3FAFFF75DFF012089
:102FB80001F0AEFACC20FFF779FFBE20FFF776FFCD
:102FC800FFF7AEFF0446FFF7ABFF44EA002080B2EC
:102FD800FDF7F2FE4FF07651FDF746FF10BD00BF3A
:102FE800B0EC00082DE9F04383B005460C46FDF728
:102FF80021F980462046FDF71DF90646384F4FF067
:10300800C8094A460021384606F0F4FC4346354ACA
:1030180012693549384606F0F5FC4A4633493846C0
:10302800FFF71AFE01284CD1642001F071FAC8227A
:103038002F492846FFF710FE012845D1642001F0EA
:1030480067FA274DC8273A460021284606F0D2FCE1
:103058003346244A12692749284606F0D3FC3A46E3
:1030680022492846FFF7F8FD012830D1642001F0F5
:103078004FFA4FF47A721E492046FFF7EDFD0128FA
:1030880028D1642001F044FA154CC8252A460021AD
:10309800204606F0AFFC134A9389009353691269DE
:1030A8001549204606F0AEFC2A4614492046FFF78B
:1030B800D3FD012811D1642001F02AFA03B0BDE83C
:1030C800F083FFF75DFEAFE7FFF75AFEB6E7FFF7BD
:1030D80057FECBE7FFF754FED3E7FFF751FEEAE7C9
:1030E800B02C00200800002030ED0008ACEC0008EF
:1030F8006CEC000848ED000860ED000878ED000869
:1031080008B500F04FF908BD08B500F00DFA08BD84
:1031180008B500F013FA08BD08B500F05BFA08BD61
:1031280008B500F0B9FA08BD014B00221A707047C3
:10313800792D0020014B1878704700BF792D0020A9
:1031480000B583B08DF80700074803F048FB012855
:10315800FAD14FF47A7301220DF10701024803F006
:1031680040F903B05DF804FB7C29002008B5002273
:103178000221024801F031FF08BD00BF000C0140E8
:1031880008B501220221024801F027FF08BD00BF4F
:10319800000C014000B585B0FF238DF80F300023E7
:1031A8008DF80E300A4803F01AFB0128FAD14FF4C3
:1031B8007A73009301230DF10E020DF10F010448FB
:1031C80003F0EBF99DF80E0005B05DF804FB00BFB5
:1031D8007C29002010B582B0FFF7D2FF002403E05D
:1031E800FF20FFF7ADFF0134092CF9DDFFF7BEFF23
:1031F80040238DF8003000248DF801408DF80240FE
:103208008DF803408DF8044095238DF8053007E0CC
:1032180004F108036B4413F8080CFFF791FF01341D
:10322800052CF5DD41F6FF74FFF7B4FF012802D045
:103238000CB1013CF8E7FFF7A3FFFF20FFF780FF81
:10324800024B01221A7002B010BD00BF792D002078
:1032580008B5074B32221A70FFF79CFFFFF79AFF59
:10326800FF2803D0024B1B78002BF7D108BD00BF05
:103278008033002038B504460D46FFF7E9FFFF28E4
:1032880001D0FF2038BD2046FFF75AFF280EFFF770
:1032980057FFC5F30740FFF753FFC5F30720FFF7B4
:1032A8004FFFE8B2FFF74CFF402C11D00020482C0C
:1032B80010D0FFF745FF4C2C0ED00A24FFF76AFF09
:1032C80010F0800FDED0631E13F0FF04F6D1D9E7AB
:1032D8009520ECE78720ECE7FFF75CFFEDE710B5FA
:1032E8000446FFF757FF207010BD000070B5044674
:1032F8000E460F4B0A221A70FFF74CFFFF2803D126
:103308000B4B1B78002BF7D1FE280FD1651C2046EC
:10331800FFF7E5FF28460234FFF7E1FF023EF5D14B
:10332800FFF738FFFFF736FF012070BD0020FCE7EC
:103338007E33002070B505460C46FFF789FFFF284D
:1033480001D0002070BD00262046FFF7F9FEFD2CB5
:103358001FD034462878FFF7F3FE68780235FFF768
:10336800EFFE631E13F0FF04F4D1FFF713FFFFF71E
:1033780011FF402C09D8FFF70DFF064600F01F0388
:10338800052B02D0631CDCB2F3E7FFF703FF00282C
:10339800FBD006F01F06052E01D00020D2E7012041
:1033A800D0E70000002840F0B68030B583B05B4B12
:1033B8001B7813F0020404D0584B1878C0B203B03D
:1033C80030BDFFF707FFFFF7D1FE00214020FFF7D0
:1033D80051FF0546012811D0514B1C70FFF7D0FE54
:1033E800FFF7D8FE002C00F093804C4A137803F0C6
:1033F800FE031370494B1878C0B2E0E7494B6422CA
:103408001A704FF4D5714820FFF734FF012846D1D0
:10341800254608E0FFF7BEFE05F108036B4403F8F4
:10342800040C0135EDB2032DF4D99DF80630012BBB
:10343800D2D19DF80730AA2BCED102E0394B1B78A8
:1034480063B100217720FFF715FF0128F6D84FF068
:1034580080416920FFF70EFF0028EFD1314B1B7820
:1034680003F0FF020BB91446B6E700217A20FFF7F4
:1034780001FF05460028AFD1032D09D8FFF78AFEC2
:1034880005F108036B4403F8040C0135EDB2F3E7CA
:103498009DF8043013F0400F38D006249CE7002133
:1034A8007720FFF7E7FE012810D800216920FFF7F1
:1034B800E1FE01280AD8022508E000217720FFF75D
:1034C800D9FE012811D9174B1B783BB1022DF4D036
:1034D80000214120FFF7CEFE0028F4D1114B1B78C4
:1034E80003F0FF0243B9144676E700216920FFF78D
:1034F800C1FE0028E7D1F1E74FF400715020FFF733
:10350800B9FE00287FF468AF2C4665E7022463E71C
:10351800FFF70AFE6EE70120704700BF3400002065
:10352800782D00207E33002018B9034B1878C0B2DC
:1035380070470120704700BF3400002000283ED1AA
:1035480070B50D4616461C46002B3AD01F4B1B780B
:1035580013F0010F37D11E4B1B7813F0040F00D165
:103568005602FFF703FE012C1AD031465220FFF70E
:1035780081FE68B94FF400712846FFF7B7FE18B10D
:1035880005F50075013CF5D100214C20FFF772FECE
:10359800FFF7F6FDFFF7FEFD201E18BF012070BDE6
:1035A80031465120FFF766FE0028F1D14FF4007133
:1035B8002846FFF79BFE0028EAD00024E8E704200D
:1035C80070470420EBE70320E9E700BF3400002040
:1035D800782D0020002852D170B50D4616461C469D
:1035E800002B4ED02A4B1B7813F0010F4BD1284BE0
:1035F8001B7813F0040F48D1264B1B7813F0040FE7
:1036080000D15602FFF7B2FD012C1FD0214B1B78C9
:1036180013F0020F28D131465920FFF72BFE68B965
:10362800FC212846FFF786FE18B105F50075013C18
:10363800F6D1FD210020FFF77DFEF0B1FFF7A0FDD8
:10364800FFF7A8FD201E18BF012070BD3146582085
:10365800FFF710FE0028F1D1FE212846FFF76AFE89
:103668000028EBD00024E9E700217720FFF702FECD
:1036780021465720FFF7FEFDCDE70124DEE70420B1
:1036880070470420E1E70320DFE70220DDE700BF01
:1036980034000020782D002070B584B0002840F058
:1036A800B7800D4616460446052913D05A4B1C7898
:1036B80014F0010440F0AE80FFF758FD0D2D00F224
:1036C8009B80DFE805F063205F999999999999990A
:1036D800996978871578012D0ED0022D0FD00DB17C
:1036E80004248EE0FFF726FD0446002800F08980B8
:1036F800FFF71AFD2C4684E0FFF76CFD81E0FFF729
:1037080019FD70707DE000214920FFF7B3FD0446E4
:1037180008B12C4671E010216846FFF7E7FD002844
:1037280072D09DF800309B09012B1FD09DF8052011
:1037380002F00F029DF80A3002EBD3129DF809300F
:103748005B0003F006031A449DF808309DF8071043
:103758009B0903EB81039DF80610890201F440617F
:103768000B440133073A9340336046E09DF8093033
:103778009DF8082003EB02239BB201339BB29B0206
:1037880033603AE04FF40073338036E0FFF760FDB2
:10379800FF283BD0012430E000214920FFF76AFDD3
:1037A800044608B1012428E010213046FFF79EFDA9
:1037B80018BB012421E000214A20FFF75BFD0446E5
:1037C80008B1012419E010213046FFF78FFDA0B998
:1037D800012412E000217A20FFF74CFD044638B19D
:1037E80004240AE0FFF7D6FC06F8010B0134E4B222
:1037F800032CF7D9042400E00424FFF7C1FCFFF7E9
:10380800C9FC204604B070BD2C46F6E72C46F4E708
:103818000424F6E70324F4E73400002008B530B99F
:1038280000214FF48062034806F0E4F808BDFF2148
:10383800F7E700BF842D00207F2815D83F2913D82B
:10384800104B1B7913B1B2FA82F25209012A0CD03B
:10385800CB0800EBC31001F0070101238B400A4A93
:10386800115C21EA030111547047CB0800EBC31027
:1038780001F0070101238B40034A115C19431154DD
:10388800704700BF7C2D0020842D00202DE9F04FCB
:1038980083B08346884692461E46BDF93030019370
:1038A800BDF83430009316F1070904D44FEAE9094A
:1038B80000273D462CE009F10709F7E709FB07F166
:1038C8001A46002B12DB42F3CF020A441AF80250C0
:1038D80015F0800F0CD1631C1BB2B34212DA9CB2F4
:1038E80013F0070FEAD06D00EDB2F1E7DA1DEAE751
:1038F80004EB0B009DF800201FFA88F180B2FFF757
:103908009BFFE8E701373FB208F101080FFA88F892
:10391800019B9F4201DA0023DFE703B0BDE8F08F87
:10392800014B1880598070477C2D00202DE9F84301
:103938009046244B1B880A7813447F2B3EDC814633
:103948000D46204B5B884A7813443F2B38DC002611
:1039580020E01C4B1888598831442044B8FA88F272
:10396800520989B280B2FFF767FF01342B78A3426E
:103978000FD907FA04F313F4004FEAD0114B188853
:10398800598831442044424689B280B2FFF754FF37
:10399800EBE701366A78B24208D96968A9F12003D1
:1039A80002FB036331F813700024DFE72B78054A24
:1039B80011880B4413804846BDE8F8830020FBE7D4
:1039C8000020F9E77C2D002070B504460E46154608
:1039D80000E00134207838B12A463146FFF7A6FFC7
:1039E800034620788342F4D070BD000000B5C3B010
:1039F8008DF808104FF0000C09E00CF1010E12F8D8
:103A08000C100DF1080C0CF80E105FFA8EFC1FFA62
:103A18008CFE9E45F1D301330A2200929BB202AA82
:103A28000146034801F09AFE43B05DF804FB00BF6D
:103A38006428002000B585B08DF80C108DF80D2095
:103A48000A230093022303AA0146034801F086FED5
:103A580005B05DF804FB00BF6428002010B5002401
:103A68001AE0A4F15002D2B200217820FFF7E2FF59
:103A7800002211467820FFF7DDFF10220021782070
:103A8800FFF7D8FF8023064A02EBC41240217820B2
:103A9800FFF7ACFF0134E4B2072CE2D910BD00BF38
:103AA800842D002008B50020FFF7B8FEFFF7D6FFE9
:103AB80008BD000008B544F6206301227821554866
:103AC80001F008FF002840F0A38040F6C41300E08E
:103AD800013B002BFCD1AE2200217820FFF7AAFF82
:103AE800202200217820FFF7A5FF1022002178204E
:103AF800FFF7A0FFB02200217820FFF79BFFC82224
:103B080000217820FFF796FF002211467820FFF762
:103B180091FF102200217820FFF78CFF402200211E
:103B28007820FFF787FF812200217820FFF782FFA6
:103B3800FF2200217820FFF77DFFA12200217820B5
:103B4800FFF778FFA62200217820FFF773FFA8224D
:103B580000217820FFF76EFF3F2200217820FFF731
:103B680069FFA42200217820FFF764FFD3220021F7
:103B78007820FFF75FFF002211467820FFF75AFFF1
:103B8800D52200217820FFF755FFF0220021782068
:103B9800FFF750FFD92200217820FFF74BFF2222A0
:103BA80000217820FFF746FFDA2200217820FFF76E
:103BB80041FF122200217820FFF73CFFDB22002181
:103BC8007820FFF737FF202200217820FFF732FF07
:103BD8008D2200217820FFF72DFF14220021782064
:103BE800FFF728FFAF2200217820FFF723FF2E22BE
:103BF80000217820FFF71EFF0020FFF70FFEFFF7D8
:103C08002DFF054B00221A805A800120587108BDEB
:103C18000020FCE7642800207C2D002000B587B038
:103C2800002302930393049305930093019315488B
:103C3800154A02604722426083604FF6FF72C260F5
:103C480003614361836102F07BFF90B94FF48053B5
:103C5800029302A90B4802F0ABFF68B90023009356
:103C680001936946074803F023F840B907B05DF8A7
:103C780004FBFDF789FBE9E7FDF786FBEEE7FDF7B7
:103C880083FBF3E784310020002C014000B587B0A6
:103C9800002302930393049305930093019316481A
:103CA8004FF08042026041F61F424260836041F259
:103CB8008832C2600361836102F042FF90B94FF419
:103CC8008053029302A90C4802F072FF68B90023DE
:103CD800009301936946084802F0EAFF40B907B02B
:103CE8005DF804FBFDF750FBE9E7FDF74DFBEEE758
:103CF800FDF74AFBF3E700BFCC31002000B587B0E1
:103D080000230293039304930593009301931548AA
:103D1800154A026041F61F42426083604EF66022F7
:103D2800C2600361836102F00BFF90B94FF48053C6
:103D3800029302A90B4802F03BFF68B900230093E5
:103D480001936946074802F0B3FF40B907B05DF830
:103D580004FBFDF719FBE9E7FDF716FBEEE7FDF7B6
:103D680013FBF3E7143200200004004000B585B0CF
:103D780003681F4A934208D0B3F1804F10D01D4A00
:103D8800934221D005B05DF804FB1B4B9A6942F4BD
:103D980000629A619B6903F400630193019BF1E758
:103DA80003F50433DA6942F00102DA61DB6903F0F2
:103DB80001030293029B002211461C2001F0FEF928
:103DC8001C2001F033FADDE70B4BDA6942F00202FE
:103DD800DA61DB6903F002030393039B00220121EC
:103DE8001D2001F0EBF91D2001F020FACAE700BF01
:103DF800002C0140000400400010024008B50A48A9
:103E08000A4B03604FF41653436000238360C3607A
:103E180003610C2242618361C36103F075F800B944
:103E280008BDFDF7B1FAFBE7EC320020004C00407A
:103E380008B50A480A4B03604FF4E1334360002396
:103E48008360C36003610C2242618361C36103F034
:103E58005BF800B908BDFDF797FAFBE7343300209B
:103E68000050004008B50A480A4B03604FF4E1339C
:103E7800436000238360C36003610C224261836155
:103E8800C36103F041F800B908BDFDF77DFAFBE70F
:103E98005C3200200038014008B50A480A4B03602C
:103EA8004FF41653436000238360C36003610C2200
:103EB80042618361C36103F027F800B908BDFDF7CB
:103EC80063FAFBE7A43200200044004070B58EB0CE
:103ED80000230A930B930C930D930368694A93424A
:103EE8000BD0694A93423AD0684A934268D0684AEC
:103EF800934200F097800EB070BD664BDA6942F4C9
:103F08000022DA61DA6902F400220192019A9A69C0
:103F180042F010029A619B6903F010030293029B1E
:103F28004FF480630A9302230B9303250D955A4E91
:103F38000AA9304600F02AFF4FF400630A930024D0
:103F48000B940C940AA9304600F020FF224629461B
:103F5800342001F033F9342001F068F9CBE74D4BF8
:103F6800DA6942F48012DA61DA6902F480120392A3
:103F7800039A9A6942F010029A619A6902F0100253
:103F88000492049A9A6942F020029A619B6903F0AC
:103F980020030593059B4FF480530A9302230B9348
:103FA80003230D930AA93C4800F0F0FE04230A936A
:103FB80000230B930C930AA9384800F0E7FE9AE710
:103FC800344B9A6942F480429A619A6902F48042B9
:103FD8000692069A9A6942F004029A619B6903F074
:103FE80004030793079B4FF400730A9302250B956C
:103FF80003230D932A4E0AA9304600F0C7FE4FF45A
:1040080080630A9300240B940C940AA9304600F0AC
:10401800BDFE22462946252001F0D0F8252001F0D2
:1040280005F968E71B4BDA6942F40032DA61DA69AC
:1040380002F400320892089A9A6942F004029A61DE
:104048009B6903F004030993099B04230A93022341
:104058000B9303230D93124D0AA9284600F096FEF0
:1040680008230A9300240B940C940AA9284600F00C
:104078008DFE22462146262001F0A0F8262001F0D8
:10408800D5F838E7004C00400050004000380140A7
:10409800004400400010024000100140001401409C
:1040A800000801400A4B1B889BB22BB1084A1388B1
:1040B8009BB2013B9BB21380064B1B889BB22BB172
:1040C800044A13889BB2013B9BB21380704700BF20
:1040D8007E33002080330020FEE7FEE7FEE7FEE7A0
:1040E800FEE770477047704708B5094A13780133EF
:1040F800DBB213701378DBB2092B02D800F0F6F9A3
:1041080008BD134600221A70FFF7CCFFF6E700BF80
:104118007C33002008B5024802F008FC08BD00BF47
:10412800CC31002008B5024802F000FC08BD00BFF1
:104138001432002008B5024803F000F808BD00BF9B
:104148005C32002008B5024802F0F8FF08BD00BF45
:10415800A432002008B5024801F0DCFF08BD00BF0A
:10416800B828002008B5024802F0E8FF08BD00BFE3
:10417800EC32002082B00E4B9A6942F001029A613B
:104188009A6902F001020092009ADA6942F08052BC
:10419800DA61DB6903F080530193019B054A536898
:1041A80023F0E06343F00073536002B0704700BF30
:1041B800001002400000014030B482B00022019299
:1041C80090F82420012A00F091800346012280F80B
:1041D80024204A68062A2DD80468606B02EB820204
:1041E800053A4FF01F0C0CFA02FC20EA0C000D688F
:1041F80005FA02F2024362630A68092A3AD91C687E
:10420800E06802EB42021E3A4FF0070C0CFA02FC7F
:1042180020EA0C008D6805FA02F20243E2600A689F
:10422800103A012A36D90020002283F8242002B04F
:1042380030BC70470C2A0ED80568286B02EB820246
:10424800233A1F24944020EA04000C6804FA02F27E
:1042580002432A63D0E70568E86A02EB8202413A22
:104268001F24944020EA04000C6804FA02F2024376
:10427800EA62C1E71C68206902EB42024FF0070CB2
:104288000CFA02FC20EA0C008D6805FA02F20243DF
:104298002261C4E71A681648824205D09A6A42F039
:1042A80020029A620120BFE7906810F4000F1BD12A
:1042B800906840F4000090600A68102A01D000203D
:1042C800B2E70C4A12680C49A1FB0212920C02EBED
:1042D80082025200019202E0019A013A0192019A87
:1042E800002AF9D100209FE700209DE702209EE7E1
:1042F800002401404800002083DE1B4338B50368D2
:104308009A6812F0010F01D1002038BD04469A685E
:1043180022F001029A6000F0F5F8054623689B68D0
:1043280013F0010F13D000F0EDF8431B022BF5D961
:1043380023689B6813F0010FF0D0A36A43F01003C1
:10434800A362E36A43F00103E3620120DDE7002092
:10435800DBE70000002800F0888070B50446836A17
:10436800002B52D02046FFF7C9FFA36A13F01003B1
:1043780075D1002873D1A26A22F4885222F0020271
:1043880042F00202A2626268266839498E4242D02F
:10439800E1690A43217B42EA4102A568B5F5807FBD
:1043A80002D0012D3ED01D4694F814C0BCF1010F77
:1043B8003BD0716821F46941294371602568AE6872
:1043C8002C4931401143A960A168B1F5807F01D023
:1043D800012902D12369013B1B052568E96A21F4FB
:1043E80070010B43EB6223689968234B0B409A4298
:1043F8002CD0A36A23F0120343F01003A362E36AEC
:1044080043F00103E36201202EE0C36280F8243008
:10441800FDF7C8FDA6E7E169B1F5402FB9D14FF422
:104428000021B6E74FF48075BEE731B9A1690139BB
:1044380045EA413141F40065BBE7A16A41F020013A
:10444800A162E16A41F00101E162B2E70023E3629F
:10445800A36A23F0030343F00103A36204E0A36A01
:1044680043F01003A362012070BD0120704700BF14
:10447800003C0140FDF7E1FFFE0E1FFF10B50446AA
:104488000E4B18784FF47A73B3FBF0F30C4A1068AC
:10449800B0FBF3F000F0D8FE68B90F2C01D9012069
:1044A8000AE0002221464FF0FF3000F087FE054B5E
:1044B8001C60002000E0012010BD00BF400000206B
:1044C800480000204400002008B5074A136843F05C
:1044D80010031360032000F05FFE0F20FFF7CEFFEC
:1044E800FFF748FE002008BD00200240034A11687B
:1044F800034B1B780B441360704700BF84330020C4
:1045080040000020014B1868704700BF843300202A
:1045180038B50446FFF7F6FF0546B4F1FF3F02D071
:10452800044B1B781C44FFF7EDFF401BA042FAD355
:1045380038BD00BF4000002082B0084B1B68084A05
:10454800A2FB03235B0A00FB03F3019300BF019B5B
:104558005A1E0192002BF9D102B070474800002082
:10456800D34D6210002800F0F18170B582B0044686
:10457800036813F0010F2CD0994B5B6803F00C0310
:10458800042B1DD0964B5B6803F00C03082B12D04C
:104598006368B3F5803F41D0002B55D103F18043C8
:1045A80003F504331A6822F480321A601A6822F478
:1045B80080221A6037E08A4B5B6813F4803FE7D0AB
:1045C800874B1B6813F4003F03D06368002B00F08F
:1045D800BF81236813F0020F75D0814B5B6813F01D
:1045E8000C0F5FD07E4B5B6803F00C03082B54D094
:1045F8002369002B00F08A807A4B01221A60FFF7AA
:1046080081FF0546764B1B6813F0020F75D1FFF743
:1046180079FF401B0228F5D903209EE1704A1368F0
:1046280043F480331360636843B3FFF76BFF0546B9
:104638006B4B1B6813F4003FCBD1FFF763FF401BA4
:104648006428F5D9032088E1B3F5A02F09D0644B7D
:104658001A6822F480321A601A6822F480221A60DA
:10466800E1E703F18043A3F53C331A6842F4802262
:104678001A601A6842F480321A60D4E7FFF742FFE2
:104688000546574B1B6813F4003FA2D0FFF73AFFCB
:10469800401B6428F5D903205FE1514B5B6813F494
:1046A800803FA5D14E4B1B6813F0020F03D023693E
:1046B800012B40F04F814A4A136823F0F8036169DF
:1046C80043EAC1031360236813F0080F33D0A369CA
:1046D800002B5CD0434B0122C3F88024FFF712FF64
:1046E80005463F4B5B6A13F0020F21D1FFF70AFF23
:1046F800401B0228F5D903202FE1394A136823F01B
:10470800F803616943EAC1031360DCE7354B002213
:104718001A60FFF7F7FE0546314B1B6813F0020FCE
:10472800D1D0FFF7EFFE401B0228F5D9032014E192
:104738000120FFF701FF236813F0040F00F09680B3
:10474800274BDB6913F0805F34D1254BDA6942F0DF
:104758008052DA61DB6903F080530193019B0125E4
:10476800214B1B6813F4807F26D0E368012B3DD0D2
:10477800002B53D103F1804303F504331A6A22F066
:1047880001021A621A6A22F004021A6233E0154B17
:104798000022C3F88024FFF7B5FE0546104B5B6A7C
:1047A80013F0020FC7D0FFF7ADFE401B0228F5D962
:1047B8000320D2E00025D3E70B4A136843F4807343
:1047C8001360FFF79FFE0646074B1B6813F4807FB4
:1047D800CBD1FFF797FE801B6428F5D90320BCE0F6
:1047E8000010024000004242007000405F4A136A15
:1047F80043F001031362E36833B3FFF783FE064611
:104808005A4B1B6A13F0020F2FD1FFF77BFE801B58
:1048180041F288339842F3D903209EE0052B09D052
:10482800524B1A6A22F001021A621A6A22F0040232
:104838001A62E0E74D4B1A6A42F004021A621A6AD9
:1048480042F001021A62D6E7FFF75CFE0646474BC4
:104858001B6A13F0020F08D0FFF754FE801B41F2C9
:1048680088339842F3D9032077E0E5B9E369002B50
:1048780072D03E4A526802F00C02082A56D0022B27
:1048880017D03B4B00221A66FFF73CFE0446374B15
:104898001B6813F0007F47D0FFF734FE001B022887
:1048A800F5D9032059E0314AD36923F08053D36105
:1048B800DCE72F4B00221A66FFF724FE05462B4B38
:1048C8001B6813F0007F06D0FFF71CFE401B022870
:1048D800F5D9032041E0236AB3F5803F1AD0234974
:1048E8004B6823F47413226A606A024313434B60D3
:1048F8001F4B01221A66FFF705FE04461B4B1B6877
:1049080013F0007F0ED1FFF7FDFD001B0228F5D93B
:10491800032022E0154A536823F40033A1680B43AF
:104928005360DCE7002018E0002016E0012B16D0C9
:104938000E4B5B6803F48031226A914211D103F473
:104948007013626A93420ED1002006E0012070477E
:10495800012002E0012000E0002002B070BD01202B
:10496800FBE70120F9E70120F7E700BF001002404C
:10497800000042420F4B5B6803F00C02082A01D08A
:104988000D487047C3F383420C49885C13F4803F99
:104998000BD0084B5B68C3F34043094AD35C064A13
:1049A80002FB00F0B0FBF3F07047064B03FB00F08E
:1049B800704700BF0010024000127A0024F500087A
:1049C80034F5000800093D00002800F0A08070B50B
:1049D8000D460446524B1B6803F007038B420BD26B
:1049E8004F4A136823F007030B431360136803F05F
:1049F80007038B4240F08D80236813F0020F17D015
:104A080013F0040F04D0474A536843F4E06353603B
:104A1800236813F0080F04D0424A536843F46053E4
:104A28005360404A536823F0F003A1680B43536076
:104A3800236813F0010F31D06368012B20D0022BBB
:104A480025D0384A126812F0020F64D035494A68F6
:104A580022F0030213434B60FFF754FD0646314B27
:104A68005B6803F00C036268B3EB820F16D0FFF7A4
:104A780049FD801B41F288339842F0D9032045E074
:104A8800284A126812F4003FE0D101203EE0254A8E
:104A9800126812F0007FD9D1012037E0204B1B6843
:104AA80003F00703AB420AD91D4A136823F0070332
:104AB8002B431360136803F00703AB422DD123681F
:104AC80013F0040F06D0174A536823F4E063E16833
:104AD8000B435360236813F0080F07D0114A53683B
:104AE80023F46053216943EAC1035360FFF742FF8F
:104AF8000C4B5B68C3F303130B4AD35CD8400B4BD6
:104B080018600B4B1868FFF7B9FC002070BD012036
:104B180070470120FAE70120F8E70120F6E700BF17
:104B280000200240001002404CF500084800002018
:104B380044000020014B1868704700BF480000205F
:104B480008B5FFF7F7FF044B5B68C3F30223034A7A
:104B5800D35CD84008BD00BF001002405CF50008D7
:104B680008B5FFF7E7FF044B5B68C3F3C223034AAA
:104B7800D35CD84008BD00BF001002405CF50008B7
:104B880070B582B00446036813F0010F36D03F4B6E
:104B9800DB6913F0805F49D13C4BDA6942F08052FF
:104BA800DA61DB6903F080530193019B0125384BDF
:104BB8001B6813F4807F3BD0344B1B6A13F440739B
:104BC80013D0626802F440729A420ED02F4A136AD8
:104BD80023F440702F490126C1F840640026C1F82B
:104BE8004064106213F0010F36D1284A136A23F487
:104BF800407361680B431362002D3ED1236813F0A4
:104C0800020F06D0214A536823F44043A1680B439E
:104C18005360236813F0100F34D01C4A536823F4F0
:104C2800800361690B43536000202CE00025BEE738
:104C3800174A136843F480731360FFF763FC064652
:104C4800134B1B6813F4807FB6D1FFF75BFC801B06
:104C58006428F5D9032016E0FFF754FC06460B4BF1
:104C68001B6A13F0020FC0D1FFF74CFC801B41F206
:104C780088339842F3D9032005E0D36923F08053A1
:104C8800D361BBE7002002B070BD00BF0010024036
:104C9800007000400000424208B501380F2863D870
:104CA800DFE800F03557622F626262326262626248
:104CB800626262082F4B5A68186810F0807054D0EE
:104CC800C2F383432C49C85C12F4803F15D0294BAA
:104CD8005B68C3F34043294AD25C294BB3FBF2F328
:104CE80003FB00F0234B5B6813F4800F3DD14000B9
:104CF800244BA3FB0030400837E0234B03FB00F0B4
:104D0800F0E7FFF737FE30E0FFF734FE2DE0194BF0
:104D18001B6A40F202321A40B2F5817F26D003F4B2
:104D28004073B3F5007F04D0B3F5407F09D000206D
:104D38001BE0104A526A12F0020FF5D049F64040C3
:104D480013E00C4B186810F400300ED04FF22440DA
:104D58000BE0FFF705FF074B5B68C3F381330133B3
:104D68005B00B0FBF3F000E0002008BD4FF400400A
:104D7800FBE700BF0010024038F5000848F50008BE
:104D880000127A00ABAAAAAA00093D0070B582B049
:104D98000024A446B0E0874DAA4210D007D9864D1A
:104DA800AA420CD005F58035AA4208D013E0A5F533
:104DB8008015AA4203D005F57025AA4207D18A6852
:104DC800002A62D0012A5BD04361082403E0A5F5DC
:104DD8008015AA42F3D0BEF1FF0F58D80646BEF19F
:104DE800FF0F56D84FEA8C0233680F25954023EA07
:104DF800050304FA02F2134333604B6813F0805F33
:104E080078D06E4B9A6942F001029A619B6903F06F
:104E180001030193019B4FEA9C02951C684B53F8D0
:104E280025600CF003039D000F23AB4026EA030620
:104E3800644B984233D003F58063984200F0988021
:104E480003F58063984200F0958003F580639842EB
:104E580000F0928003F58063984200F08F8003F59C
:104E68008063984219D006231AE0CC68B3E7CC686F
:104E78000434B0E7CC680834ADE7CC680C34AAE752
:104E880003610824A7E70024A5E70424A3E7061D77
:104E9800A5E7ACF108029200A6E7052300E000238D
:104EA800AB4033430232464D45F822304B6813F489
:104EB800801F65D0444A936843EA0E0393604B68A9
:104EC80013F4001F62D0404AD36843EA0E03D3604C
:104ED8004B6813F4003F5FD03B4A536843EA0E0324
:104EE80053604B6813F4803F5CD0374A136843EA39
:104EF8000E0313600CF1010C0A6832FA0CF357D058
:104F0800012303FA0CF302EA030E33EA0202F1D199
:104F18004A68122A3FF63FAF122A3FF65CAF01A556
:104F280055F822F0C74D0008734E00087D4E000862
:104F38008F4E0008DF4D0008DF4D0008DF4D0008E8
:104F4800DF4D0008DF4D0008DF4D0008DF4D000889
:104F5800DF4D0008DF4D0008DF4D0008DF4D000879
:104F6800DF4D0008DF4D0008774E0008834E00082B
:104F7800012395E7022393E7032391E704238FE7AF
:104F8800114A936823EA0E03936098E70E4AD368A0
:104F980023EA0E03D3609BE70B4A536823EA0E0308
:104FA80053609EE7084A136823EA0E031360A1E7DB
:104FB80002B070BD00002210000031100010024045
:104FC80000000140000801400004014083681942C4
:104FD80001D001207047002070470AB10161704775
:104FE80009040161704790F82130DBB2022B06D02A
:104FF80004238363002380F820300120704702686F
:10500800136823F00E0313600268136823F001038A
:105018001360036CC16B012202FA03F34B6080F842
:105028002120002380F820301846704708B590F8F2
:105038002130DBB2022B03D004238363012008BD97
:105048000268136823F00E0313600268136823F0E4
:105058000103136003684C4A93424ED9783A93424D
:1050680024D01432934230D0143293422FD01432C9
:1050780093422FD0143293422FD0143293422FD020
:10508800143293422FD002F5627293422ED014321A
:1050980093422DD0143293422CD01432934202D032
:1050A8004FF4803203E04FF4805200E00122374B86
:1050B8005A60012380F82130002380F82030436BA8
:1050C800002B5ED098470020B9E71022EFE74FF495
:1050D8008072ECE74FF48052E9E74FF48032E6E75C
:1050E8004FF48012E3E74FF08072E0E70122DEE739
:1050F8001022DCE74FF48072D9E7254A934224D086
:105108001432934225D01432934224D0143293425D
:1051180024D01432934224D01432934224D014322F
:10512800934224D002F56272934223D01432934200
:1051380022D01432934221D01432934202D04FF439
:10514800803203E04FF4805200E00122114B5A6094
:10515800AFE71022FAE74FF48072F7E74FF4805276
:10516800F4E74FF48032F1E74FF48012EEE74FF0A6
:105178008072EBE70122E9E71022E7E74FF480723B
:10518800E4E700205BE700BF800002400004024023
:105198000800024000000240074AD36823F4E06395
:1051A8001B041B0C000200F4E060034343F0BF63E0
:1051B80043F40033D360704700ED00E000B5194BAD
:1051C800DB68C3F30223C3F1070CBCF1040F28BF4B
:1051D8004FF0040C03F1040EBEF1060F18D9033B7F
:1051E8004FF0FF3E0EFA0CFC21EA0C0199400EFA32
:1051F80003F322EA0303194300280BDB0901C9B2B0
:1052080000F1604000F5614080F800135DF804FB90
:105218000023E5E700F00F000901C9B2024B195459
:10522800F4E700BF00ED00E014ED00E0002807DB24
:1052380000F01F02400901239340024A42F820303F
:10524800704700BF00E100E00138B0F1807F0BD269
:105258004FF0E0235861054AF02182F8231000201E
:10526800986107221A6170470120704700ED00E03D
:10527800014B01221A62704700000E4203685A6906
:1052880012F4806F01D1002070476FF480625A6178
:1052980000230363202280F83D2080F83E30026C12
:1052A80042F00402026480F83C30012070472DE986
:1052B800F04106460C46174698463BE0FFF722F9B0
:1052C800069BC01A404502D8B8F1000F32D1012D13
:1052D80018D033689B6924EA03039BB2B3FA83F3BB
:1052E8005B099F4226D100233363202286F83D20A4
:1052F80086F83E30326C42F02002326486F83C3048
:10530800012027E033685B6924EA03039BB2B3FA00
:1053180083F35B09E5E733685B6924EA030C1FFA4A
:105328008CFCBCFA8CFC4FEA5C1C674511D1B8F1C7
:10533800FF3FC3D1C4F30745012DECD033689B6907
:1053480024EA030C1FFA8CFCBCFA8CFC4FEA5C1CA8
:10535800EBE70020BDE8F0812DE9F84305460E464D
:105368009046994653E01A6842F400721A602B6816
:105378006FF480625A6100232B63202285F83D2058
:1053880085F83E302A6C42F004022A6485F83C30E5
:1053980001204AE0FFF7B6F8A0EB0900404502D823
:1053A800B8F1000F33D1012F17D02B689B6926EA7B
:1053B80003039BB2003B18BF012343B300232B63B5
:1053C800202285F83D2085F83E302A6C42F02002E4
:1053D8002A6485F83C30012027E02B685B6926EABF
:1053E80003039BB2003B18BF0123E6E72B689C69C7
:1053F80026EA0404A4B2003C18BF0124A4B12B6817
:105408005A6912F4806FAED1B8F1FF3FC2D1C6F32A
:105418000747012FEAD12B685C6926EA0404A4B285
:10542800003C18BF0124E9E70020BDE8F88300002C
:10543800F0B583B004460D4616461F46C36A082BCE
:105448000DD0012B0BD013F5803F08D0036B122B26
:105458000AD10268136843F48073136004E0226879
:10546800136843F4807313600097334600224FF0AB
:1054780001112046FFF71BFF80B92369B3F5804F60
:1054880016D1236805F0FE051D613B4632461349D7
:105498002046FFF761FFF8B903B0F0BD23681B6829
:1054A80013F4807F02D04FF4007323640320F3E7E2
:1054B800EB11226803F0060343F0F00313613B4647
:1054C800324607492046FFF747FF18B92368EDB26F
:1054D8001D61DAE70120DFE70120DDE702000100B6
:1054E8000800010070B504460D46164623685B693E
:1054F80013F0800F21D12046FFF7C0FEF8B9B5F1AF
:10550800FF3FF3D0FEF7FEFF801BA84201D8002D15
:10551800ECD123685B6913F0800FE7D10023236384
:10552800202284F83D2084F83E30226C42F020028C
:10553800226484F83C30012000E0002070BD012086
:10554800FCE770B504460D46164623685B6913F000
:10555800040F21D12046FFF791FEF8B9B5F1FF3FBE
:10556800F3D0FEF7CFFF801BA84201D8002DECD165
:1055780023685B6913F0040FE7D10023236320221B
:1055880084F83D2084F83E30226C42F020022264E8
:1055980084F83C30012000E0002070BD0120FCE7C9
:1055A800002800F0CC8070B5044690F83D30002B00
:1055B80077D0242384F83D302268136823F0010350
:1055C80013602268136843F4004313602268136869
:1055D80023F400431360FFF7B3FA62685A4B9A4208
:1055E80064D85A4B98428CBF00230123002B40F00B
:1055F800A8805749A1FB00318B0C25686A6822F006
:105608003F0242EA91426A6021680A6A22F03F0238
:1056180066684D4DAE424FD8013313430B62216883
:10562800CA6922F44F4222F0FF026668464B9E4246
:105638004CD8431E7600B3FBF6F3013340F6FC70FA
:10564800034278D0C3F30B031343CB6121680B6883
:1056580023F0C003E269206A024313430B60216808
:105668008B6823F4034323F0FF032269E0680243B5
:1056780013438B602168CB6823F0FF036269A0693C
:1056880002431343CB602268136843F0010313609D
:1056980000202064202384F83D30206384F83E00F5
:1056A80070BD80F83C30FCF7EDFC82E7294B98424E
:1056B8008CBF0023012399E74FF4967505FB03F38C
:1056C800254DA5FB03539B090133A6E7A368BBB986
:1056D800451E06EB460CB5FBFCF50135C5F30B057D
:1056E800B5FA85F56D0945BBC3B9013806EB460324
:1056F800B0FBF3F30133C3F30B0343F40043A3E715
:10570800451E06EB860C0CEB8C0CB5FBFCF5013545
:10571800C5F30B05B5FA85F56D09E4E7013806EB25
:10572800860303EB8303B0FBF3F30133C3F30B03EB
:1057380043F4404388E7042386E7012384E70120F4
:1057480070470120ACE700BFA08601007F841E00DF
:1057580083DE1B43FF083D00D34D62102DE9F04363
:1057680085B004460F46914698460C9EFEF7CAFE41
:10577800054694F83D00C0B2202804D002273846D8
:1057880005B0BDE8F0830095192301224F49204652
:10579800FFF78DFD002840F0928094F83C30012BF3
:1057A80000F08F80012384F83C3023681A6812F0D7
:1057B800010F03D11A6842F001021A6022681368C7
:1057C80023F400631360212384F83D30102384F808
:1057D8003E3000232364C4F82490A4F82A80638D03
:1057E80023853B4BE3622B46324639462046FFF77A
:1057F8001FFE0746002866D10023039323685A69D1
:1058080003929B690393039B11E0236C042B01D043
:105818000127B4E72268136843F400731360F7E7BD
:105828002A4631462046FFF78CFE00282ED1238DCC
:10583800002B36D02A4631462046FFF753FE002873
:10584800E3D1626A236812781A61606A431C636252
:10585800618D89B2013989B26185238D013B9BB283
:1058680023852268516911F0040FD9D0002BD7D0B5
:1058780043781361636A01336362638D9BB2013BB2
:105888009BB26385238D013B2385C9E7236C042BD9
:1058980001D0012773E72268136843F4007313608B
:1058A800F7E72268136843F400731360202384F831
:1058B8003D30002384F83E3084F83C305FE702270F
:1058C8005DE702275BE7012759E700BF02001000E8
:1058D8000000FFFF2DE9F04385B004468846914655
:1058E8001D46FEF70FFE94F83D30DBB2202B03D0A7
:1058F800022005B0BDE8F083064600901923012276
:1059080057492046FFF7D3FC002840F0A08094F8C0
:105918003C30012B00F09D80012384F83C30236843
:105928001A6812F0010F03D11A6842F001021A60D6
:105938002268136823F400631360242384F83D303D
:1059480000272764474BE36240E023681B6813F491
:10595800807F02D04FF4007323640320C9E7A0239B
:1059680084F83D3022685369C3F340035269C2F397
:10597800802294F83DC05FFA8CFCBCF1A00F09D0DE
:1059880043B93AB9FEF7BEFD801BA842E7D8002DFF
:10599800E8D1E4E7202384F83D3023685A6912F0FF
:1059A800020F31D11A6842F400721A6023686FF44A
:1059B80080625A6100961923012229492046FFF77F
:1059C80076FC002849D101374F4538D22268136840
:1059D80043F48073136000962B4600224FF00111A8
:1059E8002046FFF764FC0028AFD1236808F0FE02C8
:1059F8001A61FEF787FD064622685369C3F3400320
:105A08005269C2F38022B4E71A6842F400721A603D
:105A18000023039323685A6903929B690393039BAA
:105A28000096192301220E492046FFF740FC90B941
:105A3800202384F83D30002384F83C3059E72023A4
:105A480084F83D30002384F83C30012051E70220DF
:105A58004FE702204DE701204BE7012049E700BF4F
:105A6800020010000000FFFF10B4026894691FFADA
:105A780084FCD369916988B2844505D0D06980B225
:105A880040EA014010BC704798B240EA0440F9E788
:105A98000368186A5B6A9BB243EA004070470023B8
:105AA80002E001330A38C0B20928FAD81B01DBB278
:105AB80018437047030903EB830300F00F0000EB62
:105AC8004300C0B27047000010F0030F14D10D4B13
