:020000040800F2
:1000000000C000207537000845110008471100089E
:10001000491100084B1100084D11000800000000B4
:100020000000000000000000000000004F11000868
:10003000511100080000000053110008551100087C
:10004000BD370008BD370008BD370008BD370008C0
:10005000BD370008BD370008BD370008BD370008B0
:10006000BD370008BD370008BD370008BD370008A0
:10007000BD370008BD370008BD370008BD37000890
:10008000BD370008BD370008BD370008BD37000880
:10009000BD370008BD370008BD370008BD37000870
:1000A000BD370008BD370008BD370008BD37000860
:1000B000BD3700085D110008BD370008BD370008D6
:1000C000BD370008BD370008BD370008BD37000840
:1000D000BD3700086D110008BD370008BD370008A6
:1000E000BD370008BD370008BD370008BD37000820
:1000F000BD370008BD370008BD370008BD37000810
:10010000BD370008BD370008BD370008BD370008FF
:10011000BD370008BD370008BD370008BD370008EF
:10012000BD370008BD370008BD370008BD370008DF
:1001300000000000000000000000000000000000BF
:1001400000000000000000000000000000000000AF
:10015000000000000000000000000000000000009F
:10016000000000000000000000000000000000008F
:10017000000000000000000000000000000000007F
:10018000000000000000000000000000000000006F
:10019000000000000000000000000000000000005F
:1001A000000000000000000000000000000000004F
:1001B000000000000000000000000000000000003F
:1001C000000000000000000000000000000000002F
:1001D000000000000000000000000000000000001F
:0401E0005FF8E0F1F3
:1001E40010B5054C237833B9044B13B10448AFF36D
:1001F40000800123237010BD1000002000000000C7
:100204007C38000808B5034B1BB103490348AFF31E
:10021400008008BD00000000140000207C380008A5
:10022400034613F8012B002AFBD1181A0138704732
:1002340010B50446074B984203D0074B9C4203D0A9
:1002440010BD00F091FCF8E7044800F0A1FB00F0B9
:10025400ADFBF5E71C040020AC0400209438000832
:1002640008B50A4B984203D0094B984207D008BD01
:10027400084B01221A60084B00221A60F4E7074871
:1002840000F086FB00F0C4FCF1E700BF8C03002003
:10029400D4030020000000202C000020A038000817
:1002A40072B6FEE700B597B0282200210CA803F02F
:1002B400B7FA00230793089309930A930B930193C6
:1002C4000293039304930593069309230C934FF429
:1002D40080330D93012210921292022213921493EE
:1002E4004FF4E01315930CA801F03EF9E0B90F2385
:1002F400079302210891002309934FF480620A9224
:100304000B9307A801F062FB80B9032301934FF418
:10031400007302934FF40043039301A801F032FCED
:1003240030B917B05DF804FBFFF7BAFFFFF7B8FF69
:10033400FFF7B6FF08B501F0C9F8FFF7B3FF00F007
:1003440031F800F0B7F800F027FA00F0E1F800F017
:10035400CBFC00F0CBFD00F05BF900F03FFA00F0BD
:100364005DFA00F0A9FD00F0DBFD00F0F3FD00F004
:10037400F3FC00F029FD00F09BF9074800F008FBAE
:1003840000F07EFB00F05AFB00F084FC01220349DC
:10039400034803F0D8F9FEE7B03800083000002025
:1003A4001C0400202DE9F04389B000240494059432
:1003B400069407943A4B9A6942F010029A619A693A
:1003C40002F010020092009A9A6942F020029A61A7
:1003D4009A6902F020020192019A9A6942F0040299
:1003E4009A619A6902F004020292029A9A6942F0AE
:1003F40008029A619B6903F008030393039BDFF8E7
:10040400A48022464FF44671404601F0E1FD264D9A
:1004140001221021284601F0DBFDDFF890902246EE
:1004240041F20201484601F0D3FD22464FF418413F
:10043400284601F0CDFD012604961D4B0593069434
:1004440004A9404601F0A4FC4FF4467304930596B6
:1004540006940227079704A9404601F099FC49F63F
:100464001003049305960694079704A9284601F0FF
:100474008FFC41F20203049305960694079704A99E
:10048400484601F085FC4FF4807304930594069468
:1004940004A9284601F07CFC09B0BDE8F08300BF44
:1004A400001002400010014000080140000C01400F
:1004B4000000311000B585B000230193029303932B
:1004C4001148124A026083600122027303754FF4DB
:1004D4006021C1614360026100F03EFF68B90B23F3
:1004E4000193012302930323039301A9064800F017
:1004F40065FE28B905B05DF804FBFFF7D1FEEEE711
:10050400FFF7CEFEF6E700BF3400002000240140D0
:1005140000B585B000230193029303931148124A56
:10052400026083600122027303754FF46021C1618C
:100534004360026100F010FF70B90C2301930123A2
:100544000293042303930DEB0301064800F036FEE7
:1005540028B905B05DF804FBFFF7A2FEEDE7FFF74D
:100564009FFEF6E7640000200028014000B589B032
:10057400002304930593069307930368204A934248
:1005840005D0204A93421ED009B05DF804FB1E4BEF
:100594009A6942F400729A619A6902F400720092B4
:1005A400009A9A6942F010029A619B6903F0100361
:1005B4000193019B022304930323059304A9134885
:1005C40001F0E6FBE0E7104B9A6942F480629A611D
:1005D4009A6902F480620292029A9A6942F01002C5
:1005E4009A619B6903F010030393039B0423049310
:1005F4000323059304A9054801F0CAFBC4E700BF1F
:100604000024014000280140001002400010014075
:1006140008B50B480B4B03600B4B4360002383600E
:10062400C3604FF48042026143618361C36103622A
:1006340001F020FE00B908BDFFF732FEFBE700BF62
:100644009400002000540040A086010010B586B03C
:10065400002302930393049305930268114B9A4277
:1006640001D006B010BD104CA36943F00803A36188
:10067400A36903F008030093009BC0230293122391
:1006840003930323059302A9084801F081FBE3695E
:1006940043F40013E361E36903F400130193019B42
:1006A400DFE700BF0054004000100240000C01408E
:1006B40000B585B00023ADF80C308DF80E300293F0
:1006C400009301932248234B03604FF0FF334360B0
:1006D4004FF48073836002F0D3F968BB10238DF864
:1006E4000C3000238DF80D308DF80E30012203A953
:1006F400174801F0F1FF10BB01228DF808208DF896
:1007040009208DF80A2023238DF80B3002A9104804
:1007140002F0CAF8B0B900238DF800308DF801302A
:100724008DF80230019301226946094802F026F946
:1007340058B905B05DF804FBFFF7B2FDCEE7FFF74B
:10074400AFFDD9E7FFF7ACFDE5E7FFF7A9FDF0E75B
:10075400E80000200028004002680C4B9A4200D0B8
:10076400704700B583B001F07FFD094BDA6942F0B0
:100774000062DA61DB6903F000630193019B054BBE
:100784000122C3F83C2403B05DF804FB00280040B8
:10079400001002400000424208B50E480E4B0360B0
:1007A4004FF48273436000238360C3600361436139
:1007B4004FF4007282610822C26103624362836261
:1007C4000A23C36202F0B4F900B908BDFFF768FD5B
:1007D400FBE700BFFC0000200030014008B50D48D5
:1007E4000D4B03604FF48273436000238360C36046
:1007F400036143614FF400728261C3610362436227
:1008040083620A23C36202F093F900B908BDFFF7BB
:1008140047FDFBE7540100200038004008B50D48AF
:100824000D4B03604FF48273436000238360C36005
:10083400036143614FF400728261C36103624362E6
:1008440083620A23C36202F073F900B908BDFFF79B
:1008540027FDFBE7AC010020003C004010B58AB046
:10086400002306930793089309930368424A93422B
:1008740007D0424A93422CD0414A934253D00AB003
:1008840010BD404B9A6942F480529A619A6902F40D
:1008940080520092009A9A6942F004029A619B691C
:1008A40003F004030193019BA023069302230793FF
:1008B40003230993344C06A9204601F069FA402326
:1008C400069300230793089306A9204601F060FAD3
:1008D400D5E72C4BDA6942F48042DA61DA6902F432
:1008E40080420292029A9A6942F008029A619B69D4
:1008F40003F008030393039B4FF42043069302235E
:10090400079303230993214C06A9204601F040FADA
:100914004FF48043069300230793089306A92046C7
:1009240001F036FAABE7174BDA6942F40042DA61B8
:10093400DA6902F400420492049A9A6942F00802C5
:100944009A619B6903F008030593059B282306938A
:1009540002230793032309930C4C06A9204601F0B4
:1009640017FA1023069300230793089306A9204639
:1009740001F00EFA83E700BF003001400038004068
:10098400003C00400010024000080140000C0140FF
:1009940010B50446FFF744FC4FF47A7382B2214643
:1009A400014802F087FC10BDF404002008B51E4B7A
:1009B4001B78242B0BD00A2B1BD01C4A1278012A3B
:1009C40025D0012218491A4802F0BDFE08BD174A75
:1009D4001278002AEFD117490A68501C086016499A
:1009E4008B540122114B1A700F49114802F0ABFECF
:1009F400ECE70E4A1278012ADFD10E490A68501C2E
:100A040008600D498B54094B02221A70DEE709492C
:100A14000A68501C086008498B54012202490448A2
:100A240002F091FED2E700BF08020020700200200D
:100A3400AC040020040200200C02002010B50E4C6F
:100A440000224FF40041204601F0C2FA0A2000F0CF
:100A540061FD01224FF40041204601F0B9FA322031
:100A640000F058FD00224FF40041204601F0B0FA96
:100A74000248FFF78DFF10BD00080140C038000890
:100A840010B5134C01224FF48051204601F0A0FA16
:100A9400322000F03FFD00224FF48051204601F047
:100AA40097FA322000F036FD01224FF4805120469F
:100AB40001F08EFA322000F02DFD00224FF4805117
:100AC400204601F085FA0348FFF762FF10BD00BF1E
:100AD40000080140CC38000870B504460D461D4E90
:100AE40001221D49304602F02EFE2046FFF798FBF6
:100AF400642382B22146304602F0DCFB2046FFF735
:100B040047FF164B1B78002BFBD02946144802F0F4
:100B14009CFE90B1124C2046FFF73AFF2046FFF7A7
:100B24007FFB02460021204602F07AFE00230D4A94
:100B340013700A4A1370012070BD094C2046FFF758
:100B44006FFB02460021204602F06AFE0020054B9E
:100B54001870F1E71C040020D90200207102002063
:100B6400E0020020D802002010B5214B1B680022AF
:100B74005A62204A1368591C11601F481F4A127890
:100B8400C2541F4902F061FE18B11A4B1B68022BB4
:100B940021D01B49184802F058FEB0B1164C20462B
:100BA400FFF73EFB02462146164802F02BFE204684
:100BB400FFF736FB02460021204602F031FE0D4BC2
:100BC40000221A60104B01221A7001220B490F48AF
:100BD40002F0B9FD10BD084C2046FFF721FB024688
:100BE4000021204602F01CFE024B00221A60D0E7CE
:100BF400D4030020DC02002074020020D90200206B
:100C0400F4380008E0020020710200201C040020D7
:100C140038B5164C204602F013F8236800225A62B5
:100C2400134D1449284602F010FE04463E2128467E
:100C340002F0FEFD002808BF002C03D10E4B012258
:100C44001A7038BD2846FFF7EBFA024629460B48CE
:100C540002F0D8FD2846FFF7E3FA024600212846B1
:100C640002F0DEFD064B00221A60E7E7D403002001
:100C740074020020F4380008D8020020E0020020AA
:100C8400DC02002008B50248FFF782FE72B6FEE7D8
:100C9400DC38000808B50F490F48FFF71DFF01288D
:100CA40012D1C82000F036FC0A490C48FFF714FFA3
:100CB40001280BD1C82000F02DFC09490948FFF791
:100CC4000BFF012804D108BDFFF7DCFFFFF7DAFFB3
:100CD400FFF7D8FFE8380008F0380008F8380008B3
:100CE400003900080439000800B587B000230293D6
:100CF400039304930593009301931548154A0260E6
:100D04004722426083604FF6FF72C2600361436111
:100D1400836102F0BBF890B94FF48053029302A9A7
:100D24000B4802F0EBF868B900230093019369467D
:100D3400074802F063F940B907B05DF804FBFFF718
:100D4400AFFAE9E7FFF7ACFAEEE7FFF7A9FAF3E742
:100D540044030020002C014000B587B00023029317
:100D64000393049305930093019316484FF0804234
:100D7400026041F61F42426083604EF66022C26008
:100D84000361836102F082F890B94FF480530293B7
:100D940002A90C4802F0B2F868B900230093019349
:100DA4006946084802F02AF940B907B05DF804FB27
:100DB400FFF776FAE9E7FFF773FAEEE7FFF770FA61
:100DC400F3E700BF8C03002000B587B00023029333
:100DD400039304930593009301931548154A026005
:100DE40041F61F424260836042F20F72C2600361A7
:100DF400836102F04BF890B94FF48053029302A937
:100E04000B4802F07BF868B900230093019369460C
:100E1400074802F0F3F840B907B05DF804FBFFF7A8
:100E24003FFAE9E7FFF73CFAEEE7FFF739FAF3E7B1
:100E3400D40300200004004000B585B003681B4AB9
:100E4400934208D0B3F1804F10D0194A934219D07D
:100E540005B05DF804FB174B9A6942F400629A618D
:100E64009B6903F400630193019BF1E703F50433E9
:100E7400DA6942F00102DA61DB6903F001030293EB
:100E8400029BE5E70B4BDA6942F00202DA61DB69A7
:100E940003F002030393039B002211461D2001F07B
:100EA40089F91D2001F0BEF9D2E700BF002C0140F2
:100EB400000400400010024008B50A480A4B0360D1
:100EC4004FF41653436000238360C36003610C2214
:100ED40042618361C36102F0BDF900B908BDFFF747
:100EE400DFF9FBE7AC040020004C004008B50A48D9
:100EF4000A4B03604FF4E133436000238360C36013
:100F040003610C2242618361C36102F0A3F900B959
:100F140008BDFFF7C5F9FBE7F404002000500040CA
:100F240008B50A480A4B03604FF4E13343600023D9
:100F34008360C36003610C2242618361C36102F078
:100F440089F900B908BDFFF7ABF9FBE71C040020E1
:100F54000038014008B50A480A4B03604FF41653A1
:100F6400436000238360C36003610C224261836198
:100F7400C36102F06FF900B908BDFFF791F9FBE70F
:100F8400640400200044004030B58FB000230A936D
:100F94000B930C930D930368614A93420BD0614AFF
:100FA400934232D0604A934260D0604A934200F048
:100FB4008F800FB030BD5E4BDA6942F40022DA61F3
:100FC400DA6902F400220192019A9A6942F010024D
:100FD4009A619B6903F010030293029B4FF48063B0
:100FE4000A9302230B9303230D93524C0AA9204620
:100FF40000F0CEFE4FF400630A9300230B930C938E
:101004000AA9204600F0C4FED3E7494BDA6942F44A
:101014008012DA61DA6902F480120392039A9A69FF
:1010240042F010029A619A6902F010020492049A42
:101034009A6942F020029A619B6903F020030593A8
:10104400059B4FF480530A9302230B9303230D93C0
:101054000AA9384800F09CFE04230A9300230B934A
:101064000C930AA9344800F093FEA2E7304B9A6926
:1010740042F480429A619A6902F480420692069A86
:101084009A6942F004029A619B6903F0040307938E
:10109400079B4FF400730A9302230B9303230D93CE
:1010A400264D0AA9284600F073FE4FF480630A9384
:1010B40000240B940C940AA9284600F069FE2246E9
:1010C4002146252001F076F8252001F0ABF870E7E1
:1010D400174BDA6942F40032DA61DA6902F4003259
:1010E4000892089A9A6942F004029A619B6903F093
:1010F40004030993099B04230A9302230B930323F8
:101104000D930E4C0AA9204600F042FE08230A93D0
:1011140000230B930C930AA9204600F039FE48E7FC
:10112400004C0040005000400038014000440040A2
:10113400001002400010014000140140000801406A
:10114400FEE7FEE7FEE7FEE7FEE7704770477047FD
:1011540008B500F0CDF908BD08B5024801F08DFDD1
:1011640008BD00BFD403002008B5024802F08CF982
:1011740008BD00BF1C04002082B00E4B9A6942F0E7
:1011840001029A619A6902F001020092009ADA69F6
:1011940042F08052DA61DB6903F080530193019BD2
:1011A400054A536823F0E06343F00073536002B0D0
:1011B400704700BF001002400000014030B482B00C
:1011C4000022019290F82420012A00F09180034625
:1011D400012280F824204A68062A2DD80468606B0E
:1011E40002EB8202053A4FF01F0C0CFA02FC20EAD3
:1011F4000C000D6805FA02F2024362630A68092AC8
:101204003AD91C68E06802EB42021E3A4FF0070C20
:101214000CFA02FC20EA0C008D6805FA02F2024383
:10122400E2600A68103A012A36D90020002283F8C5
:10123400242002B030BC70470C2A0ED80568286BF5
:1012440002EB8202233A1F24944020EA04000C6833
:1012540004FA02F202432A63D0E70568E86A02EB63
:101264008202413A1F24944020EA04000C6804FAE4
:1012740002F20243EA62C1E71C68206902EB4202FF
:101284004FF0070C0CFA02FC20EA0C008D6805FAFA
:1012940002F202432261C4E71A681648824205D06A
:1012A4009A6A42F020029A620120BFE7906810F423
:1012B400000F1BD1906840F4000090600A68102A67
:1012C40001D00020B2E70C4A12680C49A1FB0212BB
:1012D400920C02EB82025200019202E0019A013A5E
:1012E4000192019A002AF9D100209FE700209DE78E
:1012F40002209EE7002401400C00002083DE1B43F3
:1013040038B503689A6812F0010F01D1002038BD86
:1013140004469A6822F001029A6000F0F5F8054646
:1013240023689B6813F0010F13D000F0EDF8431B02
:10133400022BF5D923689B6813F0010FF0D0A36A40
:1013440043F01003A362E36A43F00103E362012064
:10135400DDE70020DBE70000002800F0888070B59E
:101364000446836A002B52D02046FFF7C9FFA36AC4
:1013740013F0100375D1002873D1A26A22F48852A5
:1013840022F0020242F00202A2626268266839492F
:101394008E4242D0E1690A43217B42EA4102A568B8
:1013A400B5F5807F02D0012D3ED01D4694F814C0BF
:1013B400BCF1010F3BD0716821F46941294371608C
:1013C4002568AE682C4931401143A960A168B1F584
:1013D400807F01D0012902D12369013B1B052568C7
:1013E400E96A21F470010B43EB6223689968234B8B
:1013F4000B409A422CD0A36A23F0120343F010034B
:10140400A362E36A43F00103E36201202EE0C362B6
:1014140080F82430FFF7AAF8A6E7E169B1F5402F78
:10142400B9D14FF40021B6E74FF48075BEE731B966
:10143400A169013945EA413141F40065BBE7A16A7C
:1014440041F02001A162E16A41F00101E162B2E7E9
:101454000023E362A36A23F0030343F00103A362BE
:1014640004E0A36A43F01003A362012070BD0120CD
:10147400704700BF003C0140FDF7E1FFFE0E1FFF77
:1014840010B504460E4B18784FF47A73B3FBF0F39F
:101494000C4A1068B0FBF3F000F0D2FE68B90F2CD0
:1014A40001D901200AE0002221464FF0FF3000F06C
:1014B40081FE054B1C60002000E0012010BD00BF30
:1014C400040000200C0000200800002008B5074A92
:1014D400136843F010031360032000F059FE0F203B
:1014E400FFF7CEFFFFF748FE002008BD00200240B2
:1014F400034A1168034B1B780B441360704700BF09
:101504003C05002004000020014B1868704700BF10
:101514003C05002038B50446FFF7F6FF0546B4F154
:10152400FF3F02D0044B1B781C44FFF7EDFF401B28
:10153400A042FAD338BD00BF0400002082B0084B9B
:101544001B68084AA2FB03235B0A00FB03F3019315
:1015540000BF019B5A1E0192002BF9D102B07047C3
:101564000C000020D34D6210002800F0F18170B50A
:1015740082B00446036813F0010F2CD0994B5B68CA
:1015840003F00C03042B1DD0964B5B6803F00C0393
:10159400082B12D06368B3F5803F41D0002B55D19E
:1015A40003F1804303F504331A6822F480321A608D
:1015B4001A6822F480221A6037E08A4B5B6813F4BD
:1015C400803FE7D0874B1B6813F4003F03D0636868
:1015D400002B00F0BF81236813F0020F75D0814BFC
:1015E4005B6813F00C0F5FD07E4B5B6803F00C0359
:1015F400082B54D02369002B00F08A807A4B0122F7
:101604001A60FFF781FF0546764B1B6813F0020F43
:1016140075D1FFF779FF401B0228F5D903209EE11D
:10162400704A136843F480331360636843B3FFF76D
:101634006BFF05466B4B1B6813F4003FCBD1FFF7E0
:1016440063FF401B6428F5D9032088E1B3F5A02F7C
:1016540009D0644B1A6822F480321A601A6822F4A2
:1016640080221A60E1E703F18043A3F53C331A6852
:1016740042F480221A601A6842F480321A60D4E775
:10168400FFF742FF0546574B1B6813F4003FA2D0F7
:10169400FFF73AFF401B6428F5D903205FE1514B63
:1016A4005B6813F4803FA5D14E4B1B6813F0020F07
:1016B40003D02369012B40F04F814A4A136823F079
:1016C400F803616943EAC1031360236813F0080F48
:1016D40033D0A369002B5CD0434B0122C3F8802490
:1016E400FFF712FF05463F4B5B6A13F0020F21D14F
:1016F400FFF70AFF401B0228F5D903202FE1394ADE
:10170400136823F0F803616943EAC1031360DCE75B
:10171400354B00221A60FFF7F7FE0546314B1B6874
:1017240013F0020FD1D0FFF7EFFE401B0228F5D9CA
:10173400032014E10120FFF701FF236813F0040FD5
:1017440000F09680274BDB6913F0805F34D1254B82
:10175400DA6942F08052DA61DB6903F08053019365
:10176400019B0125214B1B6813F4807F26D0E3687D
:10177400012B3DD0002B53D103F1804303F50433F7
:101784001A6A22F001021A621A6A22F004021A6228
:1017940033E0154B0022C3F88024FFF7B5FE05465D
:1017A400104B5B6A13F0020FC7D0FFF7ADFE401B6E
:1017B4000228F5D90320D2E00025D3E70B4A1368A9
:1017C40043F480731360FFF79FFE0646074B1B68C4
:1017D40013F4807FCBD1FFF797FE801B6428F5D9E3
:1017E4000320BCE0001002400000424200700040B0
:1017F4005F4A136A43F001031362E36833B3FFF7EC
:1018040083FE06465A4B1B6A13F0020F2FD1FFF7D3
:101814007BFE801B41F288339842F3D903209EE07B
:10182400052B09D0524B1A6A22F001021A621A6A75
:1018340022F004021A62E0E74D4B1A6A42F00402F5
:101844001A621A6A42F001021A62D6E7FFF75CFED6
:101854000646474B1B6A13F0020F08D0FFF754FEED
:10186400801B41F288339842F3D9032077E0E5B92D
:10187400E369002B72D03E4A526802F00C02082A37
:1018840056D0022B17D03B4B00221A66FFF73CFEC2
:101894000446374B1B6813F0007F47D0FFF734FE34
:1018A400001B0228F5D9032059E0314AD36923F0FB
:1018B4008053D361DCE72F4B00221A66FFF724FE26
:1018C40005462B4B1B6813F0007F06D0FFF71CFE68
:1018D400401B0228F5D9032041E0236AB3F5803F79
:1018E4001AD023494B6823F47413226A606A0243B2
:1018F40013434B601F4B01221A66FFF705FE044693
:101904001B4B1B6813F0007F0ED1FFF7FDFD001B7E
:101914000228F5D9032022E0154A536823F4003342
:10192400A1680B435360DCE7002018E0002016E0B8
:10193400012B16D00E4B5B6803F48031226A91426E
:1019440011D103F47013626A93420ED1002006E0B1
:1019540001207047012002E0012000E0002002B0D5
:1019640070BD0120FBE70120F9E70120F7E700BF84
:1019740000100240000042420F4B5B6803F00C026F
:10198400082A01D00D487047C3F383420C49885C90
:1019940013F4803F0BD0084B5B68C3F34043094A00
:1019A400D35C064A02FB00F0B0FBF3F07047064B31
:1019B40003FB00F0704700BF0010024000127A00E1
:1019C400103900082039000800093D00002800F003
:1019D400A08070B50D460446524B1B6803F0070304
:1019E4008B420BD24F4A136823F007030B43136057
:1019F400136803F007038B4240F08D80236813F0D3
:101A0400020F17D013F0040F04D0474A536843F46D
:101A1400E0635360236813F0080F04D0424A53680C
:101A240043F460535360404A536823F0F003A168C1
:101A34000B435360236813F0010F31D06368012B0B
:101A440020D0022B25D0384A126812F0020F64D03D
:101A540035494A6822F0030213434B60FFF754FDF3
:101A64000646314B5B6803F00C036268B3EB820FEC
:101A740016D0FFF749FD801B41F288339842F0D914
:101A8400032045E0284A126812F4003FE0D1012007
:101A94003EE0254A126812F0007FD9D1012037E0D8
:101AA400204B1B6803F00703AB420AD91D4A136895
:101AB40023F007032B431360136803F00703AB42BF
:101AC4002DD1236813F0040F06D0174A536823F46A
:101AD400E063E1680B435360236813F0080F07D0F9
:101AE400114A536823F46053216943EAC1035360E4
:101AF400FFF742FF0C4B5B68C3F303130B4AD35C41
:101B0400D8400B4B18600B4B1868FFF7B9FC00204A
:101B140070BD012070470120FAE70120F8E7012099
:101B2400F6E700BF002002400010024038390008E8
:101B34000C00002008000020014B1868704700BF0B
:101B44000C00002008B5FFF7F7FF044B5B68C3F3F4
:101B54000223034AD35CD84008BD00BF00100240F2
:101B64004839000808B5FFF7E7FF044B5B68C3F387
:101B7400C223034AD35CD84008BD00BF0010024012
:101B84004839000870B582B00446036813F0010FA9
:101B940036D03F4BDB6913F0805F49D13C4BDA69A7
:101BA40042F08052DA61DB6903F080530193019BB8
:101BB4000125384B1B6813F4807F3BD0344B1B6AE0
:101BC40013F4407313D0626802F440729A420ED048
:101BD4002F4A136A23F440702F490126C1F8406448
:101BE4000026C1F84064106213F0010F36D1284A70
:101BF400136A23F4407361680B431362002D3ED1D2
:101C0400236813F0020F06D0214A536823F440439B
:101C1400A1680B435360236813F0100F34D01C4A9F
:101C2400536823F4800361690B43536000202CE064
:101C34000025BEE7174A136843F480731360FFF767
:101C440063FC0646134B1B6813F4807FB6D1FFF781
:101C54005BFC801B6428F5D9032016E0FFF754FCD5
:101C640006460B4B1B6A13F0020FC0D1FFF74CFC66
:101C7400801B41F288339842F3D9032005E0D369ED
:101C840023F08053D361BBE7002002B070BD00BFD6
:101C940000100240007000400000424208B50138C4
:101CA4000F2863D8DFE800F03557622F6262623292
:101CB40062626262626262082F4B5A68186810F0AE
:101CC400807054D0C2F383432C49C85C12F4803F23
:101CD40015D0294B5B68C3F34043294AD25C294B96
:101CE400B3FBF2F303FB00F0234B5B6813F4800FA8
:101CF4003DD14000244BA3FB0030400837E0234B88
:101D040003FB00F0F0E7FFF737FE30E0FFF734FEA7
:101D14002DE0194B1B6A40F202321A40B2F5817F62
:101D240026D003F44073B3F5007F04D0B3F5407FAD
:101D340009D000201BE0104A526A12F0020FF5D0BD
:101D440049F6404013E00C4B186810F400300ED0F4
:101D54004FF224400BE0FFF705FF074B5B68C3F32A
:101D6400813301335B00B0FBF3F000E0002008BDD9
:101D74004FF40040FBE700BF001002402439000884
:101D84003439000800127A00ABAAAAAA00093D005F
:101D940070B582B00024A446B0E0874DAA4210D0AA
:101DA40007D9864DAA420CD005F58035AA4208D041
:101DB40013E0A5F58015AA4203D005F57025AA42C3
:101DC40007D18A68002A62D0012A5BD043610824C3
:101DD40003E0A5F58015AA42F3D0BEF1FF0F58D851
:101DE4000646BEF1FF0F56D84FEA8C0233680F2522
:101DF400954023EA050304FA02F2134333604B6867
:101E040013F0805F78D06E4B9A6942F001029A61B8
:101E14009B6903F001030193019B4FEA9C02951C0B
:101E2400684B53F825600CF003039D000F23AB406F
:101E340026EA0306644B984233D003F58063984244
:101E440000F0988003F58063984200F0958003F5D4
:101E54008063984200F0928003F58063984200F01A
:101E64008F8003F58063984219D006231AE0CC686A
:101E7400B3E7CC680434B0E7CC680834ADE7CC6889
:101E84000C34AAE703610824A7E70024A5E7042487
:101E9400A3E7061DA5E7ACF108029200A6E7052317
:101EA40000E00023AB4033430232464D45F8223074
:101EB4004B6813F4801F65D0444A936843EA0E03C9
:101EC40093604B6813F4001F62D0404AD36843EA1E
:101ED4000E03D3604B6813F4003F5FD03B4A536852
:101EE40043EA0E0353604B6813F4803F5CD0374AD7
:101EF400136843EA0E0313600CF1010C0A6832FA0A
:101F04000CF357D0012303FA0CF302EA030E33EA6D
:101F14000202F1D14A68122A3FF63FAF122A3FF675
:101F24005CAF01A555F822F0C71D0008731E000818
:101F34007D1E00088F1E0008DF1D0008DF1D00083D
:101F4400DF1D0008DF1D0008DF1D0008DF1D00087D
:101F5400DF1D0008DF1D0008DF1D0008DF1D00086D
:101F6400DF1D0008DF1D0008DF1D0008771E0008C4
:101F7400831E0008012395E7022393E7032391E7D7
:101F840004238FE7114A936823EA0E03936098E7CA
:101F94000E4AD36823EA0E03D3609BE70B4A5368C7
:101FA40023EA0E0353609EE7084A136823EA0E03EC
:101FB4001360A1E702B070BD0000221000003110D0
:101FC40000100240000001400008014000040140EC
:101FD4000AB10161704709040161704790F821302A
:101FE400DBB2022B06D004238363002380F8203065
:101FF400012070470268136823F00E03136002681F
:10200400136823F001031360036CC16B012202FA0D
:1020140003F34B6080F82120002380F82030184619
:102024007047000008B590F82130DBB2022B03D0D2
:1020340004238363012008BD0268136823F00E03A0
:1020440013600268136823F00103136003684C4AA9
:1020540093424ED9783A934224D01432934230D0EA
:10206400143293422FD0143293422FD0143293421D
:102074002FD0143293422FD0143293422FD002F532
:10208400627293422ED0143293422DD01432934272
:102094002CD01432934202D04FF4803203E04FF438
:1020A400805200E00122374B5A60012380F821302E
:1020B400002380F82030436B002B5ED0984700202B
:1020C400B9E71022EFE74FF48072ECE74FF4805247
:1020D400E9E74FF48032E6E74FF48012E3E74FF08C
:1020E4008072E0E70122DEE71022DCE74FF4807221
:1020F400D9E7254A934224D01432934225D014328E
:10210400934224D01432934224D01432934224D0E4
:102114001432934224D01432934224D002F56272D2
:10212400934223D01432934222D01432934221D0CA
:102134001432934202D04FF4803203E04FF48052C1
:1021440000E00122114B5A60AFE71022FAE74FF486
:102154008072F7E74FF48052F4E74FF48032F1E7EE
:102164004FF48012EEE74FF08072EBE70122E9E7CB
:102174001022E7E74FF48072E4E700205BE700BF3A
:1021840080000240000402400800024000000240B7
:10219400074AD36823F4E0631B041B0C000200F419
:1021A400E060034343F0BF6343F40033D3607047FC
:1021B40000ED00E000B5194BDB68C3F30223C3F163
:1021C400070CBCF1040F28BF4FF0040C03F1040EFC
:1021D400BEF1060F18D9033B4FF0FF3E0EFA0CFC7C
:1021E40021EA0C0199400EFA03F322EA030319438E
:1021F40000280BDB0901C9B200F1604000F5614021
:1022040080F800135DF804FB0023E5E700F00F00FD
:102214000901C9B2024B1954F4E700BF00ED00E014
:1022240014ED00E0002807DB00F01F024009012341
:102234009340024A42F82030704700BF00E100E0BA
:102244000138B0F1807F0BD24FF0E0235861054A8A
:10225400F02182F823100020986107221A61704748
:102264000120704700ED00E0014B01221A62704723
:1022740000000E42002800F0CC8070B5044690F8AF
:102284003D30002B77D0242384F83D302268136836
:1022940023F0010313602268136843F400431360BE
:1022A4002268136823F400431360FFF74BFC626851
:1022B4005A4B9A4264D85A4B98428CBF002301234C
:1022C400002B40F0A8805749A1FB00318B0C2568F6
:1022D4006A6822F03F0242EA91426A6021680A6A0F
:1022E40022F03F0266684D4DAE424FD8013313438E
:1022F4000B622168CA6922F44F4222F0FF02666829
:10230400464B9E424CD8431E7600B3FBF6F3013392
:1023140040F6FC70034278D0C3F30B031343CB6144
:1023240021680B6823F0C003E269206A0243134367
:102334000B6021688B6823F4034323F0FF032269B5
:10234400E068024313438B602168CB6823F0FF03EA
:102354006269A06902431343CB602268136843F0A7
:102364000103136000202064202384F83D3020639F
:1023740084F83E0070BD80F83C30FEF767F982E7D0
:10238400294B98428CBF0023012399E74FF496759B
:1023940005FB03F3254DA5FB03539B090133A6E776
:1023A400A368BBB9451E06EB460CB5FBFCF501352D
:1023B400C5F30B05B5FA85F56D0945BBC3B90138FD
:1023C40006EB4603B0FBF3F30133C3F30B0343F40F
:1023D4000043A3E7451E06EB860C0CEB8C0CB5FB07
:1023E400FCF50135C5F30B05B5FA85F56D09E4E790
:1023F400013806EB860303EB8303B0FBF3F30133ED
:10240400C3F30B0343F4404388E7042386E7012323
:1024140084E7012070470120ACE700BFA0860100DB
:102424007F841E0083DE1B43FF083D00D34D6210F2
:1024340010B4026894691FFA84FCD369916988B264
:10244400844505D0D06980B240EA014010BC704791
:1024540098B240EA0440F9E70368186A5B6A9BB2E1
:1024640043EA00407047002302E001330A38C0B257
:102474000928FAD81B01DBB218437047030903EBA0
:10248400830300F00F0000EB4300C0B2704700006C
:1024940010F0030F14D10D4BA3FB00235B0964223E
:1024A40002FB13039BB26BB9084BA3FB0023DB09AC
:1024B4004FF4C87202FB130080B228B901207047A0
:1024C4000020704701207047002070471F85EB51A2
:1024D40000F5FA6C022921D801EB4103C1EBC301D9
:1024E4001E4BA3FB011302EB5303634400F2CF70B2
:1024F40003EB90031A4AA2FB0020A3EB501303EB57
:10250400D01304331748A0FB03201A1A00EB52001F
:102514008008C0EBC000181AC0B2704701EB410339
:10252400C1EBC3010D4BA3FB011302EB5303634443
:1025340003EB9C030A4AA2FB0C2CA3EB5C1303EBF6
:10254400DC1302330748A0FB03201A1A00EB5200E5
:102554008008C0EBC000181ADEE700BF398EE338EC
:102564001F85EB51254992242DE9F84380460F46F7
:1025740090F80F90447B857B002603E01E2D1FD826
:1025840001350136BE423DD2012CF7D0032CF5D0E3
:10259400052CF3D0072CF1D0082CEFD00A2CEDD069
:1025A4000C2CEBD0042C15D0062C13D0092C11D0F4
:1025B4000B2C0FD0022CE4D11B2D12D80135E0E7EF
:1025C4000C2C02D001340125DBE709F101090125B6
:1025D4002C46D6E71D2D01D80135D2E7013401255B
:1025E400CFE71C2D04D01D2DCBD101340125C8E724
:1025F4001FFA89F0FFF74CFF08B10135C1E7013438
:102604000125BEE788F80F90E1B288F80D10EAB210
:1026140088F80E204846FFF75BFF88F80C00BDE8F9
:10262400F88338B50446FEF76FFF054623685A68F9
:1026340012F0200F07D1FEF767FF401BB0F57A7F39
:10264400F4D9032004E05A6842F010025A600020D2
:1026540038BD38B504460268536823F0100353604C
:10266400FEF752FF054623685B6813F0200F07D17D
:10267400FEF74AFF401BB0F57A7FF4D9032000E04F
:10268400002038BD38B505460C46FFF7CAFF08B12F
:10269400012038BD2B68220C9A612B68A4B2DC613E
:1026A4002846FFF7D6FF0028F3D00120F1E738B51C
:1026B40005460C46FFF7B5FF08B1012038BD2B686D
:1026C400220C1A622B68A4B25C622846FFF7C1FF91
:1026D4000028F3D00120F1E770B5002857D00D464B
:1026E4000646002955D0037C012B54D001230374E2
:1026F40002234374BAB908784B78C3EB03139C00E4
:102704004FF4616303FB0044887804442146304657
:10271400FFF7B8FF0546C8B104237374002333746C
:102724000125284670BD0878FFF7A8FE4FF46164C0
:1027340000FB04F46878FFF7A1FEC0EB001004EB83
:102744008004A878FFF79AFE0444DFE732685368F0
:1027540023F0050353603046FFF77EFEB0F1FF3FE0
:1027640001D0844204D80123737400233374D8E75E
:1027740000F5A83101F5C0713046FFF798FF002835
:10278400F1D004237374002333740125C9E70125B0
:10279400C7E70125C5E70225C3E7000000286FD07D
:1027A4002DE9F8430C461546074600296AD003680C
:1027B4005B6813F0040F02D00120BDE8F883FFF733
:1027C40037FE0646334BA3FB0023DB0A4FF461625A
:1027D40002FB13023049A1FB02014809C1F347116E
:1027E4006170C0EB0010A2EB8002A2702B4A9642EB
:1027F40010D82370002D4BD02078FFF734FE2070C2
:102804006078FFF730FE6070A078FFF72CFEA070B0
:102814000020D2E7224AA2FB03284FEA181808EB4B
:102824004802A3EBC20323703846FFF715FE814626
:10283400B0F1FF3F06D0864202D2A0EB060901E0C8
:102844004FF0FF39174800FB186631463846FFF74A
:1028540019FFC8B9B9F1FF3F0AD009EB06013846A0
:10286400FFF725FF90B941463846FFF77DFEC1E7E3
:1028740049463846FFF71BFF0028F4D001209CE7A7
:1028840001207047012098E7012096E7012094E792
:10289400002092E7C5B3A291898888887F510100FE
:1028A400ABAAAAAA8051010000285AD038B50D4617
:1028B4000446002957D0037C012B56D0012303740E
:1028C40002234374BAB9CB78C3734B7843738B78C0
:1028D4008373A27B617BE07BFFF7FAFD2073287092
:1028E4002046FFF7A5FD224B984211D801236374BB
:1028F4000020207438BDC878FFF7C0FDE073687805
:10290400FFF7BCFD6073A878FFF7B8FDA073E0E79C
:10291400184DA5FB00352D0C174B03FB1505294657
:102924002046FFF7AFFE28B1042363740023237409
:102934000120DFE72046FFF78FFDB0F1FF3FD5D040
:102944008542D3D900F5A83101F5C0712046FFF7BF
:10295400AEFE0028CAD0042363740023237401202C
:10296400C8E7012070470120C4E70220C2E700BF86
:102974008F5F010007452EC280510100F0B583B07E
:102984000023ADF804308DF80630002853D00C46EF
:1029940015460646002951D0037C012B50D0012353
:1029A400037402234374002201A9FFF7F7FE0028F1
:1029B40048D19DF804209DF80530C3EB03139F0014
:1029C4004FF4616303FB02779DF806301F44D5B9C9
:1029D40020786378C3EB031399004FF4616303FB1E
:1029E4000011A0780144B94203D201F5A83101F5E0
:1029F400C0713046FFF75BFEC0B10423737400233B
:102A04003374012018E02078FFF738FD4FF4616536
:102A140000FB05F56078FFF731FDC0EB001005EB16
:102A24008005A078FFF72AFD2918DCE701237374D9
:102A34000023337400E0012003B0F0BD0120FBE764
:102A44000220F9E70120F7E7C0B138B5054602686E
:102A5400536823F008035360FEF756FD04462B68C1
:102A64005B6813F0080F07D1FEF74EFD001BB0F5AD
:102A74007A7FF4D9032000E0002038BD012070479C
:102A8400002850D010B50446437C4BB10223637434
:102A94002046FFF7D9FF38B104236374012010BD29
:102AA4000374FDF759FEF1E72046FFF7BAFD28BB92
:102AB4002268536823F007035360A36823B11B4AB9
:102AC400136B23F001031363184AD36A23F460736E
:102AD400A1680B43D3626368B3F1FF3F12D022684D
:102AE400C3F30341916022689BB2D3602046FFF791
:102AF400B0FD88B1042363740120D0E70423637418
:102B04000120CCE70120FFF7C9F808B1431EE6E72E
:102B1400042363740120C2E70023E3730123637376
:102B2400A3736374BBE70120704700BF006C0040CF
:102B3400002856D010B50446436A33B94368B3F548
:102B4400827F05D00023C36102E000230361436157
:102B54000023A36294F85130002B3CD0022384F864
:102B640051302268136823F040031360636803F450
:102B74008273A26802F404421343E26802F400621E
:102B84001343226902F002021343626902F0010254
:102B94001343A26902F400721343E26902F038029B
:102BA4001343226A02F080021343A26A02F4005221
:102BB400216813430B60638B226803F004035360A2
:102BC4002268D36923F40063D36100206065012384
:102BD40084F8513010BD84F850302046FDF73EFE95
:102BE400BCE70120704710B4036A046A24F00104AE
:102BF4000462846924F0F00C4CEA021223F00A0304
:102C04000B438261036210BC704710B4036A046A08
:102C140024F010040462846924F4704C4CEA0232F7
:102C240023F0A00343EA01138261036210BC7047DE
:102C3400836823F070030B4343F0070383607047FA
:102C44000268D36823F00103D3600368196A41F270
:102C54001112114208D1196A40F24442114203D1BF
:102C64001A6822F001021A60012380F83D30002026
:102C74007047704770477047704710B50446036843
:102C84001A6912F0020F11D0DA6812F0020F0DD097
:102C94006FF002021A610123037703689B6913F042
:102CA400030F70D0FFF7E6FF0023237723681A6928
:102CB40012F0040F12D0DA6812F0040F0ED06FF085
:102CC40004021A610223237723689B6913F4407F6B
:102CD4005FD02046FFF7CEFF0023237723681A69CD
:102CE40012F0080F12D0DA6812F0080F0ED06FF04D
:102CF40008021A61042323772368DB6913F0030FA6
:102D04004ED02046FFF7B6FF0023237723681A69C5
:102D140012F0100F12D0DA6812F0100F0ED06FF00C
:102D240010021A61082323772368DB6913F4407FB8
:102D34003DD02046FFF79EFF0023237723681A69BE
:102D440012F0010F03D0DA6812F0010F36D12368B4
:102D54001A6912F0800F03D0DA6812F0800F34D1B0
:102D640023681A6912F0400F03D0DA6812F0400F9A
:102D740032D123681A6912F0200F03D0DA6812F0F6
:102D8400200F30D110BDFFF774FF2046FFF773FF0B
:102D94008AE72046FFF76DFF2046FFF76CFF9BE7AD
:102DA4002046FFF766FF2046FFF765FFACE72046A5
:102DB400FFF75FFF2046FFF75EFFBDE76FF00102FC
:102DC4001A612046FDF74CFAC1E76FF080021A61E0
:102DD400204600F052F9C3E76FF040021A61204622
:102DE400FFF74AFFC5E76FF020021A61204600F0A2
:102DF40043F9C7E70368244A904212D002F50062FF
:102E040090420ED0B0F1804F0BD0A2F59832904290
:102E140007D002F58062904203D002F580629042AE
:102E240003D123F070034A681343174A904212D027
:102E340002F5006290420ED0B0F1804F0BD0A2F5A3
:102E44009832904207D002F58062904203D002F596
:102E54008062904203D123F44073CA68134323F081
:102E640080034A69134303608B68C3620B688362FF
:102E7400054B984203D003F50063984201D10B69D6
:102E84000363012343617047002C014040B310B534
:102E9400044690F83D30F3B1022384F83D302146D6
:102EA40051F8040BFFF7A6FF012384F8463084F899
:102EB4003E3084F83F3084F8403084F8413084F860
:102EC400423084F8433084F8443084F8453084F840
:102ED4003D30002010BD80F83C30FDF7ADFFDBE74E
:102EE4000120704710B4846824F47F4C42EA032222
:102EF4000A4342EA0C02826010BC704790F83C30EE
:102F0400012B78D010B50446012380F83C3002230D
:102F140080F83D300268936823F47F4323F07703FD
:102F240093600B68602B4CD029D8402B54D00CD91B
:102F3400502B22D1CA6849680068FFF754FE50211B
:102F44002068FFF775FE002005E0202B0DD009D97D
:102F5400302B0AD00120012384F83D30002384F86B
:102F64003C3010BD0BB1102B05D119462068FFF77A
:102F74005FFE0020EFE70120EDE70120EBE7B3F56A
:102F8400805F34D0B3F5005F0CD1CB684A688968A0
:102F94000068FFF7A7FF2268936843F480439360B7
:102FA4000020D8E7702B24D1CB684A688968006870
:102FB400FFF798FF2268936843F07703936000203B
:102FC400C9E7CA6849680068FFF71FFE60212068E6
:102FD400FFF72EFE0020BEE7CA6849680068FFF7C5
:102FE40002FE40212068FFF723FE0020B3E7002003
:102FF400B1E70120AFE702207047000090F83C30B1
:10300400012B34D010B4012380F83C30022380F823
:103014003D3003685A689C6822F0700C0A6842EAE2
:103024000C025A600368134A934212D002F50062FC
:1030340093420ED0B3F1804F0BD0A2F59832934255
:1030440007D002F58062934203D002F58062934276
:1030540004D124F080044A6814439C60012380F85E
:103064003D30002380F83C30184610BC70470220E5
:10307400704700BF002C014070477047026802F19E
:103084000C0353E8003F23F490730C3242E8003100
:103094000029F3D1026802F1140353E8003F23F03E
:1030A4000103143242E800310029F3D1036B012BF0
:1030B40005D0202380F84230002303637047026860
:1030C40002F10C0353E8003F23F010030C3242E8F2
:1030D40000310029F3D1ECE790F84130DBB2212B29
:1030E40001D0022070478368B3F5805F17D0036A6C
:1030F4005A1C02621A7803685A60C38C9BB2013B63
:103104009BB2C3844BB90268D36823F08003D360B5
:103114000268D36843F04003D3600020704703691A
:10312400002BE4D1036A1B880268C3F308035360CD
:10313400036A02330362E0E710B5044602681369C8
:1031440023F44053C1680B4313618368026913433A
:1031540042691A430168CB6823F4B05323F00C038B
:103164001343CB600268536923F4407381690B43B2
:1031740053610268134B9A4220D0FEF7E3FC0246E7
:1031840002EB820202EB820263689B00B2FBF3F261
:103194000D48A0FB02314909642303FB11231B01E1
:1031A4003233A0FB03235B0903F0F00202EB0112AC
:1031B40003F00F03216813448B6010BDFEF7D2FCAB
:1031C4000246DDE7003801401F85EB512DE9F84345
:1031D40005460F4616469946DDF820802C6824687B
:1031E40037EA04030CBF4FF0010C4FF0000CB44558
:1031F4002DD1B8F1FF3FF1D0B8F1000F05D0FEF7A3
:1032040083F9A0EB09004045E8D92A6802F10C03D0
:1032140053E8003F23F4D0730C3242E80031002914
:10322400F3D12A6802F1140353E8003F23F00103A9
:10323400143242E800310029F3D1202385F84130CB
:1032440085F84230002385F84030032000E0002058
:10325400BDE8F88360B310B5044690F8413013B369
:10326400242384F841302268D36823F40053D360C4
:103274002046FFF761FF2268136923F4904313612A
:103284002268536923F02A0353612268D36843F404
:103294000053D36000206064202384F8413084F814
:1032A4004230606310BD80F84030FDF76DFED7E713
:1032B400012070472DE9F04182B01E4690F841305C
:1032C400DBB2202B4BD104460D46904600294AD050
:1032D4000AB9012044E000234364212380F84130EB
:1032E400FEF712F90746A4F82480A4F82680A36800
:1032F400B3F5805F02D04FF000080FE02369FBB103
:103304004FF000080AE038F8023B2268C3F30803D0
:103314005360E28C92B2013A92B2E284E38C9BB2A3
:103324008BB100963B46002280212046FFF74EFFDA
:10333400D8B9002DE7D015F8012B23685A60E8E7C7
:10334400A8460025EAE700963B4600224021204695
:10335400FFF73CFF58B9202384F8413000E00220F5
:1033640002B0BDE8F0810120FAE70320F8E703206A
:10337400F6E7704708B50168CA6822F04002CA60DF
:10338400202280F84120FFF7F4FF002008BD704799
:1033940008B5406A0023C385C384FFF7F8FF08BD5E
:1033A400704790F84230DBB2222B69D18368B3F5C1
:1033B400805F4FD0826AB3F5805F04D0002B56D172
:1033C4000369002B53D103685B681370836A01336C
:1033D4008362C38D9BB2013B9BB2C385002B51D149
:1033E40000B583B00268D36823F02003D360026879
:1033F400D36823F48073D3600268536923F0010314
:103404005361202380F8423000234363036B012B74
:1034140033D100230363026802F10C0353E8003F35
:1034240023F010030C3242E800310029F3D1036881
:103434001A6812F0100F06D0002201921A68019245
:103444005B680193019B818DFFF7AAFF002003B005
:103454005DF804FB0269002AACD1826A03685B68E8
:10346400C3F308031380836A02338362B1E70368FA
:103474005B6803F07F031370A8E7FCF7D9FEE5E768
:10348400022070470020704730B583B004460268BC
:103494001368D068516913F00F0505D113F0200F9C
:1034A40002D010F0200F19D12DB111F0010119D162
:1034B40010F4907F16D1216B01297DD013F0800F79
:1034C40003D010F0800F40F0188113F0400F03D0A8
:1034D40010F0400F40F0158103B030BD2046FFF7D7
:1034E40060FFF9E713F0010F06D010F4807F03D0DA
:1034F400626C42F00102626413F0040F04D019B14B
:10350400626C42F00202626413F0020F04D019B13B
:10351400626C42F00402626413F0080F07D010F0EA
:10352400200F00D119B1626C42F008026264626C2F
:10353400002AD1D013F0200F02D010F0200F29D18F
:1035440023685B6903F04003626C12F0080F00D13A
:1035540063B32046FFF792FD23685B6913F0400FC5
:1035640020D0226802F1140353E8003F23F0400303
:10357400143242E800310029F3D1E36B73B1634A9A
:103584005A63E06BFEF74EFD0028A5D0E06B436B59
:103594009847A1E72046FFF704FFD1E72046FFF74D
:1035A400F6FE99E72046FFF7F2FE95E72046FFF77F
:1035B400EEFE002363648FE713F0100F3FF47EAF39
:1035C40010F0100F3FF47AAF0023019313680193B6
:1035D40053680193019B536913F0400F51D0E26B80
:1035E40013685B689BB2002B3FF476AFA18D9942C0
:1035F4007FF672AFE3859369202B37D0226802F1FE
:103604000C0353E8003F23F480730C3242E800318A
:103614000029F3D1226802F1140353E8003F23F098
:103624000103143242E800310029F3D1226802F187
:10363400140353E8003F23F04003143242E80031FE
:103644000029F3D1202384F8423000232363226825
:1036540002F10C0353E8003F23F010030C3242E85C
:1036640000310029F3D1E06BFEF7B8FC0223636359
:10367400A18DE38D9BB2C91A89B22046FFF790FE53
:103684002AE7A18DE38D9BB2C91A89B2E38D9BB25F
:10369400002B3FF421AF00293FF41EAF226802F152
:1036A4000C0353E8003F23F490730C3242E80030DB
:1036B4000028F3D1226802F1140353E8003F23F0F9
:1036C4000103143242E800300028F3D1202384F8A7
:1036D400423000232363226802F10C0353E8003FC5
:1036E40023F010030C3242E800300028F3D1022307
:1036F40063632046FFF754FEEEE62046FFF7ECFC3A
:10370400EAE62046FFF736FEE6E600BF95330008FA
:1037140081628285C28500234364222380F842307B
:10372400036923B10268D36843F48073D3600268E9
:10373400536943F0010353610268D36843F02003E3
:10374400D3600020704708B590F84230DBB2202BDC
:1037540008D149B10AB9012008BD00230363FFF76A
:10376400D7FFF9E70220F7E70120F5E770470000EB
:10377400FFF7FCFF0B480C490C4A002302E0D45825
:10378400C4500433C4188C42F9D3094A094C0023A9
:1037940001E013600432A242FBD300F00FF8FCF7FF
:1037A400C9FD7047000000201000002058390008AF
:1037B4001000002040050020FEE7000070B5002640
:1037C4000C4D0D4C641BA410A64209D100F054F812
:1037D40000260A4D0A4C641BA410A64205D170BDF4
:1037E40055F8043B98470136EEE755F8043B9847F3
:1037F4000136F2E750390008503900085039000802
:10380400543900080A44914200F1FF3300D1704753
:1038140010B511F8014B914203F8014FF9D110BDD5
:1038240003460244934200D1704703F8011BF9E7B1
:103834000346C9B2184613F8012B12B18A42F9D1D2
:103844007047002918BF002070470A7870B56AB91C
:1038540070BD9A4209D10C46054614F8013F002B6D
:10386400F6D015F8016F9E42F7D001300378002B93
:10387400EFD11846ECE70000F8B500BFF8BC08BC6F
:103884009E467047F8B500BFF8BC08BC9E4670471A
:103894004C37302063616C6C0A00000074696D65FC
:1038A40063616C6C6261636B0A0000000A475348F1
:1038B400542053544152540A0000000053494D20EF
:1038C40052455345540A000053494D205057455220
:1038D4004B45590A0000000073696D206572726FD0
:1038E400720000004F4B0D0A0000000041544530A7
:1038F4000D0A000041540D0A00000000310D0A00B9
:1039040041542B4346554E3F0D0A00000203040563
:10391400060708090A0B0C0D0E0F10100102000017
:1039240002030405060708090A0B0C0D0E0F1010FC
:103934000102000000000000000000000102030476
:0C3944000607080900000000010203044F
:043950000902000860
:04395400E501000881
:103958000100000001000000100000000024F40035
:040000050800377543
:00000001FF
