:020000040800F2
:1000000000C00020499B0008E1420008E3420008CC
:10001000E5420008E7420008E9420008000000004D
:10002000000000000000000000000000EB4200089B
:10003000ED42000800000000EF420008F142000815
:10004000919B0008919B0008919B0008919B0008E0
:10005000919B0008919B0008919B0008919B0008D0
:10006000919B0008919B0008919B0008919B0008C0
:10007000919B0008919B0008919B0008919B0008B0
:10008000919B0008919B0008919B0008919B0008A0
:10009000919B0008919B0008919B0008919B000890
:1000A000919B0008919B0008919B0008919B000880
:1000B0001D4300082D430008919B0008919B0008F8
:1000C000919B0008919B0008919B0008919B000860
:1000D000919B00083D4300084D430008919B000898
:1000E000919B00085D430008919B0008919B0008CC
:1000F000919B0008919B0008919B0008919B000830
:10010000919B0008919B0008919B0008919B00081F
:100110006D430008919B0008919B0008919B00088B
:10012000919B0008919B0008919B0008919B0008FF
:1001300000000000000000000000000000000000BF
:1001400000000000000000000000000000000000AF
:10015000000000000000000000000000000000009F
:10016000000000000000000000000000000000008F
:10017000000000000000000000000000000000007F
:10018000000000000000000000000000000000006F
:10019000000000000000000000000000000000005F
:1001A000000000000000000000000000000000004F
:1001B000000000000000000000000000000000003F
:1001C000000000000000000000000000000000002F
:1001D000000000000000000000000000000000001F
:0401E0005FF8E0F1F3
:1001E80010B5054C237833B9044B13B10448AFF369
:1001F80000800123237010BD400200200000000091
:10020800FCE5000808B5034B1BB103490348AFF3ED
:10021800008008BD0000000044020020FCE5000842
:1002280010F8012B11F8013B012A28BF9A42F7D098
:10023800D01A7047034613F8012B002AFBD1181A6D
:100248000138704781F0004102E000BF83F00043AD
:1002580030B54FEA41044FEA430594EA050F08BF59
:1002680090EA020F1FBF54EA000C55EA020C7FEA1D
:10027800645C7FEA655C00F0E2804FEA5454D4EB9A
:100288005555B8BF6D420CDD2C4480EA020281EA64
:10029800030382EA000083EA010180EA020281EA9C
:1002A8000303362D88BF30BD11F0004F4FEA0131EE
:1002B8004FF4801C4CEA113102D0404261EB4101FD
:1002C80013F0004F4FEA03334CEA133302D0524283
:1002D80063EB430394EA050F00F0A780A4F101043F
:1002E800D5F1200E0DDB02FA0EFC22FA05F2801879
:1002F80041F1000103FA0EF2801843FA05F359415F
:100308000EE0A5F120050EF1200E012A03FA0EFCDD
:1003180028BF4CF0020C43FA05F3C01851EBE37107
:1003280001F0004507D54FF0000EDCF1000C7EEB24
:1003380000006EEB0101B1F5801F1BD3B1F5001F62
:100348000CD349085FEA30004FEA3C0C04F1010481
:100358004FEA445212F5800F80F09A80BCF1004FAA
:1003680008BF5FEA500C50F1000041EB045141EA2C
:10037800050130BD5FEA4C0C404141EB0101013CF5
:1003880028BFB1F5801FE9D291F0000F04BF0146E4
:100398000020B1FA81F308BF2033A3F10B03B3F1B6
:1003A80020020CDA0C3208DD02F1140CC2F10C0246
:1003B80001FA0CF021FA02F10CE002F11402D8BFA4
:1003C800C2F1200C01FA02F120FA0CFCDCBF41EA70
:1003D8000C019040E41AA2BF01EB0451294330BD3F
:1003E8006FEA04041F3C1CDA0C340EDC04F114041C
:1003F800C4F1200220FA04F001FA02F340EA0300F3
:1004080021FA04F345EA030130BDC4F10C04C4F138
:10041800200220FA02F001FA04F340EA0300294618
:1004280030BD21FA04F0294630BD94F0000F83F462
:10043800801306BF81F480110134013D4EE77FEA45
:10044800645C18BF7FEA655C29D094EA050F08BF91
:1004580090EA020F05D054EA000C04BF1946104672
:1004680030BD91EA030F1EBF0021002030BD5FEAB6
:10047800545C05D14000494128BF41F0004130BDDE
:1004880014F580043CBF01F5801130BD01F0004532
:1004980045F0FE4141F470014FF0000030BD7FEAA5
:1004A800645C1ABF194610467FEA655C1CBF0B46A0
:1004B800024650EA013406BF52EA033591EA030FB7
:1004C80041F4002130BD00BF90F0000F04BF0021AF
:1004D800704730B54FF4806404F132044FF00005E2
:1004E8004FF0000150E700BF90F0000F04BF00215B
:1004F800704730B54FF4806404F1320410F00045C1
:1005080048BF40424FF000013EE700BF42004FEABB
:10051800E2014FEA31014FEA02701FBF12F07F4338
:1005280093F07F4F81F06051704732F07F4208BFEF
:10053800704793F07F4F04BF41F40021704730B5F6
:100548004FF4607401F0004521F000411CE700BF42
:1005580050EA010208BF704730B54FF000050AE0C5
:1005680050EA010208BF704730B511F0004502D5C6
:10057800404261EB41014FF4806404F132045FEAC8
:10058800915C3FF4D8AE4FF003025FEADC0C18BF71
:1005980003325FEADC0C18BF033202EBDC02C2F163
:1005A800200300FA03FC20FA02F001FA03FE40EAF5
:1005B8000E0021FA02F11444BDE600BF70B54FF0F9
:1005C800FF0C4CF4E06C1CEA11541DBF1CEA1355D7
:1005D80094EA0C0F95EA0C0F00F0DEF82C4481EA3F
:1005E800030621EA4C5123EA4C5350EA013518BF5F
:1005F80052EA033541F4801143F4801338D0A0FB4C
:1006080002CE4FF00005E1FB02E506F00042E0FBF8
:1006180003E54FF00006E1FB03569CF0000F18BFFE
:100628004EF0010EA4F1FF04B6F5007F64F54074A6
:1006380004D25FEA4E0E6D4146EB060642EAC62139
:1006480041EA55514FEAC52040EA5E504FEACE2EA6
:10065800B4F1FD0C88BFBCF5E06F1ED8BEF1004FA9
:1006680008BF5FEA500E50F1000041EB045170BD25
:1006780006F0004646EA010140EA020081EA030169
:10068800B4EB5C04C2BFD4EB0C0541EA045170BD65
:1006980041F480114FF0000E013C00F3AB8014F1DF
:1006A800360FDEBF002001F0004170BDC4F1000428
:1006B800203C35DA0C341BDC04F11404C4F12005A9
:1006C80000FA05F320FA04F001FA05F240EA020004
:1006D80001F0004221F0004110EBD37021FA04F63A
:1006E80042EB06015EEA430E08BF20EAD37070BDF4
:1006F800C4F10C04C4F1200500FA04F320FA05F053
:1007080001FA04F240EA020001F0004110EBD37054
:1007180041F100015EEA430E08BF20EAD37070BDC4
:10072800C4F1200500FA05F24EEA020E20FA04F39D
:1007380001FA05F243EA020321FA04F001F000414C
:1007480021FA04F220EA020000EBD3705EEA430EBD
:1007580008BF20EAD37070BD94F0000F0FD101F0EC
:100768000046400041EB010111F4801F08BF013C25
:10077800F7D041EA060195F0000F18BF704703F063
:100788000046520043EB030313F4801F08BF013DEA
:10079800F7D043EA0603704794EA0C0F0CEA1355A6
:1007A80018BF95EA0C0F0CD050EA410618BF52EA60
:1007B8004306D1D181EA030101F000414FF0000066
:1007C80070BD50EA410606BF1046194652EA430674
:1007D80019D094EA0C0F02D150EA013613D195EAE8
:1007E8000C0F05D152EA03361CBF104619460AD130
:1007F80081EA030101F0004141F0FE4141F470013A
:100808004FF0000070BD41F0FE4141F4780170BD29
:1008180070B54FF0FF0C4CF4E06C1CEA11541DBF8E
:100828001CEA135594EA0C0F95EA0C0F00F0A7F890
:10083800A4EB050481EA030E52EA03354FEA0131BD
:1008480000F088804FEA03334FF0805545EA1313D0
:1008580043EA12634FEA022245EA111545EA106598
:100868004FEA00260EF000419D4208BF964244F12F
:10087800FD0404F5407402D25B084FEA3202B61A4E
:1008880065EB03055B084FEA32024FF480104FF422
:10089800002CB6EB020E75EB030E22BFB61A754696
:1008A80040EA0C005B084FEA3202B6EB020E75EB29
:1008B800030E22BFB61A754640EA5C005B084FEA91
:1008C8003202B6EB020E75EB030E22BFB61A75465E
:1008D80040EA9C005B084FEA3202B6EB020E75EB69
:1008E800030E22BFB61A754640EADC0055EA060E2A
:1008F80018D04FEA051545EA16754FEA06164FEA6D
:10090800C30343EA52734FEAC2025FEA1C1CC0D118
:1009180011F4801F0BD141EA00014FF000004FF0A5
:10092800004CB6E711F4801F04BF01430020B4F166
:10093800FD0C88BFBCF5E06F3FF6AFAEB5EB030C1E
:1009480004BFB6EB020C5FEA500C50F1000041EB1B
:10095800045170BD0EF0004E4EEA113114EB5C04E8
:10096800C2BFD4EB0C0541EA045170BD41F48011BB
:100978004FF0000E013C90E645EA060E8DE60CEAC3
:10098800135594EA0C0F08BF95EA0C0F3FF43BAFE0
:1009980094EA0C0F0AD150EA01347FF434AF95EA97
:1009A8000C0F7FF425AF104619462CE795EA0C0F7B
:1009B80006D152EA03353FF4FDAE1046194622E748
:1009C80050EA410618BF52EA43067FF4C5AE50EA22
:1009D80041047FF40DAF52EA43057FF4EBAE12E712
:1009E8004FF0FF3C06E000BF4FF0010C02E000BFF3
:1009F8004FF0010C4DF804CD4FEA410C7FEA6C5CD6
:100A08004FEA430C18BF7FEA6C5C1BD001B050EA78
:100A1800410C0CBF52EA430C91EA030F02BF90EA63
:100A2800020F0020704710F1000F91EA030F58BF22
:100A3800994208BF90422CBFD8176FEAE37040F084
:100A4800010070474FEA410C7FEA6C5C02D150EA22
:100A5800013C07D14FEA430C7FEA6C5CD6D152EADD
:100A6800033CD3D05DF8040B704700BF84461046A2
:100A780062468C461946634600E000BF01B5FFF7A1
:100A8800B7FF002848BF10F1000F01BD4DF808ED71
:100A9800FFF7F4FF0CBF012000205DF808FB00BF42
:100AA8004DF808EDFFF7EAFF34BF012000205DF89C
:100AB80008FB00BF4DF808EDFFF7E0FF94BF0120E9
:100AC80000205DF808FB00BF4DF808EDFFF7CEFFEA
:100AD80094BF012000205DF808FB00BF4DF808ED29
:100AE800FFF7C4FF34BF012000205DF808FB00BFFA
:100AF8004FEA410C7FEA6C5C02D150EA013C0AD112
:100B08004FEA430C7FEA6C5C02D152EA033C02D103
:100B18004FF0000070474FF0010070474FEA410264
:100B280012F5001215D211D56FF47873B3EB625237
:100B380012D94FEAC12343F0004343EA505311F05E
:100B4800004F23FA02F018BF404270474FF00000F0
:100B5800704750EA013005D111F0004008BF6FF02E
:100B6800004070474FF00000704700BF4A0011D2A4
:100B780012F5001211D20DD56FF47873B3EB6252EF
:100B88000ED44FEAC12343F0004343EA505323FAFB
:100B980002F070474FF00000704750EA013002D170
:100BA8004FF0FF3070474FF0000070474FEA4102A6
:100BB800B2F1E04324BFB3F5001CDCF1FE5C0DD9B3
:100BC80001F0004C4FEAC0024CEA5070B2F1004FFD
:100BD80040EB830008BF20F00100704711F0804F00
:100BE80021D113F13872BCBF01F00040704741F4C5
:100BF80080114FEA5252C2F11802C2F1200C10FAC9
:100C08000CF320FA02F018BF40F001004FEAC123AC
:100C18004FEAD32303FA0CFC40EA0C0023FA02F350
:100C28004FEA4303CCE77FEA625307D150EA013326
:100C38001EBF4FF0FE4040F44000704701F00040F6
:100C480040F0FE4040F40000704700BF80F00040D4
:100C580002E000BF81F0004142001FBF5FEA41038C
:100C680092EA030F7FEA226C7FEA236C6AD04FEA8C
:100C78001262D2EB1363C1BFD218414048404140D1
:100C8800B8BF5B42192B88BF704710F0004F40F483
:100C9800000020F07F4018BF404211F0004F41F49F
:100CA800000121F07F4118BF494292EA030F3FD06B
:100CB800A2F1010241FA03FC10EB0C00C3F120037E
:100CC80001FA03F100F0004302D5494260EB40000D
:100CD800B0F5000F13D3B0F1807F06D340084FEA78
:100CE800310102F10102FE2A51D2B1F1004F40EB6D
:100CF800C25008BF20F0010040EA030070474900D5
:100D080040EB0000013A28BFB0F5000FEDD2B0FA71
:100D180080FCACF1080CB2EB0C0200FA0CF0AABF94
:100D280000EBC25052421843BCBFD0401843704732
:100D380092F0000F81F4000106BF80F40000013238
:100D4800013BB5E74FEA41037FEA226C18BF7FEA0F
:100D5800236C21D092EA030F04D092F0000F08BF51
:100D68000846704790EA010F1CBF0020704712F038
:100D78007F4F04D1400028BF40F00040704712F177
:100D880000723CBF00F50000704700F0004343F0DC
:100D9800FE4040F4000070477FEA226216BF084612
:100DA8007FEA23630146420206BF5FEA412390EAD5
:100DB800010F40F4800070474FF0000304E000BFCB
:100DC80010F0004348BF40425FEA000C08BF70477C
:100DD80043F0964301464FF000001CE050EA010240
:100DE80008BF70474FF000030AE000BF50EA010255
:100DF80008BF704711F0004302D5404261EB410142
:100E08005FEA010C02BF84460146002043F0B64366
:100E180008BFA3F18053A3F50003BCFA8CF2083A8B
:100E2800A3EBC25310DB01FA02FC634400FA02FC94
:100E3800C2F12002BCF1004F20FA02F243EB02009B
:100E480008BF20F00100704702F1200201FA02FCFD
:100E5800C2F1200250EA4C0021FA02F243EB0200F0
:100E680008BF20EADC7070474FF0FF0C1CEAD05234
:100E78001EBF1CEAD15392EA0C0F93EA0C0F6FD0F5
:100E88001A4480EA010C400218BF5FEA41211ED0D3
:100E98004FF0006343EA501043EA5111A0FB0131BF
:100EA8000CF00040B1F5000F3EBF490041EAD37194
:100EB8005B0040EA010062F17F02FD2A1DD8B3F110
:100EC800004F40EBC25008BF20F00100704790F07F
:100ED800000F0CF0004C08BF49024CEA502040EAD1
:100EE80051207F3AC2BFD2F1FF0340EAC250704797
:100EF80040F400004FF00003013A5DDC12F1190FD5
:100F0800DCBF00F000407047C2F10002410021FA46
:100F180002F1C2F1200200FA02FC5FEA310040F15E
:100F2800000053EA4C0308BF20EADC70704792F0D7
:100F3800000F00F0004C02BF400010F4000F013A0F
:100F4800F9D040EA0C0093F0000F01F0004C02BF0A
:100F5800490011F4000F013BF9D041EA0C018FE779
:100F68000CEAD15392EA0C0F18BF93EA0C0F0AD07F
:100F780030F0004C18BF31F0004CD8D180EA0100A5
:100F880000F00040704790F0000F17BF90F0004F3E
:100F9800084691F0000F91F0004F14D092EA0C0F20
:100FA80001D142020FD193EA0C0F03D14B0218BFB3
:100FB800084608D180EA010000F0004040F0FE40F9
:100FC80040F40000704740F0FE4040F44000704795
:100FD8004FF0FF0C1CEAD0521EBF1CEAD15392EA14
:100FE8000C0F93EA0C0F69D0A2EB030280EA010C04
:100FF80049024FEA402037D04FF0805343EA11119D
:1010080043EA10130CF000408B4238BF5B0042F1FA
:101018007D024FF4000C8B4224BF5B1A40EA0C009F
:10102800B3EB510F24BFA3EB510340EA5C00B3EBD1
:10103800910F24BFA3EB910340EA9C00B3EBD10FBF
:1010480024BFA3EBD10340EADC001B0118BF5FEA11
:101058001C1CE0D1FD2A3FF650AF8B4240EBC2503A
:1010680008BF20F0010070470CF0004C4CEA5020FB
:101078007F32C2BFD2F1FF0340EAC250704740F44A
:1010880000004FF00003013A37E792F0000F00F03C
:10109800004C02BF400010F4000F013AF9D040EABA
:1010A8000C0093F0000F01F0004C02BF490011F44E
:1010B800000F013BF9D041EA0C0195E70CEAD15346
:1010C80092EA0C0F08D142027FF47DAF93EA0C0F2D
:1010D8007FF470AF084676E793EA0C0F04D14B0211
:1010E8003FF44CAF08466EE730F0004C18BF31F0C3
:1010F800004CCAD130F000427FF45CAF31F00043BD
:101108007FF43CAF5FE700BF4FEA4002B2F1FE4F09
:101118000FD34FF09E03B3EB12620DD94FEA0023B1
:1011280043F0004310F0004F23FA02F018BF40428A
:1011380070474FF00000704712F1610F01D1420271
:1011480005D110F0004008BF6FF0004070474FF025
:101158000000704738B505460C4600220023284693
:101168002146FFF79DFC28B928462146BDE83840AE
:1011780000F00AB8284604F1004100F005F84042A2
:1011880061EB410138BD00BFD0B500220B4B0646CC
:101198000F46FFF713FAFFF7E9FC0446FFF794F947
:1011A8000022074BFFF70AFA02460B46304639463B
:1011B800FFF74CF8FFF7DAFC2146D0BD0000F03D00
:1011C8000000F04110B50446FFF734F841F28833C7
:1011D80082B22146014805F0C7FF10BDD432002075
:1011E80038B50446074D01220221284603F0F5FFD1
:1011F800204603F08DFA00220221284603F0EDFF75
:1012080038BD00BF000801406FF009024EF66023A8
:1012180002FB0033014A5362704700BF00040040DC
:1012280008B541F28830FFF7DBFF0249024801F0B8
:1012380071FE08BD24E600084226002010B50446C9
:10124800164B984206D0164B9C4206D0154B9C4232
:1012580006D010BD01F0AEFDF5E701F0B5F9F5E7F0
:10126800114B05221A60114B1B681148114A12785C
:10127800C254114908F070FD28B11048FFF7A2FFC9
:101288000F4B01221A70094A1368013313600122B7
:101298000849044806F0B1F9DBE700BF8C320020AA
:1012A8001C330020D43200200000002064270020D6
:1012B800302700206227002050E6000860E600087A
:1012C8006327002010B504462F4B984203D02F4BBC
:1012D8009C4213D010BD2E4801F0E6FC0028F6D140
:1012E8002C4B1B78002BF2D02A4B00221A702A4B69
:1012F80005221A60294B01221A70E8E7264B1B6861
:10130800C3B1254B1B68012B1ED0234B1B68022B36
:1013180025D0214B1B68032B2BD01F4B1B68042B9C
:10132800D8D100231E4A13711B4A13606420FFF7AB
:101338006BFFCFE71A4B00221A70174B01221A6075
:10134800C820FFF761FFC5E7154B00225A70124B02
:1013580002221A604FF49660FFF756FFBAE7104B67
:1013680000229A700C4B03221A60C820FFF74CFF2A
:10137800B0E70B4B0022DA70074B04221A60C82032
:10138800FFF742FFA6E700BFFC31002044320020EF
:101398005C0200202E280020000000208404002089
:1013A8008805002072B6FEE700B583B000220092DF
:1013B80001920A4B197801448DF8001059788DF87C
:1013C80001109B788DF802306946054804F026FF25
:1013D80010B903B05DF804FBFFF7E4FF94050020A3
:1013E800E428002000B597B0282200210CA808F0B6
:1013F80001FC00230793089309930A930B93019325
:101408000293039304930593069305230C934FF4D7
:1014180080330D9301220F9210920222139214939B
:101428004FF4E01315930CA803F09CF9E0B90F23CF
:10143800079302210891002309934FF480620A92CE
:101448000B9307A803F0C0FB80B9032301934FF463
:10145800807302934FF40043039301A803F090FCB8
:1014680030B917B05DF804FBFFF79CFFFFF79AFF50
:10147800FFF798FF80B58EB003F026F9FFF7B2FFAB
:1014880000F0F6FC00F07CFD00F0F4FE00F0A6FD94
:1014980002F0C4FC02F0CCFD00F020FE00F00CFFCE
:1014A80000F02AFF02F0AAFD02F0DCFD02F0F4FDD4
:1014B80002F0ECFC02F022FD00F060FE06F0B2F84B
:1014C800AC4800F0D5FF01F0BAFAAB4800F0D0FF05
:1014D8000A2003F01DF901F04BF8A84800F0C8FFF6
:1014E8004FF4FA7003F014F901F09AFC01F0F4FCDF
:1014F80001F03AFE642003F00BF902F0DBFB02F086
:10150800D1FB012401944023009380239C4A0021AD
:10151800084602F0BBFA02214B2002F001FB994D6C
:1015280022462946984802F04FFB10211E2002F05F
:10153800F7FA22462946954802F046FB1C21204628
:1015480002F0EEFA22462946914802F03DFB282196
:10155800204602F0E5FA224629468E4802F034FB7E
:101568003421204602F0DCFA224629468A4802F055
:101578002BFB02F073FB22468849894807F00EFCD2
:10158800884B1870002857D0874800F071FF874BA8
:1015980031221A8030225A809A80854A118892789E
:1015A800D9801A72834C844A234607CA03C31A7027
:1015B80004F11405814E0FCE0FC533682B70804B94
:1015C80007CBC4F83200C4F83610C4F83A201A8899
:1015D8009B78E28784F840307A4B283493E80700F8
:1015E80003C42270784C794B93E803002060217182
:1015F800774B04F114050FCB07C52B70754B07CB40
:10160800C4F83200C4F83610C4F83A201A889B7817
:10161800E28784F84030704B283493E8070003C40D
:1016280022706E4A6E4B03CBC2F84600C2F84A10CD
:101638001B88A2F84E3009E06A4800F019FFA6E7B7
:10164800694801F031FB002800F0068167495948D4
:10165800FEF7E6FD0028F3D164495B48FEF7E0FD9C
:101668000028EDD1624C634D00222146284604F043
:10167800B1FC614E00223146284604F09BFD04204F
:10168800FFF792FEA3785D4F0093637822785C4958
:10169800384608F0B7FA384600F0EAFE594F38469F
:1016A80000F0E6FEF378DFF8608100937378B27893
:1016B8005649404608F0A6FA404600F0D9FE38469A
:1016C80000F0D6FE524E00223146284604F082FC35
:1016D80000225049284604F06DFD32787378C2EB39
:1016E800021203EB82039BB221786278C1EB0111ED
:1016F80002EB810292B29B1A9BB2474A1380474A77
:10170800A2FB0312520946490A60A2EB021103EB3D
:10171800810344490B604449444808F073FA00F0D7
:101728009BFF434B186000F0EFFF4FF47A7002F014
:10173800EFFF4049404808F00FFB28B13D493F48BA
:1017480008F00AFB0028EAD13D4800F091FE4FF46A
:10175800FA70FFF759FD3B4805F0A8F93A4805F03B
:101768006FF93A4805F0A2F901223949394805F0DC
:1017780044FFE2E064E6000874E600088CE600082E
:1017880020EA000854000020A4E60008ACE600089F
:10179800B8E60008CCE60008E0E60008F0E6000835
:1017A800E0150020DC150020F4E60008D82700200A
:1017B80060E600086C2600203CE7000848E70008BF
:1017C8005CE700086CE70008C826002078E70008F6
:1017D80080E7000890E70008A0E70008102600202E
:1017E800ACE7000818E700085C0200207802002037
:1017F80094050020E428002090050020E42700201C
:10180800FCE7000814E700089805002008E800082D
:10181800282700202427002000280020898888887D
:10182800F8270020FC27002014E8000804280020DE
:101838008C0200201CE80008142A0020282A002016
:1018480024E8000844320020B4310020FC31002094
:1018580062270020D4320020A54A9378D178A54C7D
:101868000191009353781278A349204608F0CAF9E9
:10187800204600F0FDFD2146A048FEF7D1FC38B314
:101888009C499F48FEF7CCFC002843D19D4B012280
:101898001A709B4D9C4C2946204608F042FA05F1E7
:1018A800140104F1140008F03CFA05F1320104F1C6
:1018B800320008F036FA05F1280104F1280008F092
:1018C80030FAC820FFF78CFC904800F0D1FDBDE647
:1018D8008C4B01221A70894D8B4C2946204608F002
:1018E80020FA05F1140104F1140008F01AFA05F1C0
:1018F800320104F1320008F014FA05F1280104F16C
:10190800280008F00EFAC820FFF76AFC804800F0AB
:10191800AFFDB5E7C820FFF763FCC82002F0F8FE6A
:10192800C820FFF75DFC7B4800F0A2FD9AE67A4BE1
:101938001B78ABB1642002F0EBFE784B1B68052BDB
:10194800F8D801A252F823F037190008C319000883
:10195800E5190008991B0008531C0008E91C000839
:101968006F4800F085FD6C4B01221A7001F0C8FB2E
:10197800FFF7CAFB02466B4B18606B4C6B4920465D
:1019880008F040F96A4B1A889B78A4F80520E3719F
:10199800684B1A889B78A4F8372084F83930A4F863
:1019A800692084F86B30644800F062FD204600F03E
:1019B8005FFD624800F05CFDBCE7574B5B78002B8D
:1019C800B8D15F4800F054FD534B01225A7000F023
:1019D80043FE5C4B186000F097FEABE74E4B9B78DC
:1019E800002BA7D1584800F043FD4B4B01229A70B9
:1019F800564C4FF4FA720021204608F0FBF8544D7B
:101A0800544B1B68544A12685449284608F0FAF89F
:101A1800534A544B0D930C95434901F169000B90BF
:101A280001F137000A90481D09900891A3F11401AB
:101A38000791283B0693931D0593334B03F132011D
:101A4800049103F11401039103F128010291463333
:101A58000193131D0093931C4349204608F0D2F8C4
:101A68002146424801F0EAFB414A136801331360FA
:101A78000A2B7FF45FAF002515603E4C3E4E2A4688
:101A88002146304604F0A6FA2A463C49304604F07E
:101A980091FB22786378C2EB021203EB82039BB2BC
:101AA800374A11785278C1EB011102EB810292B2E8
:101AB8009B1A9BB2334A1380334AA2FB0312520982
:101AC80025490A60A2EB021103EB810321490B604F
:101AD8001F4C2249204608F095F82C4800F0C8FC15
:101AE800204600F0C5FC154800F0C2FC22E700BF04
:101AF8005C02002078020020B8E700086C2600206D
:101B0800C82600202E28002010260020DCE7000828
:101B1800CCE70008ECE7000888050020000000205A
:101B280034E80008AC0500206827002044E80008D5
:101B380048E800084CE8000850E8000814E70008E6
:101B480064E800088C02002070E800089002002079
:101B580004280020FC270020F827002014E80008AB
:101B6800D82700203C2A00207CE8000848E9000823
:101B78002C27002028270020E428002024270020E4
:101B880094050020002800208988888860E90008DA
:101B9800954BDB78002B7FF4CDAE944800F068FCC1
:101BA800914B0122DA7002229149924807F028F9F4
:101BB800914B1870002844D0904800F059FC8D4C87
:101BC80004F58053D968204607F042FD8C4E214623
:101BD800304607F02DFF8B4D2146284607F028FF99
:101BE8002146894807F024FF2146284607F020FFB0
:101BF800214606F10C0007F01BFF2146284607F096
:101C080017FF214606F1200007F012FF214628465B
:101C180007F00EFF214606F1340007F009FF2146C0
:101C2800284607F005FF2146784807F001FF2146BE
:101C3800774807F0FDFE204607F0F4FC6E4B18705D
:101C480078E6744800F014FCB9E7674B1B79002B61
:101C58007FF470AE704800F00BFC0124624B1C71DD
:101C68006E4F00233B607B603B81654D0522294612
:101C7800384608F05EF802214B2001F051FF684E0B
:101C880022463146384601F09FFF10211E2001F000
:101C980047FF2246314605F1480001F095FF1C2117
:101CA8001E2001F03DFF2246314605F1200001F0DB
:101CB8008BFF28211E2001F033FF2246314605F113
:101CC8000C0001F081FF34212D2001F029FF22466C
:101CD800314605F1340001F077FF01F0BFFF29E636
:101CE800504B1B78F3B9504B1B78002B3FF422AEB6
:101CF8004D4B00221A704D48FFF764FA4C494D4885
:101D080008F02AF800283FF415AE0122384939486E
:101D180007F076F8384B1870002854D0374800F090
:101D2800A7FB57E03F4B00221A70434A9378D178BB
:101D3800424C01910093537812784149204607F0AC
:101D480061FF21463048FEF76BFA50B13D4800F07C
:101D58008FFB4FF47A7002F0DBFC3B4800F088FB05
:101D6800C1E73A4800F084FB39493A4801F066FA7D
:101D7800394C3A4D00222146284604F02BF900221E
:101D88003749284604F016FA22786378C2EB021223
:101D980003EB82039BB2334A11785278C1EB0111ED
:101DA80002EB810292B29B1A2F4A13800A20FFF796
:101DB800FBFAC820FFF714FAC82002F0A9FCC820D3
:101DC800FFF70EFAC5E7134800F052FB02E0274878
:101DD800FFF7F8F9074A4FF48071244807F0FDFD32
:101DE8000028F4D1A6E500BF8805002070E90008A6
:101DF8007CE90008B0050020DC15002088E900080F
:101E0800082A0020B0E9000878020020682700208E
:101E180014E7000898E90008B4E90008242800201D
:101E280054000020840400206327002018EA0008DA
:101E380050E60008302700205C02002064020020E1
:101E4800B8E70008C4E9000804EA0008D4E9000873
:101E5800F0E9000848E9000828270020E4280020C5
:101E68002427002094050020002800208804002052
:101E78002DE9F04389B0002404940594069407944E
:101E88003A4B9A6942F010029A619A6902F010027C
:101E98000092009A9A6942F020029A619A6902F0C7
:101EA80020020192019A9A6942F004029A619A69A1
:101EB80002F004020292029A9A6942F008029A61B8
:101EC8009B6903F008030393039BDFF8A480224671
:101ED8004FF44671404603F080F9264D224649F2F8
:101EE8000201284603F079F922464FF40161284699
:101EF80003F073F9DFF88090224641F20201484668
:101F080003F06BF9012604961C4B0593069404A96B
:101F1800404603F03BF84FF4467304930596069445
:101F28000227079704A9404603F030F849F6120340
:101F3800049305960694079704A9284603F026F803
:101F480041F20203049305960694079704A94846AC
:101F580003F01CF84FF4807304930594069404A9C5
:101F6800284603F013F809B0BDE8F08300100240DA
:101F78000010014000080140000C01400000311031
:101F880000B585B000230193029303931148124AC8
:101F9800026083600122027303754FF46021C161FE
:101FA8004360026102F0D6FA68B90B23019301235A
:101FB80002930323039301A9064802F0FDF928B907
:101FC80005B05DF804FBFFF7EDF9EEE7FFF7EAF976
:101FD800F6E700BF302800200024014000B585B096
:101FE80000230193029303931148124A026083600D
:101FF8000122027303754FF46021C16143600261DD
:1020080002F0A8FA70B90C23019301230293042368
:1020180003930DEB0301064802F0CEF928B905B089
:102028005DF804FBFFF7BEF9EDE7FFF7BBF9F6E74C
:10203800602800200028014000B589B000230493DF
:102048000593069307930368204A934205D0204AD4
:1020580093421ED009B05DF804FB1E4B9A6942F406
:1020680000729A619A6902F400720092009A9A6961
:1020780042F010029A619B6903F010030193019BDF
:10208800022304930323059304A9134802F07EFF57
:10209800E0E7104B9A6942F480629A619A6902F407
:1020A80080620292029A9A6942F010029A619B69D0
:1020B80003F010030393039B042304930323059362
:1020C80004A9054802F062FFC4E700BF00240140EC
:1020D80000280140001002400010014008B50B48DC
:1020E8000B4B03600B4B436000238360C3604FF4CA
:1020F8008042026143618361C361036203F050FB64
:1021080000B908BDFFF74EF9FBE700BF9028002093
:1021180000540040801A060010B586B000230293D0
:102128000393049305930268114B9A4201D006B0B9
:1021380010BD104CA36943F00803A361A36903F021
:1021480008030093009BC0230293122303930323E5
:10215800059302A9084802F019FFE36943F4001344
:10216800E361E36903F400130193019BDFE700BF18
:102178000054004000100240000C014000B585B03A
:102188000023ADF80C308DF80E30029300930193C4
:102198002248234B03604FF0FF3343604FF48073B2
:1021A800836004F0EFF868BB10238DF80C3000232F
:1021B8008DF80D308DF80E30012203A9174803F071
:1021C800A7FE10BB01228DF808208DF809208DF894
:1021D8000A2023238DF80B3002A9104803F080FF52
:1021E800B0B900238DF800308DF801308DF8023039
:1021F800019301226946094804F010F858B905B05E
:102208005DF804FBFFF7CEF8CEE7FFF7CBF8D9E788
:10221800FFF7C8F8E5E7FFF7C5F8F0E7E42800207E
:10222800002800400268104B9A4200D0704700B561
:1022380083B003F01DF90D4BDA6942F00062DA61F0
:10224800DB6903F000630193019B094B0122C3F88A
:102258003C2400221146292003F0B0F8292003F07D
:10226800E5F803B05DF804FB0028004000100240C8
:102278000000424208B50E480E4B03604FF48273CB
:10228800436000238360C360036143614FF40072BD
:1022980082611022C2610362436283620A23C362BD
:1022A80004F044F900B908BDFFF77CF8FBE700BF6C
:1022B800F82800200030014008B50D480D4B036098
:1022C8004FF48273436000238360C36003614361FA
:1022D8004FF400728261C3610362436283620A231E
:1022E800C36204F023F900B908BDFFF75BF8FBE708
:1022F800502900200038004008B50E480E4B0360F6
:102308004FF48273436000238360C36003614361B9
:102318004FF4007282611822C261036243628362D1
:102328000A23C36204F002F900B908BDFFF73AF8BE
:10233800FBE700BFA8290020003C004010B58AB088
:10234800002306930793089309930368424A93422C
:1023580007D0424A93422CD0414A934253D00AB004
:1023680010BD404B9A6942F480529A619A6902F40E
:1023780080520092009A9A6942F004029A619B691D
:1023880003F004030193019BA02306930223079300
:1023980003230993344C06A9204602F0F7FD402395
:1023A800069300230793089306A9204602F0EEFD42
:1023B800D5E72C4BDA6942F48042DA61DA6902F433
:1023C80080420292029A9A6942F008029A619B69D5
:1023D80003F008030393039B4FF42043069302235F
:1023E800079303230993214C06A9204602F0CEFD4A
:1023F8004FF48043069300230793089306A92046C9
:1024080002F0C4FDABE7174BDA6942F40042DA6127
:10241800DA6902F400420492049A9A6942F00802C6
:102428009A619B6903F008030593059B282306938B
:1024380002230793032309930C4C06A9204602F0B4
:10244800A5FD1023069300230793089306A92046A9
:1024580002F09CFD83E700BF0030014000380040D7
:10246800003C00400010024000080140000C014000
:1024780010B50446FDF7DEFE4FF47A7382B22146AA
:10248800014804F071FE10BD6433002001390023B7
:1024980007E0C25C10F801C000F803C042540133E1
:1024A80001398B42F5DB704770B50E4618B93023F9
:1024B8000B70012415E00546002495B10E4981FBF7
:1024C8000531EB17C3EBA103194603EB8303A5EB17
:1024D8004303303333550D460134EEE7302333558B
:1024E80001349442FADB21463046FFF7CFFF002340
:1024F8003355204670BD00BF676666662DE9F84310
:1025080006460C461746FEF7FFFD0546FEF758FC43
:1025180001463046FEF79EFB064600222146284625
:10252800FFF7C2FF0FB9BDE8F88305462E232354F1
:102538003846FDF7D9FF02460B4600200B490BF041
:1025480097F8804689463046FDF7E0FF42464B46FD
:10255800FEF734F8FEF72AFB691C0C44FEF7D4FD9D
:102568003A462146FFF7A0FFDDE700BF0000244000
:1025780010B5124C00224FF48071204602F02DFE57
:10258800642002F0C5F801224FF48071204602F061
:1025980024FE642002F0BCF800224FF4807120462B
:1025A80002F01BFE642002F0B3F84FF47A73332272
:1025B8000349044804F0D8FD10BD00BF00100140D5
:1025C80020EE00081C33002008B51E4B1B78242B76
:1025D8000BD00A2B1BD01C4A1278012A25D00122C5
:1025E80018491A4805F009F808BD174A1278002A50
:1025F800EFD117490A68501C086016498B5401220C
:10260800114B1A700F49114804F0F7FFECE70E4A16
:102618001278012ADFD10E490A68501C08600D495A
:102628008B54094B02221A70DEE709490A68501CCC
:10263800086008498B5401220249044804F0DDFF70
:10264800D2E700BF042A0020242B00201C330020DE
:10265800002A0020C02A002010B50024094B1C6065
:1026680064222146084807F0C5FA084B1C7001226D
:102678000749084804F0C1FF044B1B78022BFBD123
:10268800014810BD002A0020C02A0020242B002069
:10269800042A00201C3300202DE9F04707F075FAC2
:1026A80080468946FEF73AFA8246154B83FB00239B
:1026B800C617C6EB63163046FDF716FF04460D46EF
:1026C800642000FB16A0FDF70FFF06460F46504694
:1026D800FDF70AFF02460B4640464946FDF7B6FDA0
:1026E80002460B4630463946FDF7B2FD0022054B3F
:1026F800FEF78EF822462B46FDF7AAFDBDE8F087C7
:102708001F85EB5100004E402DE9F04F89B004467B
:102718007748FFF7ADFE2046FFF7AAFE7549204629
:1027280007F01AFB744D05F14B0ACDF818A005F116
:102738004103059305F13706049605F13603039323
:1027480005F12207029705F12103019305F10D0414
:10275800009405F10C032A46684907F073FA2046ED
:10276800FFF79AFF664C04F10C09FEF71FFA0622E0
:102778004946FFF7C3FE3846FFF78EFF04F12008ED
:10278800FEF714FA06224146FFF7B8FE304607F076
:10279800FCF902460B465B4EC6E9002352A3D3E977
:1027A8000023FDF70BFF02460B46574EC6E90023F0
:1027B80004F13407FEF7FAF901223946FFF79EFEC5
:1027C800284607F0E2F9FEF7A9F9504D85FB0032DB
:1027D800C317C3EB6212642101FB12024C4EB260B4
:1027E8004C4A82FB00C1C3EB213242F2107C0CFB45
:1027F800120285FB02E0D217C2EB60127260C3EBD3
:1028080021300730306000222146FFF74DFE4FF09F
:102818003A0B84F802B00022E11C7068FFF744FE0E
:1028280084F805B00022A11DB068FFF73DFE5046B0
:1028380007F0ABF9FEF772F985FB0063C217C2EB2C
:102848006313642101FB130303F5FA63324EB3608B
:10285800304B83FB0031C2EB213342F2107C0CFB7E
:10286800130385FB0305DB17C3EB65137360C2EB2A
:102878002130306004F1480A00225146FFF714FE67
:102888002F2584F84A50002204F14B017068FFF7A5
:102898000BFE84F84D50002204F14E01B068FFF79A
:1028A80003FE4846FFF7E4FD1C4D2846FFF7E0FD10
:1028B8004046FFF7DDFD2846FFF7DAFD2046FFF723
:1028C800D7FD2846FFF7D4FD5046FFF7D1FD28462F
:1028D800FFF7CEFD3846FFF7CBFD1148FFF7C8FDDF
:1028E80009B0BDE8F08F00BF6F1283C0CAA1FD3FD9
:1028F80054EE000868EE0008682A002070EE000810
:10290800082A0020402B0020382B00201F85EB517F
:10291800282B0020AD8BDB685C2A002014E7000818
:10292800B0EE000810B582B00022ADF804204000D7
:1029380000F07E008DF804008DF80510084C102179
:10294800204602F04AFC6423022201A9054803F04C
:1029580048FE01221021204602F03FFC02B010BDC3
:1029680000080140F828002070B586B08DF80F00E7
:1029780000228DF817208DF81620C3B25B0003F0F3
:102988007E0343F080038DF80F30114C1021204650
:1029980002F023FC0F4D6426009601230DF1170267
:1029A8000DF10F01284603F0F8FE009601230DF102
:1029B80017020DF11601284603F0EFFE012210213F
:1029C800204602F00AFC9DF8170006B070BD00BF53
:1029D80000080140F828002008B50F210120FFF762
:1029E800A1FF08BD38B504460D46FFF7BDFF40EA14
:1029F8000501C9B22046FFF795FF38BD38B5044632
:102A08000D46FFF7B1FF20EA0501C9B22046FFF7DE
:102A180089FF38BD08B510B1012805D008BD0321CC
:102A28001420FFF7EBFFF9E71420FFF79DFF10F0E4
:102A3800030FF3D103211420FFF7D4FFEEE708B505
:102A4800FFF7CAFF80212A20FFF76CFFA9212B205E
:102A5800FFF768FFE8212D20FFF764FF03212C20F2
:102A6800FFF760FF70212620FFF75CFF402115204B
:102A7800FFF758FF3D211120FFF754FF0120FFF712
:102A8800C9FF08BD2DE9F04707468A46154699460D
:102A98000C2817D00E2819D110264FF0120848F02C
:102AA80080010220FFF73EFF80210420FFF7A6FFE8
:102AB80080210A20FFF796FF00210120FFF732FF4F
:102AC80000240DE030264FF07708E8E70026B046EE
:102AD800E5E71AF804100920FFF724FF0134A4B22F
:102AE800ABB2A342F5D839460120FFF71BFF0C2FE4
:102AF80016D04FF4FA640420FFF736FF0546013C70
:102B0800A4B224B110F0010F01D10642F3D0802104
:102B18000D20FFF773FF44B902252846BDE8F0876A
:102B280080210D20FFF75EFFE3E70620FFF71CFF7B
:102B380010F01B0F2CD108EA050515F0010500D08F
:102B480001250C2FE9D10A20FFF70EFF06460C20BD
:102B5800FFF70AFF10F0070009D0731E00EBC3004F
:102B6800089B18803EB1102E06D9102604E0F30009
:102B7800089A1380F6E701260024B3B2A342CCD901
:102B88000920FFF7F1FE09F804000134A4B2F4E7C4
:102B98000225C2E730B585B005460C4607210D2051
:102BA800FFF7C0FE25700DF10E03009323460122A6
:102BB80021460C20FFF766FF28B9BDF80E30102B10
:102BC80002D0022000E0022005B030BD10B584B06C
:102BD800044600210D20FFF7A5FE93232370202330
:102BE80063700DF10E0300932346022221460C2048
:102BF800FFF748FF68B104B010BDA15C4B40DBB2E1
:102C08000132D2B2032AF8D9A25C9A42F3D0022048
:102C1800F1E703460246F5E7F8B507460D461646BE
:102C280004210520FFF7EAFE80210A20FFF7DAFEDB
:102C3800002405E0395D0920FFF774FE0134E4B291
:102C4800AC42F7D303210120FFF76CFEFF240520D7
:102C5800FFF78AFE631E13F0FF0402D010F0040F82
:102C6800F5D02220FFF780FE30702120FFF77CFE90
:102C78007070F8BD00B585B050238DF8083000237A
:102C88008DF809300DF10A02022102A8FFF7C4FFEE
:102C98000DF10E03009302AB042219460C20FFF736
:102CA800F1FE05B05DF804FB38B504460146262060
:102CB800FFF770FF054618B1FFF7DCFF284638BD5F
:102CC8002046FFF783FF0546F6E7000010B50446E7
:102CD800FDF7B0FA642382B22146024804F044FAB0
:102CE80010BD00BF8C3200202DE9F04106460F468A
:102CF80015462A4C2046FDF79DFA0246002120463B
:102D080006F078FF264C2046FDF794FA024600218B
:102D1800204606F06FFF234B00221A6001F0F2FCF8
:102D28000446DFF8848001222049404604F065FC0F
:102D38003046FDF77FFA642382B23146404604F0FC
:102D480013FA3046FFF794FB02E0322001F0E0FC72
:102D580001F0D8FC001BA842F7D9114D2846FDF711
:102D680069FA02460D4C2946204606F035FF2046F2
:102D7800FFF77EFB3946204606F0EEFF20B1012022
:102D88000B4B1870BDE8F0812046FDF753FA024658
:102D98000021204606F02EFF0020F3E7182C002023
:102DA800482B0020142C00208C320020102C0020EE
:102DB8000400002010B5114A1368591C116010480E
:102DC800104A1278C254104906F0C6FF18B10B4BCE
:102DD8001B68022B05D001220A490C4804F00DFC9F
:102DE80010BD074C2046FDF725FA02460021204673
:102DF80006F000FF014B00221A60ECE7142C0020BB
:102E0800482B0020102C002018EF00088C320020DE
:102E180008B50248FFF72CFBFEE700BFB4EE000838
:102E280010B5264C01224FF48051204602F0D5F906
:102E3800322001F06DFC00224FF48051204602F050
:102E4800CCF9322001F064FC01224FF48051204675
:102E580002F0C3F9322001F05BFC00224FF48051EC
:102E6800204602F0BAF9322001F052FC1448FFF76C
:102E7800FFFAC82213491448FFF736FF012817D173
:102E8800642001F045FCC8220E491048FFF72CFFCA
:102E980001280FD1642001F03BFCC8220C490D48E1
:102EA800FFF722FF012807D1642001F031FC10BD93
:102EB800FFF7AEFFFFF7ACFFFFF7AAFF00080140DE
:102EC800C0EE0008D0EE0008D8EE0008E0EE0008DA
:102ED80024EF0008E8EE000810B5C82208490948A0
:102EE800FFF702FF012808D1074C04F10C0207493B
:102EF800074806F0A7FE207B10BDFFF789FF00BF3B
:102F080018EF0008F4EE00080800002000EF0008A1
:102F1800182C002070B58EB004460E460025019589
:102F28002E22294602A806F065FEADF800501A23A5
:102F38008DF800302246134901A806F063FEC82226
:102F480011491248FFF7D0FE012815D1642001F07D
:102F5800DFFBC8220E4901A8FFF7C6FE01280DD1E4
:102F68003046FFF7B3FEC82207496846FFF7BCFEA4
:102F7800012805D10EB070BDFFF74AFFFFF748FFE3
:102F8800FFF746FF0CEF0008D0EE00081CEF000822
:102F980028EF0008034B1A6800235362536A8342E0
:102FA800FCD37047B431002000B585B000230093EE
:102FB8000193029303930091012301930223039346
:102FC800694601F0E3FF05B05DF804FB00B585B084
:102FD800002300930193029303930091012302932A
:102FE800694601F0D3FF05B05DF804FB10B50F4C3E
:102FF80008212046FFF7D8FF00220821204602F0CA
:10300800ECF84FF4F070FFF7C5FF08212046FFF7F2
:10301800DDFF5020FFF7BEFF0821204602F0D6F85A
:103028004FF4C870FFF7B6FF012010BD0010014033
:1030380070B5064608211A48FFF7B6FF002411E0CC
:10304800174D08212846FFF7AFFF00220821284620
:1030580002F0C3F83220FFF79DFF08212846FFF74A
:10306800B5FF0134072C19DC46FA04F313F0010FFD
:10307800E6D00B4D08212846FFF796FF00220821CD
:10308800284602F0AAF80120FFF784FF0821284605
:10309800FFF79CFF3220FFF77DFFE2E770BD00BF1E
:1030A8000010014070B508211448FFF78FFF002574
:1030B8002E4603E03220FFF76DFF0135072D1BDC9C
:1030C8000E4C08212046FFF76FFF002208212046FA
:1030D80002F083F80120FFF75DFF08212046FFF783
:1030E80075FF0821204602F071F80028E2D001237C
:1030F800AB401E43F6B2DDE7304670BD001001401C
:1031080010B5FFF773FF04E01648FFF7B1F9FFF7B2
:103118006DFF0128F8D101F0FBFACC20FFF788FFFA
:103128004420FFF785FF4FF4487001F0F1FAFFF7EC
:103138005DFF012001F0ECFACC20FFF779FFBE20FB
:10314800FFF776FFFFF7AEFF0446FFF7ABFF44EA51
:10315800002080B2FDF730FE4FF07651FDF784FE77
:1031680010BD00BF38EF000830B585B0C82422462E
:103178000021274806F03EFD224626492648FFF74B
:10318800B3FD01283AD1642001F0C2FA234A204C49
:10319800234B9B680093936812692249204606F0E6
:1031A80031FDC82220492046FFF79EFD012828D17D
:1031B800642001F0ADFA164CC8220021204606F022
:1031C80019FD174B9988154A9089184D0395184D84
:1031D8000295019000911B6812691649204606F075
:1031E80011FD40F2DC5214492046FFF77DFD01280D
:1031F8000AD1642001F08CFA05B030BDFFF708FE53
:10320800C1E7FFF705FED3E7FFF702FEF1E700BFCE
:10321800E02C002058EF00086CEF00081800002090
:10322800300000207CEF0008D0EE0008CCEF00084A
:10323800F4EF000898EF00080CF000082DE9F04FB3
:1032480083B081460F46FCF7F5FF82463846FCF707
:10325800F1FF8046224CC8252A460021204606F068
:10326800C9FC204E534632691F49204606F0CAFC65
:10327800DFF878B02A4659462046FFF735FDDFF8D3
:1032880070A02A4651464846FFF72EFD2A460021DF
:10329800204606F0AFFC434632691649204606F040
:1032A800B1FC2A4659462046FFF71EFD2A465146DC
:1032B8003846FFF719FD2A460021204606F09AFCF9
:1032C800B3890093736932690B49204606F09AFC6A
:1032D8002A460A492046FFF707FD03B0BDE8F08FEC
:1032E800E02C00201800002024F0000828EF000837
:1032F800D0EE00083CF0000854F000086CF000081C
:1033080008B500F04FF908BD08B500F00DFA08BD82
:1033180008B500F013FA08BD08B500F05BFA08BD5F
:1033280008B500F0B9FA08BD014B00221A707047C1
:10333800A92D0020014B1878704700BFA92D002047
:1033480000B583B08DF80700074803F048FB012853
:10335800FAD14FF47A7301220DF10701024803F004
:1033680040F903B05DF804FBA829002008B5002245
:103378000221024801F031FF08BD00BF000C0140E6
:1033880008B501220221024801F027FF08BD00BF4D
:10339800000C014000B585B0FF238DF80F300023E5
:1033A8008DF80E300A4803F01AFB0128FAD14FF4C1
:1033B8007A73009301230DF10E020DF10F010448F9
:1033C80003F0EBF99DF80E0005B05DF804FB00BFB3
:1033D800A829002010B582B0FFF7D2FF002403E02F
:1033E800FF20FFF7ADFF0134092CF9DDFFF7BEFF21
:1033F80040238DF8003000248DF801408DF80240FC
:103408008DF803408DF8044095238DF8053007E0CA
:1034180004F108036B4413F8080CFFF791FF01341B
:10342800052CF5DD41F6FF74FFF7B4FF012802D043
:103438000CB1013CF8E7FFF7A3FFFF20FFF780FF7F
:10344800024B01221A7002B010BD00BFA92D002046
:1034580008B5074B32221A70FFF79CFFFFF79AFF57
:10346800FF2803D0024B1B78002BF7D108BD00BF03
:10347800B033002038B504460D46FFF7E9FFFF28B2
:1034880001D0FF2038BD2046FFF75AFF280EFFF76E
:1034980057FFC5F30740FFF753FFC5F30720FFF7B2
:1034A8004FFFE8B2FFF74CFF402C11D00020482C0A
:1034B80010D0FFF745FF4C2C0ED00A24FFF76AFF07
:1034C80010F0800FDED0631E13F0FF04F6D1D9E7A9
:1034D8009520ECE78720ECE7FFF75CFFEDE710B5F8
:1034E8000446FFF757FF207010BD000070B5044672
:1034F8000E460F4B0A221A70FFF74CFFFF2803D124
:103508000B4B1B78002BF7D1FE280FD1651C2046EA
:10351800FFF7E5FF28460234FFF7E1FF023EF5D149
:10352800FFF738FFFFF736FF012070BD0020FCE7EA
:10353800AE33002070B505460C46FFF789FFFF281B
:1035480001D0002070BD00262046FFF7F9FEFD2CB3
:103558001FD034462878FFF7F3FE68780235FFF766
:10356800EFFE631E13F0FF04F4D1FFF713FFFFF71C
:1035780011FF402C09D8FFF70DFF064600F01F0386
:10358800052B02D0631CDCB2F3E7FFF703FF00282A
:10359800FBD006F01F06052E01D00020D2E701203F
:1035A800D0E70000002840F0B68030B583B05B4B10
:1035B8001B7813F0020404D0584B1878C0B203B03B
:1035C80030BDFFF707FFFFF7D1FE00214020FFF7CE
:1035D80051FF0546012811D0514B1C70FFF7D0FE52
:1035E800FFF7D8FE002C00F093804C4A137803F0C4
:1035F800FE031370494B1878C0B2E0E7494B6422C8
:103608001A704FF4D5714820FFF734FF012846D1CE
:10361800254608E0FFF7BEFE05F108036B4403F8F2
:10362800040C0135EDB2032DF4D99DF80630012BB9
:10363800D2D19DF80730AA2BCED102E0394B1B78A6
:1036480063B100217720FFF715FF0128F6D84FF066
:1036580080416920FFF70EFF0028EFD1314B1B781E
:1036680003F0FF020BB91446B6E700217A20FFF7F2
:1036780001FF05460028AFD1032D09D8FFF78AFEC0
:1036880005F108036B4403F8040C0135EDB2F3E7C8
:103698009DF8043013F0400F38D006249CE7002131
:1036A8007720FFF7E7FE012810D800216920FFF7EF
:1036B800E1FE01280AD8022508E000217720FFF75B
:1036C800D9FE012811D9174B1B783BB1022DF4D034
:1036D80000214120FFF7CEFE0028F4D1114B1B78C2
:1036E80003F0FF0243B9144676E700216920FFF78B
:1036F800C1FE0028E7D1F1E74FF400715020FFF731
:10370800B9FE00287FF468AF2C4665E7022463E71A
:10371800FFF70AFE6EE70120704700BF5000002047
:10372800A82D0020AE33002018B9034B1878C0B27A
:1037380070470120704700BF5000002000283ED18C
:1037480070B50D4616461C46002B3AD01F4B1B7809
:1037580013F0010F37D11E4B1B7813F0040F00D163
:103768005602FFF703FE012C1AD031465220FFF70C
:1037780081FE68B94FF400712846FFF7B7FE18B10B
:1037880005F50075013CF5D100214C20FFF772FECC
:10379800FFF7F6FDFFF7FEFD201E18BF012070BDE4
:1037A80031465120FFF766FE0028F1D14FF4007131
:1037B8002846FFF79BFE0028EAD00024E8E704200B
:1037C80070470420EBE70320E9E700BF5000002022
:1037D800A82D0020002852D170B50D4616461C466B
:1037E800002B4ED02A4B1B7813F0010F4BD1284BDE
:1037F8001B7813F0040F48D1264B1B7813F0040FE5
:1038080000D15602FFF7B2FD012C1FD0214B1B78C7
:1038180013F0020F28D131465920FFF72BFE68B963
:10382800FC212846FFF786FE18B105F50075013C16
:10383800F6D1FD210020FFF77DFEF0B1FFF7A0FDD6
:10384800FFF7A8FD201E18BF012070BD3146582083
:10385800FFF710FE0028F1D1FE212846FFF76AFE87
:103868000028EBD00024E9E700217720FFF702FECB
:1038780021465720FFF7FEFDCDE70124DEE70420AF
:1038880070470420E1E70320DFE70220DDE700BFFF
:1038980050000020A82D002070B584B0002840F00A
:1038A800B7800D4616460446052913D05A4B1C7896
:1038B80014F0010440F0AE80FFF758FD0D2D00F222
:1038C8009B80DFE805F063205F9999999999999908
:1038D800996978871578012D0ED0022D0FD00DB17A
:1038E80004248EE0FFF726FD0446002800F08980B6
:1038F800FFF71AFD2C4684E0FFF76CFD81E0FFF727
:1039080019FD70707DE000214920FFF7B3FD0446E2
:1039180008B12C4671E010216846FFF7E7FD002842
:1039280072D09DF800309B09012B1FD09DF805200F
:1039380002F00F029DF80A3002EBD3129DF809300D
:103948005B0003F006031A449DF808309DF8071041
:103958009B0903EB81039DF80610890201F440617D
:103968000B440133073A9340336046E09DF8093031
:103978009DF8082003EB02239BB201339BB29B0204
:1039880033603AE04FF40073338036E0FFF760FDB0
:10399800FF283BD0012430E000214920FFF76AFDD1
:1039A800044608B1012428E010213046FFF79EFDA7
:1039B80018BB012421E000214A20FFF75BFD0446E3
:1039C80008B1012419E010213046FFF78FFDA0B996
:1039D800012412E000217A20FFF74CFD044638B19B
:1039E80004240AE0FFF7D6FC06F8010B0134E4B220
:1039F800032CF7D9042400E00424FFF7C1FCFFF7E7
:103A0800C9FC204604B070BD2C46F6E72C46F4E706
:103A18000424F6E70324F4E75000002008B530B981
:103A280000214FF48062034806F0E4F808BDFF2146
:103A3800F7E700BFB42D00207F2815D83F2913D8F9
:103A4800104B1B7913B1B2FA82F25209012A0CD039
:103A5800CB0800EBC31001F0070101238B400A4A91
:103A6800115C21EA030111547047CB0800EBC31025
:103A780001F0070101238B40034A115C19431154DB
:103A8800704700BFAC2D0020B42D00202DE9F04F69
:103A980083B08346884692461E46BDF9303001936E
:103AA800BDF83430009316F1070904D44FEAE90948
:103AB80000273D462CE009F10709F7E709FB07F164
:103AC8001A46002B12DB42F3CF020A441AF80250BE
:103AD80015F0800F0CD1631C1BB2B34212DA9CB2F2
:103AE80013F0070FEAD06D00EDB2F1E7DA1DEAE74F
:103AF80004EB0B009DF800201FFA88F180B2FFF755
:103B08009BFFE8E701373FB208F101080FFA88F890
:103B1800019B9F4201DA0023DFE703B0BDE8F08F85
:103B2800014B188059807047AC2D00202DE9F843CF
:103B38009046244B1B880A7813447F2B3EDC814631
:103B48000D46204B5B884A7813443F2B38DC00260F
:103B580020E01C4B1888598831442044B8FA88F270
:103B6800520989B280B2FFF767FF01342B78A3426C
:103B78000FD907FA04F313F4004FEAD0114B188851
:103B8800598831442044424689B280B2FFF754FF35
:103B9800EBE701366A78B24208D96968A9F12003CF
:103BA80002FB036331F813700024DFE72B78054A22
:103BB80011880B4413804846BDE8F8830020FBE7D2
:103BC8000020F9E7AC2D002070B504460E461546D6
:103BD80000E00134207838B12A463146FFF7A6FFC5
:103BE800034620788342F4D070BD000000B5C3B00E
:103BF8008DF808104FF0000C09E00CF1010E12F8D6
:103C08000C100DF1080C0CF80E105FFA8EFC1FFA60
:103C18008CFE9E45F1D301330A2200929BB202AA80
:103C28000146034801F09AFE43B05DF804FB00BF6B
:103C38009028002000B585B08DF80C108DF80D2067
:103C48000A230093022303AA0146034801F086FED3
:103C580005B05DF804FB00BF9028002010B50024D3
:103C68001AE0A4F15002D2B200217820FFF7E2FF57
:103C7800002211467820FFF7DDFF1022002178206E
:103C8800FFF7D8FF8023064A02EBC41240217820B0
:103C9800FFF7ACFF0134E4B2072CE2D910BD00BF36
:103CA800B42D002008B50020FFF7B8FEFFF7D6FFB7
:103CB80008BD000008B544F6206301227821554864
:103CC80001F008FF002840F0A38040F6C41300E08C
:103CD800013B002BFCD1AE2200217820FFF7AAFF80
:103CE800202200217820FFF7A5FF1022002178204C
:103CF800FFF7A0FFB02200217820FFF79BFFC82222
:103D080000217820FFF796FF002211467820FFF760
:103D180091FF102200217820FFF78CFF402200211C
:103D28007820FFF787FF812200217820FFF782FFA4
:103D3800FF2200217820FFF77DFFA12200217820B3
:103D4800FFF778FFA62200217820FFF773FFA8224B
:103D580000217820FFF76EFF3F2200217820FFF72F
:103D680069FFA42200217820FFF764FFD3220021F5
:103D78007820FFF75FFF002211467820FFF75AFFEF
:103D8800D52200217820FFF755FFF0220021782066
:103D9800FFF750FFD92200217820FFF74BFF22229E
:103DA80000217820FFF746FFDA2200217820FFF76C
:103DB80041FF122200217820FFF73CFFDB2200217F
:103DC8007820FFF737FF202200217820FFF732FF05
:103DD8008D2200217820FFF72DFF14220021782062
:103DE800FFF728FFAF2200217820FFF723FF2E22BC
:103DF80000217820FFF71EFF0020FFF70FFEFFF7D6
:103E08002DFF054B00221A805A800120587108BDE9
:103E18000020FCE790280020AC2D002000B587B0DA
:103E28000023029303930493059300930193154889
:103E3800154A02604722426083604FF6FF72C260F3
:103E480003614361836102F07BFF90B94FF48053B3
:103E5800029302A90B4802F0ABFF68B90023009354
:103E680001936946074803F023F840B907B05DF8A5
:103E780004FBFDF797FAE9E7FDF794FAEEE7FDF79B
:103E880091FAF3E7B4310020002C014000B587B067
:103E98000023029303930493059300930193164818
:103EA8004FF08042026041F61F424260836041F257
:103EB8008832C2600361836102F042FF90B94FF417
:103EC8008053029302A90C4802F072FF68B90023DC
:103ED800009301936946084802F0EAFF40B907B029
:103EE8005DF804FBFDF75EFAE9E7FDF75BFAEEE73C
:103EF800FDF758FAF3E700BFFC31002000B587B0A2
:103F080000230293039304930593009301931548A8
:103F1800154A026041F61F42426083604EF66022F5
:103F2800C2600361836102F00BFF90B94FF48053C4
:103F3800029302A90B4802F03BFF68B900230093E3
:103F480001936946074802F0B3FF40B907B05DF82E
:103F580004FBFDF727FAE9E7FDF724FAEEE7FDF79A
:103F680021FAF3E7443200200004004000B585B090
:103F780003681F4A934208D0B3F1804F10D01D4AFE
:103F8800934221D005B05DF804FB1B4B9A6942F4BB
:103F980000629A619B6903F400630193019BF1E756
:103FA80003F50433DA6942F00102DA61DB6903F0F0
:103FB80001030293029B002211461C2001F0FEF926
:103FC8001C2001F033FADDE70B4BDA6942F00202FC
:103FD800DA61DB6903F002030393039B00220121EA
:103FE8001D2001F0EBF91D2001F020FACAE700BFFF
:103FF800002C0140000400400010024008B50A48A7
:104008000A4B03604FF41653436000238360C36078
:1040180003610C2242618361C36103F075F800B942
:1040280008BDFDF7BFF9FBE71C330020004C00403A
:1040380008B50A480A4B03604FF4E1334360002394
:104048008360C36003610C2242618361C36103F032
:104058005BF800B908BDFDF7A5F9FBE7643300205C
:104068000050004008B50A480A4B03604FF4E1339A
:10407800436000238360C36003610C224261836153
:10408800C36103F041F800B908BDFDF78BF9FBE700
:104098008C3200200038014008B50A480A4B0360FA
:1040A8004FF41653436000238360C36003610C22FE
:1040B80042618361C36103F027F800B908BDFDF7C9
:1040C80071F9FBE7D43200200044004070B58EB08F
:1040D80000230A930B930C930D930368694A934248
:1040E8000BD0694A93423AD0684A934268D0684AEA
:1040F800934200F097800EB070BD664BDA6942F4C7
:104108000022DA61DA6902F400220192019A9A69BE
:1041180042F010029A619B6903F010030293029B1C
:104128004FF480630A9302230B9303250D955A4E8F
:104138000AA9304600F02AFF4FF400630A930024CE
:104148000B940C940AA9304600F020FF2246294619
:10415800342001F033F9342001F068F9CBE74D4BF6
:10416800DA6942F48012DA61DA6902F480120392A1
:10417800039A9A6942F010029A619A6902F0100251
:104188000492049A9A6942F020029A619B6903F0AA
:1041980020030593059B4FF480530A9302230B9346
:1041A80003230D930AA93C4800F0F0FE04230A9368
:1041B80000230B930C930AA9384800F0E7FE9AE70E
:1041C800344B9A6942F480429A619A6902F48042B7
:1041D8000692069A9A6942F004029A619B6903F072
:1041E80004030793079B4FF400730A9302250B956A
:1041F80003230D932A4E0AA9304600F0C7FE4FF458
:1042080080630A9300240B940C940AA9304600F0AA
:10421800BDFE22462946252001F0D0F8252001F0D0
:1042280005F968E71B4BDA6942F40032DA61DA69AA
:1042380002F400320892089A9A6942F004029A61DC
:104248009B6903F004030993099B04230A9302233F
:104258000B9303230D93124D0AA9284600F096FEEE
:1042680008230A9300240B940C940AA9284600F00A
:104278008DFE22462146262001F0A0F8262001F0D6
:10428800D5F838E7004C00400050004000380140A5
:10429800004400400010024000100140001401409A
:1042A800000801400A4B1B889BB22BB1084A1388AF
:1042B8009BB2013B9BB21380064B1B889BB22BB170
:1042C800044A13889BB2013B9BB21380704700BF1E
:1042D800AE330020B0330020FEE7FEE7FEE7FEE73E
:1042E800FEE770477047704708B5094A13780133ED
:1042F800DBB213701378DBB2092B02D800F0F6F9A1
:1043080008BD134600221A70FFF7CCFFF6E700BF7E
:10431800AC33002008B5024802F008FC08BD00BF15
:10432800FC31002008B5024802F000FC08BD00BFBF
:104338004432002008B5024803F000F808BD00BF69
:104348008C32002008B5024802F0F8FF08BD00BF13
:10435800D432002008B5024801F0DCFF08BD00BFD8
:10436800E428002008B5024802F0E8FF08BD00BFB5
:104378001C33002082B00E4B9A6942F001029A6108
:104388009A6902F001020092009ADA6942F08052BA
:10439800DA61DB6903F080530193019B054A536896
:1043A80023F0E06343F00073536002B0704700BF2E
:1043B800001002400000014030B482B00022019297
:1043C80090F82420012A00F091800346012280F809
:1043D80024204A68062A2DD80468606B02EB820202
:1043E800053A4FF01F0C0CFA02FC20EA0C000D688D
:1043F80005FA02F2024362630A68092A3AD91C687C
:10440800E06802EB42021E3A4FF0070C0CFA02FC7D
:1044180020EA0C008D6805FA02F20243E2600A689D
:10442800103A012A36D90020002283F8242002B04D
:1044380030BC70470C2A0ED80568286B02EB820244
:10444800233A1F24944020EA04000C6804FA02F27C
:1044580002432A63D0E70568E86A02EB8202413A20
:104468001F24944020EA04000C6804FA02F2024374
:10447800EA62C1E71C68206902EB42024FF0070CB0
:104488000CFA02FC20EA0C008D6805FA02F20243DD
:104498002261C4E71A681648824205D09A6A42F037
:1044A80020029A620120BFE7906810F4000F1BD128
:1044B800906840F4000090600A68102A01D000203B
:1044C800B2E70C4A12680C49A1FB0212920C02EBEB
:1044D80082025200019202E0019A013A0192019A85
:1044E800002AF9D100209FE700209DE702209EE7DF
:1044F800002401406400002083DE1B4338B50368B4
:104508009A6812F0010F01D1002038BD04469A685C
:1045180022F001029A6000F0F5F8054623689B68CE
:1045280013F0010F13D000F0EDF8431B022BF5D95F
:1045380023689B6813F0010FF0D0A36A43F01003BF
:10454800A362E36A43F00103E3620120DDE7002090
:10455800DBE70000002800F0888070B50446836A15
:10456800002B52D02046FFF7C9FFA36A13F01003AF
:1045780075D1002873D1A26A22F4885222F002026F
:1045880042F00202A2626268266839498E4242D02D
:10459800E1690A43217B42EA4102A568B5F5807FBB
:1045A80002D0012D3ED01D4694F814C0BCF1010F75
:1045B8003BD0716821F46941294371602568AE6870
:1045C8002C4931401143A960A168B1F5807F01D021
:1045D800012902D12369013B1B052568E96A21F4F9
:1045E80070010B43EB6223689968234B0B409A4296
:1045F8002CD0A36A23F0120343F01003A362E36AEA
:1046080043F00103E36201202EE0C36280F8243006
:10461800FDF712FDA6E7E169B1F5402FB9D14FF4D6
:104628000021B6E74FF48075BEE731B9A1690139B9
:1046380045EA413141F40065BBE7A16A41F0200138
:10464800A162E16A41F00101E162B2E70023E3629D
:10465800A36A23F0030343F00103A36204E0A36AFF
:1046680043F01003A362012070BD0120704700BF12
:10467800003C0140FDF7E1FFFE0E1FFF10B50446A8
:104688000E4B18784FF47A73B3FBF0F30C4A1068AA
:10469800B0FBF3F000F0D8FE68B90F2C01D9012067
:1046A8000AE0002221464FF0FF3000F087FE054B5C
:1046B8001C60002000E0012010BD00BF5C0000204D
:1046C800640000206000002008B5074A136843F022
:1046D80010031360032000F05FFE0F20FFF7CEFFEA
:1046E800FFF748FE002008BD00200240034A116879
:1046F800034B1B780B441360704700BFB433002092
:104708005C000020014B1868704700BFB4330020DC
:1047180038B50446FFF7F6FF0546B4F1FF3F02D06F
:10472800044B1B781C44FFF7EDFF401BA042FAD353
:1047380038BD00BF5C00002082B0084B1B68084AE7
:10474800A2FB03235B0A00FB03F3019300BF019B59
:104758005A1E0192002BF9D102B070476400002064
:10476800D34D6210002800F0F18170B582B0044684
:10477800036813F0010F2CD0994B5B6803F00C030E
:10478800042B1DD0964B5B6803F00C03082B12D04A
:104798006368B3F5803F41D0002B55D103F18043C6
:1047A80003F504331A6822F480321A601A6822F476
:1047B80080221A6037E08A4B5B6813F4803FE7D0A9
:1047C800874B1B6813F4003F03D06368002B00F08D
:1047D800BF81236813F0020F75D0814B5B6813F01B
:1047E8000C0F5FD07E4B5B6803F00C03082B54D092
:1047F8002369002B00F08A807A4B01221A60FFF7A8
:1048080081FF0546764B1B6813F0020F75D1FFF741
:1048180079FF401B0228F5D903209EE1704A1368EE
:1048280043F480331360636843B3FFF76BFF0546B7
:104838006B4B1B6813F4003FCBD1FFF763FF401BA2
:104848006428F5D9032088E1B3F5A02F09D0644B7B
:104858001A6822F480321A601A6822F480221A60D8
:10486800E1E703F18043A3F53C331A6842F4802260
:104878001A601A6842F480321A60D4E7FFF742FFE0
:104888000546574B1B6813F4003FA2D0FFF73AFFC9
:10489800401B6428F5D903205FE1514B5B6813F492
:1048A800803FA5D14E4B1B6813F0020F03D023693C
:1048B800012B40F04F814A4A136823F0F8036169DD
:1048C80043EAC1031360236813F0080F33D0A369C8
:1048D800002B5CD0434B0122C3F88024FFF712FF62
:1048E80005463F4B5B6A13F0020F21D1FFF70AFF21
:1048F800401B0228F5D903202FE1394A136823F019
:10490800F803616943EAC1031360DCE7354B002211
:104918001A60FFF7F7FE0546314B1B6813F0020FCC
:10492800D1D0FFF7EFFE401B0228F5D9032014E190
:104938000120FFF701FF236813F0040F00F09680B1
:10494800274BDB6913F0805F34D1254BDA6942F0DD
:104958008052DA61DB6903F080530193019B0125E2
:10496800214B1B6813F4807F26D0E368012B3DD0D0
:10497800002B53D103F1804303F504331A6A22F064
:1049880001021A621A6A22F004021A6233E0154B15
:104998000022C3F88024FFF7B5FE0546104B5B6A7A
:1049A80013F0020FC7D0FFF7ADFE401B0228F5D960
:1049B8000320D2E00025D3E70B4A136843F4807341
:1049C8001360FFF79FFE0646074B1B6813F4807FB2
:1049D800CBD1FFF797FE801B6428F5D90320BCE0F4
:1049E8000010024000004242007000405F4A136A13
:1049F80043F001031362E36833B3FFF783FE06460F
:104A08005A4B1B6A13F0020F2FD1FFF77BFE801B56
:104A180041F288339842F3D903209EE0052B09D050
:104A2800524B1A6A22F001021A621A6A22F0040230
:104A38001A62E0E74D4B1A6A42F004021A621A6AD7
:104A480042F001021A62D6E7FFF75CFE0646474BC2
:104A58001B6A13F0020F08D0FFF754FE801B41F2C7
:104A680088339842F3D9032077E0E5B9E369002B4E
:104A780072D03E4A526802F00C02082A56D0022B25
:104A880017D03B4B00221A66FFF73CFE0446374B13
:104A98001B6813F0007F47D0FFF734FE001B022885
:104AA800F5D9032059E0314AD36923F08053D36103
:104AB800DCE72F4B00221A66FFF724FE05462B4B36
:104AC8001B6813F0007F06D0FFF71CFE401B02286E
:104AD800F5D9032041E0236AB3F5803F1AD0234972
:104AE8004B6823F47413226A606A024313434B60D1
:104AF8001F4B01221A66FFF705FE04461B4B1B6875
:104B080013F0007F0ED1FFF7FDFD001B0228F5D939
:104B1800032022E0154A536823F40033A1680B43AD
:104B28005360DCE7002018E0002016E0012B16D0C7
:104B38000E4B5B6803F48031226A914211D103F471
:104B48007013626A93420ED1002006E0012070477C
:104B5800012002E0012000E0002002B070BD012029
:104B6800FBE70120F9E70120F7E700BF001002404A
:104B7800000042420F4B5B6803F00C02082A01D088
:104B88000D487047C3F383420C49885C13F4803F97
:104B98000BD0084B5B68C3F34043094AD35C064A11
:104BA80002FB00F0B0FBF3F07047064B03FB00F08C
:104BB800704700BF0010024000127A0018F8000881
:104BC80028F8000800093D00002800F0A08070B512
:104BD8000D460446524B1B6803F007038B420BD269
:104BE8004F4A136823F007030B431360136803F05D
:104BF80007038B4240F08D80236813F0020F17D013
:104C080013F0040F04D0474A536843F4E063536039
:104C1800236813F0080F04D0424A536843F46053E2
:104C28005360404A536823F0F003A1680B43536074
:104C3800236813F0010F31D06368012B20D0022BB9
:104C480025D0384A126812F0020F64D035494A68F4
:104C580022F0030213434B60FFF754FD0646314B25
:104C68005B6803F00C036268B3EB820F16D0FFF7A2
:104C780049FD801B41F288339842F0D9032045E072
:104C8800284A126812F4003FE0D101203EE0254A8C
:104C9800126812F0007FD9D1012037E0204B1B6841
:104CA80003F00703AB420AD91D4A136823F0070330
:104CB8002B431360136803F00703AB422DD123681D
:104CC80013F0040F06D0174A536823F4E063E16831
:104CD8000B435360236813F0080F07D0114A536839
:104CE80023F46053216943EAC1035360FFF742FF8D
:104CF8000C4B5B68C3F303130B4AD35CD8400B4BD4
:104D080018600B4B1868FFF7B9FC002070BD012034
:104D180070470120FAE70120F8E70120F6E700BF15
:104D2800002002400010024040F800086400002003
:104D380060000020014B1868704700BF6400002025
:104D480008B5FFF7F7FF044B5B68C3F30223034A78
:104D5800D35CD84008BD00BF0010024050F80008DE
:104D680008B5FFF7E7FF044B5B68C3F3C223034AA8
:104D7800D35CD84008BD00BF0010024050F80008BE
:104D880070B582B00446036813F0010F36D03F4B6C
:104D9800DB6913F0805F49D13C4BDA6942F08052FD
:104DA800DA61DB6903F080530193019B0125384BDD
:104DB8001B6813F4807F3BD0344B1B6A13F4407399
:104DC80013D0626802F440729A420ED02F4A136AD6
:104DD80023F440702F490126C1F840640026C1F829
:104DE8004064106213F0010F36D1284A136A23F485
:104DF800407361680B431362002D3ED1236813F0A2
:104E0800020F06D0214A536823F44043A1680B439C
:104E18005360236813F0100F34D01C4A536823F4EE
:104E2800800361690B43536000202CE00025BEE736
:104E3800174A136843F480731360FFF763FC064650
:104E4800134B1B6813F4807FB6D1FFF75BFC801B04
:104E58006428F5D9032016E0FFF754FC06460B4BEF
:104E68001B6A13F0020FC0D1FFF74CFC801B41F204
:104E780088339842F3D9032005E0D36923F080539F
:104E8800D361BBE7002002B070BD00BF0010024034
:104E9800007000400000424208B501380F2863D86E
:104EA800DFE800F03557622F626262326262626246
:104EB800626262082F4B5A68186810F0807054D0EC
:104EC800C2F383432C49C85C12F4803F15D0294BA8
:104ED8005B68C3F34043294AD25C294BB3FBF2F326
:104EE80003FB00F0234B5B6813F4800F3DD14000B7
:104EF800244BA3FB0030400837E0234B03FB00F0B2
:104F0800F0E7FFF737FE30E0FFF734FE2DE0194BEE
:104F18001B6A40F202321A40B2F5817F26D003F4B0
:104F28004073B3F5007F04D0B3F5407F09D000206B
:104F38001BE0104A526A12F0020FF5D049F64040C1
:104F480013E00C4B186810F400300ED04FF22440D8
:104F58000BE0FFF705FF074B5B68C3F381330133B1
:104F68005B00B0FBF3F000E0002008BD4FF4004008
:104F7800FBE700BF001002402CF800083CF80008CE
:104F880000127A00ABAAAAAA00093D0070B582B047
:104F98000024A446B0E0874DAA4210D007D9864D18
:104FA800AA420CD005F58035AA4208D013E0A5F531
:104FB8008015AA4203D005F57025AA4207D18A6850
:104FC800002A62D0012A5BD04361082403E0A5F5DA
:104FD8008015AA42F3D0BEF1FF0F58D80646BEF19D
:104FE800FF0F56D84FEA8C0233680F25954023EA05
:104FF800050304FA02F2134333604B6813F0805F31
:1050080078D06E4B9A6942F001029A619B6903F06D
:1050180001030193019B4FEA9C02951C684B53F8CE
:1050280025600CF003039D000F23AB4026EA03061E
:10503800644B984233D003F58063984200F098801F
:1050480003F58063984200F0958003F580639842E9
:1050580000F0928003F58063984200F08F8003F59A
:105068008063984219D006231AE0CC68B3E7CC686D
:105078000434B0E7CC680834ADE7CC680C34AAE750
:1050880003610824A7E70024A5E70424A3E7061D75
:10509800A5E7ACF108029200A6E7052300E000238B
:1050A800AB4033430232464D45F822304B6813F487
:1050B800801F65D0444A936843EA0E0393604B68A7
:1050C80013F4001F62D0404AD36843EA0E03D3604A
:1050D8004B6813F4003F5FD03B4A536843EA0E0322
:1050E80053604B6813F4803F5CD0374A136843EA37
:1050F8000E0313600CF1010C0A6832FA0CF357D056
:10510800012303FA0CF302EA030E33EA0202F1D197
:105118004A68122A3FF63FAF122A3FF65CAF01A554
:1051280055F822F0C74F0008735000087D5000085A
:105138008F500008DF4F0008DF4F0008DF4F0008DE
:10514800DF4F0008DF4F0008DF4F0008DF4F00087F
:10515800DF4F0008DF4F0008DF4F0008DF4F00086F
:10516800DF4F0008DF4F0008775000088350000821
:10517800012395E7022393E7032391E704238FE7AD
:10518800114A936823EA0E03936098E70E4AD3689E
:1051980023EA0E03D3609BE70B4A536823EA0E0306
:1051A80053609EE7084A136823EA0E031360A1E7D9
:1051B80002B070BD00002210000031100010024043
:1051C80000000140000801400004014083681942C2
:1051D80001D001207047002070470AB10161704773
:1051E80009040161704790F82130DBB2022B06D028
:1051F80004238363002380F820300120704702686D
:10520800136823F00E0313600268136823F0010388
:105218001360036CC16B012202FA03F34B6080F840
:105228002120002380F820301846704708B590F8F0
:105238002130DBB2022B03D004238363012008BD95
:105248000268136823F00E0313600268136823F0E2
:105258000103136003684C4A93424ED9783A93424B
:1052680024D01432934230D0143293422FD01432C7
:1052780093422FD0143293422FD0143293422FD01E
:10528800143293422FD002F5627293422ED0143218
:1052980093422DD0143293422CD01432934202D030
:1052A8004FF4803203E04FF4805200E00122374B84
:1052B8005A60012380F82130002380F82030436BA6
:1052C800002B5ED098470020B9E71022EFE74FF493
:1052D8008072ECE74FF48052E9E74FF48032E6E75A
:1052E8004FF48012E3E74FF08072E0E70122DEE737
:1052F8001022DCE74FF48072D9E7254A934224D084
:105308001432934225D01432934224D0143293425B
:1053180024D01432934224D01432934224D014322D
:10532800934224D002F56272934223D014329342FE
:1053380022D01432934221D01432934202D04FF437
:10534800803203E04FF4805200E00122114B5A6092
:10535800AFE71022FAE74FF48072F7E74FF4805274
:10536800F4E74FF48032F1E74FF48012EEE74FF0A4
:105378008072EBE70122E9E71022E7E74FF4807239
:10538800E4E700205BE700BF800002400004024021
:105398000800024000000240074AD36823F4E06393
:1053A8001B041B0C000200F4E060034343F0BF63DE
:1053B80043F40033D360704700ED00E000B5194BAB
:1053C800DB68C3F30223C3F1070CBCF1040F28BF49
:1053D8004FF0040C03F1040EBEF1060F18D9033B7D
:1053E8004FF0FF3E0EFA0CFC21EA0C0199400EFA30
:1053F80003F322EA0303194300280BDB0901C9B2AE
:1054080000F1604000F5614080F800135DF804FB8E
:105418000023E5E700F00F000901C9B2024B195457
:10542800F4E700BF00ED00E014ED00E0002807DB22
:1054380000F01F02400901239340024A42F820303D
:10544800704700BF00E100E00138B0F1807F0BD267
:105458004FF0E0235861054AF02182F8231000201C
:10546800986107221A6170470120704700ED00E03B
:10547800014B01221A62704700000E4203685A6904
:1054880012F4806F01D1002070476FF480625A6176
:1054980000230363202280F83D2080F83E30026C10
:1054A80042F00402026480F83C30012070472DE984
:1054B800F04106460C46174698463BE0FFF722F9AE
:1054C800069BC01A404502D8B8F1000F32D1012D11
:1054D80018D033689B6924EA03039BB2B3FA83F3B9
:1054E8005B099F4226D100233363202286F83D20A2
:1054F80086F83E30326C42F02002326486F83C3046
:10550800012027E033685B6924EA03039BB2B3FAFE
:1055180083F35B09E5E733685B6924EA030C1FFA48
:105528008CFCBCFA8CFC4FEA5C1C674511D1B8F1C5
:10553800FF3FC3D1C4F30745012DECD033689B6905
:1055480024EA030C1FFA8CFCBCFA8CFC4FEA5C1CA6
:10555800EBE70020BDE8F0812DE9F84305460E464B
:105568009046994653E01A6842F400721A602B6814
:105578006FF480625A6100232B63202285F83D2056
:1055880085F83E302A6C42F004022A6485F83C30E3
:1055980001204AE0FFF7B6F8A0EB0900404502D821
:1055A800B8F1000F33D1012F17D02B689B6926EA79
:1055B80003039BB2003B18BF012343B300232B63B3
:1055C800202285F83D2085F83E302A6C42F02002E2
:1055D8002A6485F83C30012027E02B685B6926EABD
:1055E80003039BB2003B18BF0123E6E72B689C69C5
:1055F80026EA0404A4B2003C18BF0124A4B12B6815
:105608005A6912F4806FAED1B8F1FF3FC2D1C6F328
:105618000747012FEAD12B685C6926EA0404A4B283
:10562800003C18BF0124E9E70020BDE8F88300002A
:10563800F0B583B004460D4616461F46C36A082BCC
:105648000DD0012B0BD013F5803F08D0036B122B24
:105658000AD10268136843F48073136004E0226877
:10566800136843F4807313600097334600224FF0A9
:1056780001112046FFF71BFF80B92369B3F5804F5E
:1056880016D1236805F0FE051D613B4632461349D5
:105698002046FFF761FFF8B903B0F0BD23681B6827
:1056A80013F4807F02D04FF4007323640320F3E7E0
:1056B800EB11226803F0060343F0F00313613B4645
:1056C800324607492046FFF747FF18B92368EDB26D
:1056D8001D61DAE70120DFE70120DDE702000100B4
:1056E8000800010070B504460D46164623685B693C
:1056F80013F0800F21D12046FFF7C0FEF8B9B5F1AD
:10570800FF3FF3D0FEF7FEFF801BA84201D8002D13
:10571800ECD123685B6913F0800FE7D10023236382
:10572800202284F83D2084F83E30226C42F020028A
:10573800226484F83C30012000E0002070BD012084
:10574800FCE770B504460D46164623685B6913F0FE
:10575800040F21D12046FFF791FEF8B9B5F1FF3FBC
:10576800F3D0FEF7CFFF801BA84201D8002DECD163
:1057780023685B6913F0040FE7D100232363202219
:1057880084F83D2084F83E30226C42F020022264E6
:1057980084F83C30012000E0002070BD0120FCE7C7
:1057A800002800F0CC8070B5044690F83D30002BFE
:1057B80077D0242384F83D302268136823F001034E
:1057C80013602268136843F4004313602268136867
:1057D80023F400431360FFF7B3FA62685A4B9A4206
:1057E80064D85A4B98428CBF00230123002B40F009
:1057F800A8805749A1FB00318B0C25686A6822F004
:105808003F0242EA91426A6021680A6A22F03F0236
:1058180066684D4DAE424FD8013313430B62216881
:10582800CA6922F44F4222F0FF026668464B9E4244
:105838004CD8431E7600B3FBF6F3013340F6FC70F8
:10584800034278D0C3F30B031343CB6121680B6881
:1058580023F0C003E269206A024313430B60216806
:105868008B6823F4034323F0FF032269E0680243B3
:1058780013438B602168CB6823F0FF036269A0693A
:1058880002431343CB602268136843F0010313609B
:1058980000202064202384F83D30206384F83E00F3
:1058A80070BD80F83C30FCF737FC82E7294B984202
:1058B8008CBF0023012399E74FF4967505FB03F38A
:1058C800254DA5FB03539B090133A6E7A368BBB984
:1058D800451E06EB460CB5FBFCF50135C5F30B057B
:1058E800B5FA85F56D0945BBC3B9013806EB460322
:1058F800B0FBF3F30133C3F30B0343F40043A3E713
:10590800451E06EB860C0CEB8C0CB5FBFCF5013543
:10591800C5F30B05B5FA85F56D09E4E7013806EB23
:10592800860303EB8303B0FBF3F30133C3F30B03E9
:1059380043F4404388E7042386E7012384E70120F2
:1059480070470120ACE700BFA08601007F841E00DD
:1059580083DE1B43FF083D00D34D62102DE9F04361
:1059680085B004460F46914698460C9EFEF7CAFE3F
:10597800054694F83D00C0B2202804D002273846D6
:1059880005B0BDE8F0830095192301224F49204650
:10599800FFF78DFD002840F0928094F83C30012BF1
:1059A80000F08F80012384F83C3023681A6812F0D5
:1059B800010F03D11A6842F001021A6022681368C5
:1059C80023F400631360212384F83D30102384F806
:1059D8003E3000232364C4F82490A4F82A80638D01
:1059E80023853B4BE3622B46324639462046FFF778
:1059F8001FFE0746002866D10023039323685A69CF
:105A080003929B690393039B11E0236C042B01D041
:105A18000127B4E72268136843F400731360F7E7BB
:105A28002A4631462046FFF78CFE00282ED1238DCA
:105A3800002B36D02A4631462046FFF753FE002871
:105A4800E3D1626A236812781A61606A431C636250
:105A5800618D89B2013989B26185238D013B9BB281
:105A680023852268516911F0040FD9D0002BD7D0B3
:105A780043781361636A01336362638D9BB2013BB0
:105A88009BB26385238D013B2385C9E7236C042BD7
:105A980001D0012773E72268136843F40073136089
:105AA800F7E72268136843F400731360202384F82F
:105AB8003D30002384F83E3084F83C305FE702270D
:105AC8005DE702275BE7012759E700BF02001000E6
