:020000040800F2
:1000000000C00020F55200084D2700084F270008C7
:10001000512700085327000855270008000000005A
:10002000000000000000000000000000572700084A
:1000300059270008000000005B2700085D27000822
:100040003D5300083D5300083D5300083D53000850
:100050003D5300083D5300083D5300083D53000840
:100060003D5300083D5300083D5300083D53000830
:100070003D5300083D5300083D5300083D53000820
:100080003D5300083D5300083D5300083D53000810
:100090003D5300083D5300083D5300083D53000800
:1000A0003D5300083D5300083D5300083D530008F0
:1000B0003D530008892700083D5300083D530008C0
:1000C0003D5300083D5300083D5300083D530008D0
:1000D0003D530008992700083D5300083D53000890
:1000E0003D5300083D5300083D5300083D530008B0
:1000F0003D5300083D5300083D5300083D530008A0
:100100003D5300083D5300083D5300083D5300088F
:10011000A92700083D5300083D5300083D5300083F
:100120003D5300083D5300083D5300083D5300086F
:1001300000000000000000000000000000000000BF
:1001400000000000000000000000000000000000AF
:10015000000000000000000000000000000000009F
:10016000000000000000000000000000000000008F
:10017000000000000000000000000000000000007F
:10018000000000000000000000000000000000006F
:10019000000000000000000000000000000000005F
:1001A000000000000000000000000000000000004F
:1001B000000000000000000000000000000000003F
:1001C000000000000000000000000000000000002F
:1001D000000000000000000000000000000000001F
:0401E0005FF8E0F1F3
:1001E80010B5054C237833B9044B13B10448AFF369
:1001F80000800123237010BDF801002000000000DA
:10020800449A000808B5034B1BB103490348AFF3F0
:10021800008008BD00000000FC010020449A00088E
:10022800034613F8012B002AFBD1181A013870472E
:1002380081F0004102E000BF83F0004330B54FEA8F
:1002480041044FEA430594EA050F08BF90EA020FFC
:100258001FBF54EA000C55EA020C7FEA645C7FEA8F
:10026800655C00F0E2804FEA5454D4EB5555B8BFB2
:100278006D420CDD2C4480EA020281EA030382EA23
:10028800000083EA010180EA020281EA0303362DB5
:1002980088BF30BD11F0004F4FEA01314FF4801C88
:1002A8004CEA113102D0404261EB410113F0004F9A
:1002B8004FEA03334CEA133302D0524263EB430351
:1002C80094EA050F00F0A780A4F10104D5F1200EEF
:1002D8000DDB02FA0EFC22FA05F2801841F100014A
:1002E80003FA0EF2801843FA05F359410EE0A5F11E
:1002F80020050EF1200E012A03FA0EFC28BF4CF04F
:10030800020C43FA05F3C01851EBE37101F0004504
:1003180007D54FF0000EDCF1000C7EEB00006EEB11
:100328000101B1F5801F1BD3B1F5001F0CD349089B
:100338005FEA30004FEA3C0C04F101044FEA4452F2
:1003480012F5800F80F09A80BCF1004F08BF5FEA79
:10035800500C50F1000041EB045141EA050130BD59
:100368005FEA4C0C404141EB0101013C28BFB1F56B
:10037800801FE9D291F0000F04BF01460020B1FAB6
:1003880081F308BF2033A3F10B03B3F120020CDA89
:100398000C3208DD02F1140CC2F10C0201FA0CF067
:1003A80021FA02F10CE002F11402D8BFC2F1200CCC
:1003B80001FA02F120FA0CFCDCBF41EA0C01904082
:1003C800E41AA2BF01EB0451294330BD6FEA0404CB
:1003D8001F3C1CDA0C340EDC04F11404C4F12002B6
:1003E80020FA04F001FA02F340EA030021FA04F3C8
:1003F80045EA030130BDC4F10C04C4F1200220FA1F
:1004080002F001FA04F340EA0300294630BD21FA5C
:1004180004F0294630BD94F0000F83F4801306BF22
:1004280081F480110134013D4EE77FEA645C18BF16
:100438007FEA655C29D094EA050F08BF90EA020FAD
:1004480005D054EA000C04BF1946104630BD91EAA5
:10045800030F1EBF0021002030BD5FEA545C05D1A8
:100468004000494128BF41F0004130BD14F58004E7
:100478003CBF01F5801130BD01F0004545F0FE415B
:1004880041F470014FF0000030BD7FEA645C1ABF90
:10049800194610467FEA655C1CBF0B46024650EAC7
:1004A800013406BF52EA033591EA030F41F40021F3
:1004B80030BD00BF90F0000F04BF0021704730B579
:1004C8004FF4806404F132044FF000054FF000014E
:1004D80050E700BF90F0000F04BF0021704730B50F
:1004E8004FF4806404F1320410F0004548BF4042E4
:1004F8004FF000013EE700BF42004FEAE2014FEA39
:1005080031014FEA02701FBF12F07F4393F07F4F13
:1005180081F06051704732F07F4208BF704793F016
:100528007F4F04BF41F40021704730B54FF4607429
:1005380001F0004521F000411CE700BF50EA01022C
:1005480008BF704730B54FF000050AE050EA0102D5
:1005580008BF704730B511F0004502D5404261EB45
:1005680041014FF4806404F132045FEA915C3FF486
:10057800D8AE4FF003025FEADC0C18BF03325FEA23
:10058800DC0C18BF033202EBDC02C2F1200300FAD4
:1005980003FC20FA02F001FA03FE40EA0E0021FAF9
:1005A80002F11444BDE600BF70B54FF0FF0C4CF4E7
:1005B800E06C1CEA11541DBF1CEA135594EA0C0F99
:1005C80095EA0C0F00F0DEF82C4481EA030621EAD4
:1005D8004C5123EA4C5350EA013518BF52EA03350F
:1005E80041F4801143F4801338D0A0FB02CE4FF0C1
:1005F8000005E1FB02E506F00042E0FB03E54FF0F1
:100608000006E1FB03569CF0000F18BF4EF0010EE8
:10061800A4F1FF04B6F5007F64F5407404D25FEAE4
:100628004E0E6D4146EB060642EAC62141EA555197
:100638004FEAC52040EA5E504FEACE2EB4F1FD0CD9
:1006480088BFBCF5E06F1ED8BEF1004F08BF5FEA57
:10065800500E50F1000041EB045170BD06F0004609
:1006680046EA010140EA020081EA0301B4EB5C04B6
:10067800C2BFD4EB0C0541EA045170BD41F48011AE
:100688004FF0000E013C00F3AB8014F1360FDEBFD3
:10069800002001F0004170BDC4F10004203C35DAAF
:1006A8000C341BDC04F11404C4F1200500FA05F332
:1006B80020FA04F001FA05F240EA020001F00042D3
:1006C80021F0004110EBD37021FA04F642EB060149
:1006D8005EEA430E08BF20EAD37070BDC4F10C0473
:1006E800C4F1200500FA04F320FA05F001FA04F237
:1006F80040EA020001F0004110EBD37041F1000123
:100708005EEA430E08BF20EAD37070BDC4F120052D
:1007180000FA05F24EEA020E20FA04F301FA05F295
:1007280043EA020321FA04F001F0004121FA04F23D
:1007380020EA020000EBD3705EEA430E08BF20EA0D
:10074800D37070BD94F0000F0FD101F00046400047
:1007580041EB010111F4801F08BF013CF7D041EAC9
:10076800060195F0000F18BF704703F000465200CD
:1007780043EB030313F4801F08BF013DF7D043EA9E
:100788000603704794EA0C0F0CEA135518BF95EA54
:100798000C0F0CD050EA410618BF52EA4306D1D1DB
:1007A80081EA030101F000414FF0000070BD50EAFA
:1007B800410606BF1046194652EA430619D094EA84
:1007C8000C0F02D150EA013613D195EA0C0F05D16E
:1007D80052EA03361CBF104619460AD181EA0301C2
:1007E80001F0004141F0FE4141F470014FF000007A
:1007F80070BD41F0FE4141F4780170BD70B54FF015
:10080800FF0C4CF4E06C1CEA11541DBF1CEA135594
:1008180094EA0C0F95EA0C0F00F0A7F8A4EB050476
:1008280081EA030E52EA03354FEA013100F088806D
:100838004FEA03334FF0805545EA131343EA126336
:100848004FEA022245EA111545EA10654FEA0026EB
:100858000EF000419D4208BF964244F1FD0404F5A4
:10086800407402D25B084FEA3202B61A65EB030500
:100878005B084FEA32024FF480104FF4002CB6EBBD
:10088800020E75EB030E22BFB61A754640EA0C003D
:100898005B084FEA3202B6EB020E75EB030E22BF7D
:1008A800B61A754640EA5C005B084FEA3202B6EBBE
:1008B800020E75EB030E22BFB61A754640EA9C007D
:1008C8005B084FEA3202B6EB020E75EB030E22BF4D
:1008D800B61A754640EADC0055EA060E18D04FEA0B
:1008E800051545EA16754FEA06164FEAC30343EAAB
:1008F80052734FEAC2025FEA1C1CC0D111F4801F78
:100908000BD141EA00014FF000004FF0004CB6E770
:1009180011F4801F04BF01430020B4F1FD0C88BF0F
:10092800BCF5E06F3FF6AFAEB5EB030C04BFB6EB1A
:10093800020C5FEA500C50F1000041EB045170BD0D
:100948000EF0004E4EEA113114EB5C04C2BFD4EB3A
:100958000C0541EA045170BD41F480114FF0000EBE
:10096800013C90E645EA060E8DE60CEA135594EA3A
:100978000C0F08BF95EA0C0F3FF43BAF94EA0C0F3D
:100988000AD150EA01347FF434AF95EA0C0F7FF4B2
:1009980025AF104619462CE795EA0C0F06D152EA06
:1009A80003353FF4FDAE1046194622E750EA4106EA
:1009B80018BF52EA43067FF4C5AE50EA41047FF4FB
:1009C8000DAF52EA43057FF4EBAE12E74FF0FF3C60
:1009D80006E000BF4FF0010C02E000BF4FF0010C31
:1009E8004DF804CD4FEA410C7FEA6C5C4FEA430CAA
:1009F80018BF7FEA6C5C1BD001B050EA410C0CBFF9
:100A080052EA430C91EA030F02BF90EA020F00205A
:100A1800704710F1000F91EA030F58BF994208BFC1
:100A280090422CBFD8176FEAE37040F0010070477E
:100A38004FEA410C7FEA6C5C02D150EA013C07D1D5
:100A48004FEA430C7FEA6C5CD6D152EA033CD3D020
:100A58005DF8040B704700BF8446104662468C461A
:100A68001946634600E000BF01B5FFF7B7FF00284D
:100A780048BF10F1000F01BD4DF808EDFFF7F4FF76
:100A88000CBF012000205DF808FB00BF4DF808ED01
:100A9800FFF7EAFF34BF012000205DF808FB00BF24
:100AA8004DF808EDFFF7E0FF94BF012000205DF846
:100AB80008FB00BF4DF808EDFFF7CEFF94BF0120FB
:100AC80000205DF808FB00BF4DF808EDFFF7C4FFF4
:100AD80034BF012000205DF808FB00BF4FEA410C3D
:100AE8007FEA6C5C02D150EA013C0AD14FEA430C20
:100AF8007FEA6C5C02D152EA033C02D14FF000005D
:100B080070474FF0010070474FEA410212F500129A
:100B180015D211D56FF47873B3EB625212D94FEA3C
:100B2800C12343F0004343EA505311F0004F23FA26
:100B380002F018BF404270474FF00000704750EA7B
:100B4800013005D111F0004008BF6FF00040704738
:100B58004FF00000704700BF4A0011D212F5001292
:100B680011D20DD56FF47873B3EB62520ED44FEAFD
:100B7800C12343F0004343EA505323FA02F070477D
:100B88004FF00000704750EA013002D14FF0FF30BB
:100B980070474FF0000070474FEA4102B2F1E0435E
:100BA80024BFB3F5001CDCF1FE5C0DD901F0004C4C
:100BB8004FEAC0024CEA5070B2F1004F40EB83009C
:100BC80008BF20F00100704711F0804F21D113F1C8
:100BD8003872BCBF01F00040704741F480114FEA01
:100BE8005252C2F11802C2F1200C10FA0CF320FA8A
:100BF80002F018BF40F001004FEAC1234FEAD323A7
:100C080003FA0CFC40EA0C0023FA02F34FEA430310
:100C1800CCE77FEA625307D150EA01331EBF4FF099
:100C2800FE4040F44000704701F0004040F0FE40B4
:100C380040F40000704700BF80F0004002E000BFB1
:100C480081F0004142001FBF5FEA410392EA030FAF
:100C58007FEA226C7FEA236C6AD04FEA1262D2EBF9
:100C68001363C1BFD218414048404140B8BF5B42FE
:100C7800192B88BF704710F0004F40F4000020F097
:100C88007F4018BF404211F0004F41F4000121F0AD
:100C98007F4118BF494292EA030F3FD0A2F10102F7
:100CA80041FA03FC10EB0C00C3F1200301FA03F135
:100CB80000F0004302D5494260EB4000B0F5000F58
:100CC80013D3B0F1807F06D340084FEA310102F117
:100CD8000102FE2A51D2B1F1004F40EBC25008BFC9
:100CE80020F0010040EA03007047490040EB000093
:100CF800013A28BFB0F5000FEDD2B0FA80FCACF194
:100D0800080CB2EB0C0200FA0CF0AABF00EBC250C0
:100D180052421843BCBFD0401843704792F0000FAE
:100D280081F4000106BF80F400000132013BB5E701
:100D38004FEA41037FEA226C18BF7FEA236C21D077
:100D480092EA030F04D092F0000F08BF08467047DC
:100D580090EA010F1CBF0020704712F07F4F04D1AA
:100D6800400028BF40F00040704712F100723CBFBD
:100D780000F50000704700F0004343F0FE4040F4E7
:100D8800000070477FEA226216BF08467FEA2363A5
:100D98000146420206BF5FEA412390EA010F40F490
:100DA800800070474FF0000304E000BF10F00043DC
:100DB80048BF40425FEA000C08BF704743F09643C3
:100DC80001464FF000001CE050EA010208BF7047DE
:100DD8004FF000030AE000BF50EA010208BF704765
:100DE80011F0004302D5404261EB41015FEA010C7A
:100DF80002BF84460146002043F0B64308BFA3F172
:100E08008053A3F50003BCFA8CF2083AA3EBC25353
:100E180010DB01FA02FC634400FA02FCC2F1200272
:100E2800BCF1004F20FA02F243EB020008BF20F0A9
:100E38000100704702F1200201FA02FCC2F120020F
:100E480050EA4C0021FA02F243EB020008BF20EA04
:100E5800DC7070474FEA4002B2F1FE4F0FD34FF0FB
:100E68009E03B3EB12620DD94FEA002343F000430F
:100E780010F0004F23FA02F018BF404270474FF0BD
:100E88000000704712F1610F01D1420205D110F044
:100E9800004008BF6FF0004070474FF000007047F7
:100EA80038B505460C460022002328462146FFF7A0
:100EB800EDFD28B928462146BDE8384000F00AB8BB
:100EC800284604F1004100F005F8404261EB410179
:100ED80038BD00BFD0B500220B4B06460F46FFF7C2
:100EE80063FBFFF739FE0446FFF7E4FA0022074BDD
:100EF800FFF75AFB02460B4630463946FFF79CF986
:100F0800FFF72AFE2146D0BD0000F03D0000F04169
:100F180010B50446064B984203D0064B9C4203D0BA
:100F280010BD00F005FEF8E700F046FCF8E700BF4A
:100F3800DC0600206C070020054B834200D0704778
:100F4800044B01221A60044B00221A60F7E700BF25
:100F58004C060020000000201802002072B6FEE7B0
:100F680000B597B0282200210CA804F019FA002334
:100F78000793089309930A930B930193029303939E
:100F880004930593069309230C934FF480330D9330
:100F98000122109212920222139214934FF4E0133A
:100FA80015930CA801F0FCFDE0B90F23079302216B
:100FB8000891002309934FF480620A920B9307A8C3
:100FC80002F020F880B9032301934FF400730293D1
:100FD8004FF40043039301A802F0F0F830B917B0BA
:100FE8005DF804FBFFF7BAFFFFF7B8FFFFF7B6FF9E
:100FF80008B501F087FDFFF7B3FF00F039F800F0FE
:10100800BFF800F02FFA00F0E9F801F04DF901F00F
:101018004DFA00F063F900F047FA00F065FA01F0C4
:101028002BFA01F05DFA01F075FA01F075F901F09B
:10103800ABF900F0A3F904F01BF90B4800F010FB22
:1010480000F068FD00F08CFB4FF47A7001F07EFD33
:1010580000F0FAFB054B186000F04EFC4FF4FA6004
:1010680001F074FDF4E700BF6C9A00081402002038
:101078002DE9F04389B0002404940594069407945C
:101088003A4B9A6942F010029A619A6902F010028A
:101098000092009A9A6942F020029A619A6902F0D5
:1010A80020020192019A9A6942F004029A619A69AF
:1010B80002F004020292029A9A6942F008029A61C6
:1010C8009B6903F008030393039BDFF8A48022467F
:1010D8004FF44671404602F097FA264D012210213E
:1010E800284602F091FADFF89090224641F2020178
:1010F800484602F089FA22464FF41841284602F081
:1011080083FA012604961D4B0593069404A94046CC
:1011180002F05AF94FF44673049305960694022791
:10112800079704A9404602F04FF949F610030493C3
:1011380005960694079704A9284602F045F941F256
:101148000203049305960694079704A9484602F0FB
:101158003BF94FF4807304930594069404A9284638
:1011680002F032F909B0BDE8F08300BF0010024078
:101178000010014000080140000C0140000031103F
:1011880000B585B000230193029303931148124AD6
:10119800026083600122027303754FF46021C1610C
:1011A8004360026101F0F4FB68B90B23019301234A
:1011B80002930323039301A9064801F01BFB28B9F6
:1011C80005B05DF804FBFFF7C9FEEEE7FFF7C6FEC2
:1011D800F6E700BF1C0200200024014000B585B0DE
:1011E80000230193029303931148124A026083601B
:1011F8000122027303754FF46021C16143600261EB
:1012080001F0C6FB70B90C23019301230293042358
:1012180003930DEB0301064801F0ECFA28B905B079
:101228005DF804FBFFF79AFEEDE7FFF797FEF6E798
:101238004C0200200028014000B589B00023049327
:101248000593069307930368204A934205D0204AE2
:1012580093421ED009B05DF804FB1E4B9A6942F414
:1012680000729A619A6902F400720092009A9A696F
:1012780042F010029A619B6903F010030193019BED
:10128800022304930323059304A9134802F09CF84E
:10129800E0E7104B9A6942F480629A619A6902F415
:1012A80080620292029A9A6942F010029A619B69DE
:1012B80003F010030393039B042304930323059370
:1012C80004A9054802F080F8C4E700BF00240140E3
:1012D80000280140001002400010014008B50B48EA
:1012E8000B4B03600B4B436000238360C3604FF4D8
:1012F8008042026143618361C361036202F0D6FAEE
:1013080000B908BDFFF72AFEFBE700BF7C020020FA
:1013180000540040A086010010B586B00023029357
:101328000393049305930268114B9A4201D006B0C7
:1013380010BD104CA36943F00803A361A36903F02F
:1013480008030093009BC0230293122303930323F3
:10135800059302A9084802F037F8E36943F400133B
:10136800E361E36903F400130193019BDFE700BF26
:101378000054004000100240000C014000B585B048
:101388000023ADF80C308DF80E30029300930193D2
:101398002248234B03604FF0FF3343604FF48073C0
:1013A800836002F089FE68BB10238DF80C3000239F
:1013B8008DF80D308DF80E30012203A9174802F080
:1013C800A7FC10BB01228DF808208DF809208DF8A4
:1013D8000A2023238DF80B3002A9104802F080FD63
:1013E800B0B900238DF800308DF801308DF8023047
:1013F800019301226946094802F0DCFD58B905B09D
:101408005DF804FBFFF7AAFDCEE7FFF7A7FDD9E7D4
:10141800FFF7A4FDE5E7FFF7A1FDF0E7D002002004
:101428000028004002680C4B9A4200D0704700B573
:1014380083B002F035FA094BDA6942F00062DA61EA
:10144800DB6903F000630193019B054B0122C3F89C
:101458003C2403B05DF804FB002800400010024063
:101468000000424208B50E480E4B03604FF48273E9
:10147800436000238360C360036143614FF40072DB
:1014880082610822C2610362436283620A23C362E3
:1014980002F0E6FE00B908BDFFF760FDFBE700BFFC
:1014A800E40200200030014008B50D480D4B0360F0
:1014B8004FF48273436000238360C3600361436118
:1014C8004FF400728261C3610362436283620A233C
:1014D800C36202F0C5FE00B908BDFFF73FFDFBE798
:1014E8003C0300200038004008B50E480E4B03604E
:1014F8004FF48273436000238360C36003614361D8
:101508004FF4007282611822C261036243628362EF
:101518000A23C36202F0A4FE00B908BDFFF71EFD4E
:10152800FBE700BF94030020003C004010B58AB0E0
:10153800002306930793089309930368424A93424A
:1015480007D0424A93422CD0414A934253D00AB022
:1015580010BD404B9A6942F480529A619A6902F42C
:1015680080520092009A9A6942F004029A619B693B
:1015780003F004030193019BA0230693022307931E
:1015880003230993344C06A9204601F01DFF40238C
:10159800069300230793089306A9204601F014FF39
:1015A800D5E72C4BDA6942F48042DA61DA6902F451
:1015B80080420292029A9A6942F008029A619B69F3
:1015C80003F008030393039B4FF42043069302237D
:1015D800079303230993214C06A9204601F0F4FE42
:1015E8004FF48043069300230793089306A92046E7
:1015F80001F0EAFEABE7174BDA6942F40042DA6120
:10160800DA6902F400420492049A9A6942F00802E4
:101618009A619B6903F008030593059B28230693A9
:1016280002230793032309930C4C06A9204601F0D3
:10163800CBFE1023069300230793089306A92046A0
:1016480001F0C2FE83E700BF0030014000380040CF
:10165800003C00400010024000080140000C01401E
:1016680010B50446FEF7DCFD4FF47A7382B22146CA
:10167800014803F09FFB10BDB40700200139002387
:1016880007E0C25C10F801C000F803C042540133FF
:1016980001398B42F5DB704770B50E4618B9302317
:1016A8000B70012415E00546002495B10E4981FB15
:1016B8000531EB17C3EBA103194603EB8303A5EB35
:1016C8004303303333550D460134EEE730233355A9
:1016D80001349442FADB21463046FFF7CFFF00235E
:1016E8003355204670BD00BF676666662DE9F8432E
:1016F80006460C461746FFF7ADFB0546FFF756FBB7
:1017080001463046FFF79CFA064600222146284645
:10171800FFF7C2FF0FB9BDE8F88305462E2323540F
:101728003846FEF7D7FE02460B4600200B4907F065
:10173800C5F9804689463046FEF7DEFE42464B46EE
:10174800FEF732FFFFF728FA691C0C44FFF782FB0B
:101758003A462146FFF7A0FFDDE700BF000024401E
:1017680010B5124C00224FF48071204601F04CFF56
:10177800642001F0EBF901224FF48071204601F05A
:1017880043FF642001F0E2F900224FF48071204603
:1017980001F03AFF642001F0D9F94FF47A7333224B
:1017A8000349044803F006FB10BD00BF00100140C8
:1017B8007C9A00086C07002008B51E4B1B78242B68
:1017C8000BD00A2B1BD01C4A1278012A25D00122E3
:1017D80018491A4803F037FD08BD174A1278002A3D
:1017E800EFD117490A68501C086016498B5401222A
:1017F800114B1A700F49114803F025FDECE70E4A0A
:101808001278012ADFD10E490A68501C08600D4978
:101818008B54094B02221A70DEE709490A68501CEA
:10182800086008498B5401220249044803F00BFD63
:10183800D2E700BFF0030020100500206C0700204D
:10184800EC030020AC04002010B50024094B1C60F8
:1018580064222146084803F0A3FD084B1C700122AE
:101868000749084803F0EFFC044B1B78022BFBD117
:10187800014810BDEC030020AC0400201005002036
:10188800F00300206C0700202DE9F04703F053FD1A
:1018980080468946FFF738F98246154B83FB0023BB
:1018A800C617C6EB63163046FEF714FE04460D460F
:1018B800642000FB16A0FEF70DFE06460F465046B4
:1018C800FEF708FE02460B4640464946FEF7B4FCC2
:1018D80002460B4630463946FEF7B0FC0022054B5F
:1018E800FEF78CFF22462B46FEF7A8FCBDE8F087E2
:1018F8001F85EB5100004E402DE9F04F89B004469A
:101908007748FFF7ADFE2046FFF7AAFE7549204647
:1019180003F0BDFD744D05F14B0ACDF818A005F193
:101928004103059305F13706049605F13603039341
:1019380005F12207029705F12103019305F10D0432
:10194800009405F10C032A46684903F031FD20464E
:10195800FFF79AFF664C04F10C09FFF71DF9062200
:101968004946FFF7C3FE3846FFF78EFF04F120080B
:10197800FFF712F906224146FFF7B8FE304603F09A
:10198800DAFC02460B465B4EC6E9002352A3D3E9B4
:101998000023FEF709FE02460B46574EC6E9002310
:1019A80004F13407FFF7F8F801223946FFF79EFEE5
:1019B800284603F0C0FCFFF7A7F8504D85FB00321E
:1019C800C317C3EB6212642101FB12024C4EB260D2
:1019D8004C4A82FB00C1C3EB213242F2107C0CFB63
:1019E800120285FB02E0D217C2EB60127260C3EBF1
:1019F80021300730306000222146FFF74DFE4FF0BE
:101A08003A0B84F802B00022E11C7068FFF744FE2C
:101A180084F805B00022A11DB068FFF73DFE5046CE
:101A280003F089FCFFF770F885FB0063C217C2EB6F
:101A38006313642101FB130303F5FA63324EB360A9
:101A4800304B83FB0031C2EB213342F2107C0CFB9C
:101A5800130385FB0305DB17C3EB65137360C2EB48
:101A68002130306004F1480A00225146FFF714FE85
:101A78002F2584F84A50002204F14B017068FFF7C3
:101A88000BFE84F84D50002204F14E01B068FFF7B8
:101A980003FE4846FFF7E4FD1C4D2846FFF7E0FD2E
:101AA8004046FFF7DDFD2846FFF7DAFD2046FFF741
:101AB800D7FD2846FFF7D4FD5046FFF7D1FD28464D
:101AC800FFF7CEFD3846FFF7CBFD1148FFF7C8FDFD
:101AD80009B0BDE8F08F00BF6F1283C0CAA1FD3FF7
:101AE800B09A0008C49A000854040020CC9A000850
:101AF800F403002028050020200500201F85EB5155
:101B080014050020AD8BDB68480400200C9B0008FE
:101B1800109B000808B501224FF40061034801F04A
:101B280073FD642001F012F808BD00BF00080140F1
:101B380010B5114A1368591C11601048104A1278E0
:101B4800C254104903F0A3FC18B10B4B1B68022BBD
:101B580005D001220A490C4803F075FB10BD074C5B
:101B68002046FEF75DFB02460021204603F018FCE4
:101B7800014B00221A60ECE7FC050020300500202C
:101B8800F8050020149B0008DC06002008B500F0CA
:101B98004FF908BD08B500F00DFA08BD08B500F00A
:101BA80013FA08BD08B500F05BFA08BD08B500F0E7
:101BB800B9FA08BD014B00221A70704701060020CF
:101BC800014B1878704700BF0106002000B583B0AC
:101BD8008DF80700074802F09CFD0128FAD14FF460
:101BE8007A7301220DF10701024802F094FB03B059
:101BF8005DF804FB9403002008B500220221024886
:101C080001F002FD08BD00BF000C014008B501222B
:101C18000221024801F0F8FC08BD00BF000C014099
:101C280000B585B0FF238DF80F3000238DF80E30F6
:101C38000A4802F06EFD0128FAD14FF47A73009336
:101C480001230DF10E020DF10F01044802F03FFCD3
:101C58009DF80E0005B05DF804FB00BF940300205A
:101C680010B582B0FFF7D2FF002403E0FF20FFF792
:101C7800ADFF0134092CF9DDFFF7BEFF40238DF8D5
:101C8800003000248DF801408DF802408DF80340A3
:101C98008DF8044095238DF8053007E004F108031A
:101CA8006B4413F8080CFFF791FF0134052CF5DDA0
:101CB80041F6FF74FFF7B4FF012802D00CB1013CD4
:101CC800F8E7FFF7A3FFFF20FFF780FF024B012291
:101CD8001A7002B010BD00BF0106002008B5074BFE
:101CE80032221A70FFF79CFFFFF79AFFFF2803D0F4
:101CF800024B1B78002BF7D108BD00BF000800205D
:101D080038B504460D46FFF7E9FFFF2801D0FF204C
:101D180038BD2046FFF75AFF280EFFF757FFC5F3D7
:101D28000740FFF753FFC5F30720FFF74FFFE8B25F
:101D3800FFF74CFF402C11D00020482C10D0FFF7A3
:101D480045FF4C2C0ED00A24FFF76AFF10F0800FD5
:101D5800DED0631E13F0FF04F6D1D9E79520ECE737
:101D68008720ECE7FFF75CFFEDE710B50446FFF7C7
:101D780057FF207010BD000070B504460E460F4B8B
:101D88000A221A70FFF74CFFFF2803D10B4B1B7870
:101D9800002BF7D1FE280FD1651C2046FFF7E5FF81
:101DA80028460234FFF7E1FF023EF5D1FFF738FF7E
:101DB800FFF736FF012070BD0020FCE7FE0700207A
:101DC80070B505460C46FFF789FFFF2801D00020B3
:101DD80070BD00262046FFF7F9FEFD2C1FD03446C3
:101DE8002878FFF7F3FE68780235FFF7EFFE631EE9
:101DF80013F0FF04F4D1FFF713FFFFF711FF402C96
:101E080009D8FFF70DFF064600F01F03052B02D087
:101E1800631CDCB2F3E7FFF703FF0028FBD006F0F2
:101E28001F06052E01D00020D2E70120D0E70000D0
:101E3800002840F0B68030B583B05B4B1B7813F0B8
:101E4800020404D0584B1878C0B203B030BDFFF775
:101E580007FFFFF7D1FE00214020FFF751FF05469D
:101E6800012811D0514B1C70FFF7D0FEFFF7D8FEA8
:101E7800002C00F093804C4A137803F0FE03137093
:101E8800494B1878C0B2E0E7494B64221A704FF406
:101E9800D5714820FFF734FF012846D1254608E0D0
:101EA800FFF7BEFE05F108036B4403F8040C013587
:101EB800EDB2032DF4D99DF80630012BD2D19DF84F
:101EC8000730AA2BCED102E0394B1B7863B1002131
:101ED8007720FFF715FF0128F6D84FF080416920D9
:101EE800FFF70EFF0028EFD1314B1B7803F0FF02FC
:101EF8000BB91446B6E700217A20FFF701FF054623
:101F08000028AFD1032D09D8FFF78AFE05F1080391
:101F18006B4403F8040C0135EDB2F3E79DF8043087
:101F280013F0400F38D006249CE700217720FFF7F4
:101F3800E7FE012810D800216920FFF7E1FE0128FB
:101F48000AD8022508E000217720FFF7D9FE0128EA
:101F580011D9174B1B783BB1022DF4D00021412039
:101F6800FFF7CEFE0028F4D1114B1B7803F0FF02D7
:101F780043B9144676E700216920FFF7C1FE00281F
:101F8800E7D1F1E74FF400715020FFF7B9FE0028C0
:101F98007FF468AF2C4665E7022463E7FFF70AFE83
:101FA8006EE70120704700BF1800002000060020DF
:101FB800FE07002018B9034B1878C0B270470120FB
:101FC800704700BF1800002000283ED170B50D46AC
:101FD80016461C46002B3AD01F4B1B7813F0010FF6
:101FE80037D11E4B1B7813F0040F00D15602FFF7B0
:101FF80003FE012C1AD031465220FFF781FE68B942
:102008004FF400712846FFF7B7FE18B105F50075C3
:10201800013CF5D100214C20FFF772FEFFF7F6FDD9
:10202800FFF7FEFD201E18BF012070BD314651206C
:10203800FFF766FE0028F1D14FF400712846FFF73C
:102048009BFE0028EAD00024E8E70420704704201B
:10205800EBE70320E9E700BF180000200006002096
:10206800002852D170B50D4616461C46002B4ED09E
:102078002A4B1B7813F0010F4BD1284B1B7813F018
:10208800040F48D1264B1B7813F0040F00D15602D9
:10209800FFF7B2FD012C1FD0214B1B7813F0020F64
:1020A80028D131465920FFF72BFE68B9FC21284674
:1020B800FFF786FE18B105F50075013CF6D1FD2144
:1020C8000020FFF77DFEF0B1FFF7A0FDFFF7A8FDA8
:1020D800201E18BF012070BD31465820FFF710FEA2
:1020E8000028F1D1FE212846FFF76AFE0028EBD030
:1020F8000024E9E700217720FFF702FE2146572058
:10210800FFF7FEFDCDE70124DEE704207047042039
:10211800E1E70320DFE70220DDE700BF1800002029
:102128000006002070B584B0002840F0B7800D4646
:1021380016460446052913D05A4B1C7814F001049E
:1021480040F0AE80FFF758FD0D2D00F29B80DFE8D0
:1021580005F063205F999999999999999969788770
:102168001578012D0ED0022D0FD00DB104248EE06C
:10217800FFF726FD0446002800F08980FFF71AFDC6
:102188002C4684E0FFF76CFD81E0FFF719FD7070C5
:102198007DE000214920FFF7B3FD044608B12C4635
:1021A80071E010216846FFF7E7FD002872D09DF81E
:1021B80000309B09012B1FD09DF8052002F00F026B
:1021C8009DF80A3002EBD3129DF809305B0003F04A
:1021D80006031A449DF808309DF807109B0903EB85
:1021E80081039DF80610890201F440610B44013314
:1021F800073A9340336046E09DF809309DF808207F
:1022080003EB02239BB201339BB29B0233603AE09B
:102218004FF40073338036E0FFF760FDFF283BD0B2
:10222800012430E000214920FFF76AFD044608B187
:10223800012428E010213046FFF79EFD18BB012439
:1022480021E000214A20FFF75BFD044608B1012484
:1022580019E010213046FFF78FFDA0B9012412E0E4
:1022680000217A20FFF74CFD044638B104240AE027
:10227800FFF7D6FC06F8010B0134E4B2032CF7D9BA
:10228800042400E00424FFF7C1FCFFF7C9FC204642
:1022980004B070BD2C46F6E72C46F4E70424F6E7B4
:1022A8000324F4E71800002000B587B00023029348
:1022B800039304930593009301931548154A02600C
:1022C8004722426083604FF6FF72C2600361436138
:1022D800836102F05BFB90B94FF48053029302A92B
:1022E8000B4802F08BFB68B9002300930193694601
:1022F800074802F003FC40B907B05DF804FBFEF79D
:102308002DFEE9E7FEF72AFEEEE7FEF727FEF3E7E4
:1023180004060020002C014000B587B0002302937A
:102328000393049305930093019316484FF080425A
:10233800026041F61F42426083604EF66022C2602E
:102348000361836102F022FB90B94FF4805302933A
:1023580002A90C4802F052FB68B9002300930193CC
:102368006946084802F0CAFB40B907B05DF804FBAB
:10237800FEF7F4FDE9E7FEF7F1FDEEE7FEF7EEFD07
:10238800F3E700BF4C06002000B587B00023029396
:10239800039304930593009301931548154A02602B
:1023A80041F61F42426083604EF66022C2600361BC
:1023B800836102F0EBFA90B94FF48053029302A9BB
:1023C8000B4802F01BFB68B9002300930193694690
:1023D800074802F093FB40B907B05DF804FBFEF72D
:1023E800BDFDE9E7FEF7BAFDEEE7FEF7B7FDF3E757
:1023F800940600200004004000B585B003681B4A1D
:10240800934208D0B3F1804F10D0194A934219D0A3
:1024180005B05DF804FB174B9A6942F400629A61B3
:102428009B6903F400630193019BF1E703F504330F
:10243800DA6942F00102DA61DB6903F00103029311
:10244800029BE5E70B4BDA6942F00202DA61DB69CD
:1024580003F002030393039B002211461D2001F0A1
:10246800C5F91D2001F0FAF9D2E700BF002C0140A0
:10247800000400400010024008B50A480A4B0360F7
:102488004FF41653436000238360C36003610C223A
:1024980042618361C36102F05DFC00B908BDFEF7CB
:1024A8005DFDFBE76C070020004C004008B50A48BA
:1024B8000A4B03604FF4E133436000238360C36039
:1024C80003610C2242618361C36102F043FC00B9DD
:1024D80008BDFEF743FDFBE7B407002000500040AD
:1024E80008B50A480A4B03604FF4E1334360002300
:1024F8008360C36003610C2242618361C36102F09F
:1025080029FC00B908BDFEF729FDFBE7DC06002021
:102518000038014008B50A480A4B03604FF41653C7
:10252800436000238360C36003610C2242618361BE
:10253800C36102F00FFC00B908BDFEF70FFDFBE711
:10254800240700200044004030B58FB000230A93D0
:102558000B930C930D930368654A93420BD0654A1D
:1025680093423AD0644A934268D0644A934200F056
:1025780097800FB030BD624BDA6942F40022DA610D
:10258800DA6902F400220192019A9A6942F0100273
:102598009A619B6903F010030293029B4FF48063D6
:1025A8000A9302230B9303230D93564D0AA9284639
:1025B80000F00AFF4FF400630A9300240B940C9474
:1025C8000AA9284600F000FF22460121342001F024
:1025D8000DF9342001F042F9CBE7494BDA6942F4AE
:1025E8008012DA61DA6902F480120392039A9A6916
:1025F80042F010029A619A6902F010020492049A59
:102608009A6942F020029A619B6903F020030593BE
:10261800059B4FF480530A9302230B9303230D93D6
:102628000AA9384800F0D0FE04230A9300230B932C
:102638000C930AA9344800F0C7FE9AE7304B9A6910
:1026480042F480429A619A6902F480420692069A9C
:102658009A6942F004029A619B6903F004030793A4
:10266800079B4FF400730A9302230B9303230D93E4
:10267800264D0AA9284600F0A7FE4FF480630A9366
:1026880000240B940C940AA9284600F09DFE2246CB
:102698002146252001F0AAF8252001F0DFF868E797
:1026A800174BDA6942F40032DA61DA6902F400326F
:1026B8000892089A9A6942F004029A619B6903F0A9
:1026C80004030993099B04230A9302230B9303230E
:1026D8000D930E4C0AA9204600F076FE08230A93B3
:1026E80000230B930C930AA9204600F06DFE40E7E7
:1026F800004C0040005000400038014000440040B9
:102708000010024000100140001401400008014080
:102718000A4B1B889BB22BB1084A13889BB2013B1A
:102728009BB21380064B1B889BB22BB1044A1388BB
:102738009BB2013B9BB21380704700BFFE0700208D
:1027480000080020FEE7FEE7FEE7FEE7FEE7704729
:102758007047704708B5094A13780133DBB2137024
:102768001378DBB2092B02D800F0DEF908BD134656
:1027780000221A70FFF7CCFFF6E700BFFC07002025
:1027880008B5024801F0F9FF08BD00BF9406002013
:1027980008B5024802F0F8FB08BD00BFDC060020BF
:1027A80008B5024802F0F0FB08BD00BF6C07002026
:1027B80082B00E4B9A6942F001029A619A6902F05E
:1027C80001020092009ADA6942F08052DA61DB690C
:1027D80003F080530193019B054A536823F0E0639B
:1027E80043F00073536002B0704700BF001002400E
:1027F8000000014030B482B00022019290F82420F9
:10280800012A00F091800346012280F824204A68BA
:10281800062A2DD80468606B02EB8202053A4FF055
:102828001F0C0CFA02FC20EA0C000D6805FA02F2F3
:10283800024362630A68092A3AD91C68E06802EB15
:1028480042021E3A4FF0070C0CFA02FC20EA0C0078
:102858008D6805FA02F20243E2600A68103A012A1A
:1028680036D90020002283F8242002B030BC7047FB
:102878000C2A0ED80568286B02EB8202233A1F2423
:10288800944020EA04000C6804FA02F202432A6326
:10289800D0E70568E86A02EB8202413A1F249440B7
:1028A80020EA04000C6804FA02F20243EA62C1E773
:1028B8001C68206902EB42024FF0070C0CFA02FC7C
:1028C80020EA0C008D6805FA02F202432261C4E78F
:1028D8001A681648824205D09A6A42F020029A6223
:1028E8000120BFE7906810F4000F1BD1906840F4F6
:1028F800000090600A68102A01D00020B2E70C4A54
:1029080012680C49A1FB0212920C02EB82025200DF
:10291800019202E0019A013A0192019A002AF9D142
:1029280000209FE700209DE702209EE70024014049
:102938002000002083DE1B4338B503689A6812F034
:10294800010F01D1002038BD04469A6822F0010227
:102958009A6000F0F5F8054623689B6813F0010FAC
:1029680013D000F0EDF8431B022BF5D923689B68C0
:1029780013F0010FF0D0A36A43F01003A362E36AD7
:1029880043F00103E3620120DDE70020DBE70000FC
:10299800002800F0888070B50446836A002B52D066
:1029A8002046FFF7C9FFA36A13F0100375D100286A
:1029B80073D1A26A22F4885222F0020242F0020283
:1029C800A2626268266839498E4242D0E1690A43A8
:1029D800217B42EA4102A568B5F5807F02D0012D2E
:1029E8003ED01D4694F814C0BCF1010F3BD071686D
:1029F80021F46941294371602568AE682C4931404A
:102A08001143A960A168B1F5807F01D0012902D1E5
:102A18002369013B1B052568E96A21F470010B4312
:102A2800EB6223689968234B0B409A422CD0A36A27
:102A380023F0120343F01003A362E36A43F0010397
:102A4800E36201202EE0C36280F82430FEF7F4FB35
:102A5800A6E7E169B1F5402FB9D14FF40021B6E7F7
:102A68004FF48075BEE731B9A169013945EA4131B2
:102A780041F40065BBE7A16A41F02001A162E16A67
:102A880041F00101E162B2E70023E362A36A23F0A7
:102A9800030343F00103A36204E0A36A43F01003B5
:102AA800A362012070BD0120704700BF003C0140B7
:102AB800FDF7E1FFFE0E1FFF10B504460E4B187818
:102AC8004FF47A73B3FBF0F30C4A1068B0FBF3F0E1
:102AD80000F0D2FE68B90F2C01D901200AE00022CB
:102AE80021464FF0FF3000F081FE054B1C600020AE
:102AF80000E0012010BD00BF1900002020000020C8
:102B08001C00002008B5074A136843F0100313603F
:102B1800032000F059FE0F20FFF7CEFFFFF748FE15
:102B2800002008BD00200240034A1168034B1B78AF
:102B38000B441360704700BF0408002019000020F0
:102B4800014B1868704700BF0408002038B50446D8
:102B5800FFF7F6FF0546B4F1FF3F02D0044B1B78A0
:102B68001C44FFF7EDFF401BA042FAD338BD00BF5D
:102B78001900002082B0084B1B68084AA2FB0323F7
:102B88005B0A00FB03F3019300BF019B5A1E0192ED
:102B9800002BF9D102B0704720000020D34D6210FD
:102BA800002800F0F18170B582B00446036813F084
:102BB800010F2CD0994B5B6803F00C03042B1DD03C
:102BC800964B5B6803F00C03082B12D06368B3F5CF
:102BD800803F41D0002B55D103F1804303F50433E6
:102BE8001A6822F480321A601A6822F480221A6065
:102BF80037E08A4B5B6813F4803FE7D0874B1B684C
:102C080013F4003F03D06368002B00F0BF812368F2
:102C180013F0020F75D0814B5B6813F00C0F5FD077
:102C28007E4B5B6803F00C03082B54D02369002B00
:102C380000F08A807A4B01221A60FFF781FF05466F
:102C4800764B1B6813F0020F75D1FFF779FF401B15
:102C58000228F5D903209EE1704A136843F48033B3
:102C68001360636843B3FFF76BFF05466B4B1B6844
:102C780013F4003FCBD1FFF763FF401B6428F5D95D
:102C8800032088E1B3F5A02F09D0644B1A6822F419
:102C980080321A601A6822F480221A60E1E703F190
:102CA8008043A3F53C331A6842F480221A601A68FC
:102CB80042F480321A60D4E7FFF742FF0546574BCB
:102CC8001B6813F4003FA2D0FFF73AFF401B6428AB
:102CD800F5D903205FE1514B5B6813F4803FA5D120
:102CE8004E4B1B6813F0020F03D02369012B40F0F1
:102CF8004F814A4A136823F0F803616943EAC10324
:102D08001360236813F0080F33D0A369002B5CD03D
:102D1800434B0122C3F88024FFF712FF05463F4BBF
:102D28005B6A13F0020F21D1FFF70AFF401B02284C
:102D3800F5D903202FE1394A136823F0F8036169B4
:102D480043EAC1031360DCE7354B00221A60FFF742
:102D5800F7FE0546314B1B6813F0020FD1D0FFF781
:102D6800EFFE401B0228F5D9032014E10120FFF7EC
:102D780001FF236813F0040F00F09680274BDB69EE
:102D880013F0805F34D1254BDA6942F08052DA6162
:102D9800DB6903F080530193019B0125214B1B68DC
:102DA80013F4807F26D0E368012B3DD0002B53D14C
:102DB80003F1804303F504331A6A22F001021A6210
:102DC8001A6A22F004021A6233E0154B0022C3F893
:102DD8008024FFF7B5FE0546104B5B6A13F0020F1F
:102DE800C7D0FFF7ADFE401B0228F5D90320D2E07B
:102DF8000025D3E70B4A136843F480731360FFF789
:102E08009FFE0646074B1B6813F4807FCBD1FFF764
:102E180097FE801B6428F5D90320BCE0001002400F
:102E280000004242007000405F4A136A43F0010309
:102E38001362E36833B3FFF783FE06465A4B1B6AF7
:102E480013F0020F2FD1FFF77BFE801B41F288336E
:102E58009842F3D903209EE0052B09D0524B1A6AF9
:102E680022F001021A621A6A22F004021A62E0E7EA
:102E78004D4B1A6A42F004021A621A6A42F00102C1
:102E88001A62D6E7FFF75CFE0646474B1B6A13F04B
:102E9800020F08D0FFF754FE801B41F28833984296
:102EA800F3D9032077E0E5B9E369002B72D03E4AF5
:102EB800526802F00C02082A56D0022B17D03B4B5E
:102EC80000221A66FFF73CFE0446374B1B6813F0D6
:102ED800007F47D0FFF734FE001B0228F5D90320F6
:102EE80059E0314AD36923F08053D361DCE72F4B93
:102EF80000221A66FFF724FE05462B4B1B6813F0C9
:102F0800007F06D0FFF71CFE401B0228F5D90320DE
:102F180041E0236AB3F5803F1AD023494B6823F474
:102F28007413226A606A024313434B601F4B0122E9
:102F38001A66FFF705FE04461B4B1B6813F0007F5B
:102F48000ED1FFF7FDFD001B0228F5D9032022E072
:102F5800154A536823F40033A1680B435360DCE738
:102F6800002018E0002016E0012B16D00E4B5B68FD
:102F780003F48031226A914211D103F47013626A1A
:102F880093420ED1002006E001207047012002E0A4
:102F9800012000E0002002B070BD0120FBE7012005
:102FA800F9E70120F7E700BF0010024000004242A5
:102FB8000F4B5B6803F00C02082A01D00D487047DC
:102FC800C3F383420C49885C13F4803F0BD0084B51
:102FD8005B68C3F34043094AD35C064A02FB00F02E
:102FE800B0FBF3F07047064B03FB00F0704700BFDF
:102FF8000010024000127A00189B0008289B000865
:1030080000093D00002800F0A08070B50D46044678
:10301800524B1B6803F007038B420BD24F4A1368CD
:1030280023F007030B431360136803F007038B4275
:1030380040F08D80236813F0020F17D013F0040FAF
:1030480004D0474A536843F4E0635360236813F09D
:10305800080F04D0424A536843F460535360404A0F
:10306800536823F0F003A1680B435360236813F0FF
:10307800010F31D06368012B20D0022B25D0384AAC
:10308800126812F0020F64D035494A6822F0030230
:1030980013434B60FFF754FD0646314B5B6803F062
:1030A8000C036268B3EB820F16D0FFF749FD801B53
:1030B80041F288339842F0D9032045E0284A126843
:1030C80012F4003FE0D101203EE0254A126812F0D8
:1030D800007FD9D1012037E0204B1B6803F007039C
:1030E800AB420AD91D4A136823F007032B43136028
:1030F800136803F00703AB422DD1236813F0040FC4
:1031080006D0174A536823F4E063E1680B43536021
:10311800236813F0080F07D0114A536823F460534B
:10312800216943EAC1035360FFF742FF0C4B5B6818
:10313800C3F303130B4AD35CD8400B4B18600B4BFB
:103148001868FFF7B9FC002070BD01207047012006
:10315800FAE70120F8E70120F6E700BF0020024067
:1031680000100240409B0008200000201C000020A6
:10317800014B1868704700BF2000002008B5FFF712
:10318800F7FF044B5B68C3F30223034AD35CD840C0
:1031980008BD00BF00100240509B000808B5FFF7AB
:1031A800E7FF044B5B68C3F3C223034AD35CD840F0
:1031B80008BD00BF00100240509B000870B582B0E7
:1031C8000446036813F0010F36D03F4BDB6913F058
:1031D800805F49D13C4BDA6942F08052DA61DB69A1
:1031E80003F080530193019B0125384B1B6813F4AE
:1031F800807F3BD0344B1B6A13F4407313D0626852
:1032080002F440729A420ED02F4A136A23F4407097
:103218002F490126C1F840640026C1F840641062B5
:1032280013F0010F36D1284A136A23F440736168FA
:103238000B431362002D3ED1236813F0020F06D012
:10324800214A536823F44043A1680B435360236821
:1032580013F0100F34D01C4A536823F480036169BB
:103268000B43536000202CE00025BEE7174A136883
:1032780043F480731360FFF763FC0646134B1B6827
:1032880013F4807FB6D1FFF75BFC801B6428F5D967
:10329800032016E0FFF754FC06460B4B1B6A13F09D
:1032A800020FC0D1FFF74CFC801B41F288339842D3
:1032B800F3D9032005E0D36923F08053D361BBE73A
:1032C800002002B070BD00BF001002400070004036
:1032D8000000424208B501380F2863D8DFE800F043
:1032E8003557622F626262326262626262626208AB
:1032F8002F4B5A68186810F0807054D0C2F383437B
:103308002C49C85C12F4803F15D0294B5B68C3F385
:103318004043294AD25C294BB3FBF2F303FB00F08C
:10332800234B5B6813F4800F3DD14000244BA3FB73
:103338000030400837E0234B03FB00F0F0E7FFF7CD
:1033480037FE30E0FFF734FE2DE0194B1B6A40F2E0
:1033580002321A40B2F5817F26D003F44073B3F5E8
:10336800007F04D0B3F5407F09D000201BE0104A4D
:10337800526A12F0020FF5D049F6404013E00C4BA8
:10338800186810F400300ED04FF224400BE0FFF71D
:1033980005FF074B5B68C3F3813301335B00B0FB68
:1033A800F3F000E0002008BD4FF40040FBE700BF49
:1033B800001002402C9B00083C9B000800127A0079
:1033C800ABAAAAAA00093D0070B582B00024A446A1
:1033D800B0E0874DAA4210D007D9864DAA420CD03A
:1033E80005F58035AA4208D013E0A5F58015AA4254
:1033F80003D005F57025AA4207D18A68002A62D051
:10340800012A5BD04361082403E0A5F58015AA4290
:10341800F3D0BEF1FF0F58D80646BEF1FF0F56D8BD
:103428004FEA8C0233680F25954023EA050304FA16
:1034380002F2134333604B6813F0805F78D06E4B11
:103448009A6942F001029A619B6903F001030193B2
:10345800019B4FEA9C02951C684B53F825600CF0C1
:1034680003039D000F23AB4026EA0306644B9842F2
:1034780033D003F58063984200F0988003F58063A9
:10348800984200F0958003F58063984200F092809E
:1034980003F58063984200F08F8003F580639842BB
:1034A80019D006231AE0CC68B3E7CC680434B0E737
:1034B800CC680834ADE7CC680C34AAE7036108246B
:1034C800A7E70024A5E70424A3E7061DA5E7ACF1B8
:1034D80008029200A6E7052300E00023AB4033432F
:1034E8000232464D45F822304B6813F4801F65D0F0
:1034F800444A936843EA0E0393604B6813F4001F31
:1035080062D0404AD36843EA0E03D3604B6813F491
:10351800003F5FD03B4A536843EA0E0353604B6851
:1035280013F4803F5CD0374A136843EA0E031360F4
:103538000CF1010C0A6832FA0CF357D0012303FA94
:103548000CF302EA030E33EA0202F1D14A68122AA6
:103558003FF63FAF122A3FF65CAF01A555F822F0BF
:1035680003340008AF340008B9340008CB3400082D
:103578001B3400081B3400081B3400081B340008E7
:103588001B3400081B3400081B3400081B340008D7
:103598001B3400081B3400081B3400081B340008C7
:1035A8001B340008B3340008BF340008012395E732
:1035B800022393E7032391E704238FE7114A9368D3
:1035C80023EA0E03936098E70E4AD36823EA0E03B2
:1035D800D3609BE70B4A536823EA0E0353609EE7C8
:1035E800084A136823EA0E031360A1E702B070BD0E
:1035F80000002210000031100010024000000140BD
:1036080000080140000401400AB101617047090443
:103618000161704790F82130DBB2022B06D00423F9
:103628008363002380F82030012070470268136804
:1036380023F00E0313600268136823F0010313607C
:10364800036CC16B012202FA03F34B6080F821205E
:10365800002380F8203018467047000008B590F81D
:103668002130DBB2022B03D004238363012008BD81
:103678000268136823F00E0313600268136823F0CE
:103688000103136003684C4A93424ED9783A934237
:1036980024D01432934230D0143293422FD01432B3
:1036A80093422FD0143293422FD0143293422FD00A
:1036B800143293422FD002F5627293422ED0143204
:1036C80093422DD0143293422CD01432934202D01C
:1036D8004FF4803203E04FF4805200E00122374B70
:1036E8005A60012380F82130002380F82030436B92
:1036F800002B5ED098470020B9E71022EFE74FF47F
:103708008072ECE74FF48052E9E74FF48032E6E745
:103718004FF48012E3E74FF08072E0E70122DEE722
:103728001022DCE74FF48072D9E7254A934224D06F
:103738001432934225D01432934224D01432934247
:1037480024D01432934224D01432934224D0143219
:10375800934224D002F56272934223D014329342EA
:1037680022D01432934221D01432934202D04FF423
:10377800803203E04FF4805200E00122114B5A607E
:10378800AFE71022FAE74FF48072F7E74FF4805260
:10379800F4E74FF48032F1E74FF48012EEE74FF090
:1037A8008072EBE70122E9E71022E7E74FF4807225
:1037B800E4E700205BE700BF80000240000402400D
:1037C8000800024000000240074AD36823F4E0637F
:1037D8001B041B0C000200F4E060034343F0BF63CA
:1037E80043F40033D360704700ED00E000B5194B97
:1037F800DB68C3F30223C3F1070CBCF1040F28BF35
:103808004FF0040C03F1040EBEF1060F18D9033B68
:103818004FF0FF3E0EFA0CFC21EA0C0199400EFA1B
:1038280003F322EA0303194300280BDB0901C9B299
:1038380000F1604000F5614080F800135DF804FB7A
:103848000023E5E700F00F000901C9B2024B195443
:10385800F4E700BF00ED00E014ED00E0002807DB0E
:1038680000F01F02400901239340024A42F8203029
:10387800704700BF00E100E00138B0F1807F0BD253
:103888004FF0E0235861054AF02182F82310002008
:10389800986107221A6170470120704700ED00E027
:1038A800014B01221A62704700000E42002800F006
:1038B800CC8070B5044690F83D30002B77D0242397
:1038C80084F83D302268136823F0010313602268EE
:1038D800136843F4004313602268136823F4004319
:1038E8001360FFF74BFC62685A4B9A4264D85A4BF4
:1038F80098428CBF00230123002B40F0A880574931
:10390800A1FB00318B0C25686A6822F03F0242EA6D
:1039180091426A6021680A6A22F03F0266684D4D4A
:10392800AE424FD8013313430B622168CA6922F4AF
:103938004F4222F0FF026668464B9E424CD8431E17
:103948007600B3FBF6F3013340F6FC70034278D0FF
:10395800C3F30B031343CB6121680B6823F0C00347
:10396800E269206A024313430B6021688B6823F4E1
:10397800034323F0FF032269E068024313438B608B
:103988002168CB6823F0FF036269A06902431343EF
:10399800CB602268136843F00103136000202064A1
:1039A800202384F83D30206384F83E0070BD80F801
:1039B8003C30FDF7B1FC82E7294B98428CBF0023CD
:1039C800012399E74FF4967505FB03F3254DA5FBF5
:1039D80003539B090133A6E7A368BBB9451E06EB51
:1039E800460CB5FBFCF50135C5F30B05B5FA85F5B5
:1039F8006D0945BBC3B9013806EB4603B0FBF3F3C9
:103A08000133C3F30B0343F40043A3E7451E06EB5E
:103A1800860C0CEB8C0CB5FBFCF50135C5F30B05DE
:103A2800B5FA85F56D09E4E7013806EB860303EB83
:103A38008303B0FBF3F30133C3F30B0343F44043B5
:103A480088E7042386E7012384E7012070470120E3
:103A5800ACE700BFA08601007F841E0083DE1B4305
:103A6800FF083D00D34D621010B4026894691FFA34
:103A780084FCD369916988B2844505D0D06980B245
:103A880040EA014010BC704798B240EA0440F9E7A8
:103A98000368186A5B6A9BB243EA004070470023D8
:103AA80002E001330A38C0B20928FAD81B01DBB298
:103AB80018437047030903EB830300F00F0000EB82
:103AC8004300C0B27047000010F0030F14D10D4B33
:103AD800A3FB00235B09642202FB13039BB26BB9AF
:103AE800084BA3FB0023DB094FF4C87202FB130049
:103AF80080B228B901207047002070470120704724
:103B0800002070471F85EB5100F5FA6C022921D877
:103B180001EB4103C1EBC3011E4BA3FB011302EBF5
:103B28005303634400F2CF7003EB90031A4AA2FBDD
:103B38000020A3EB501303EBD01304331748A0FB6A
:103B480003201A1A00EB52008008C0EBC000181AB4
:103B5800C0B2704701EB4103C1EBC3010D4BA3FB9E
:103B6800011302EB5303634403EB9C030A4AA2FBD1
:103B78000C2CA3EB5C1303EBDC1302330748A0FB0C
:103B880003201A1A00EB52008008C0EBC000181A74
:103B9800DEE700BF398EE3381F85EB5125499224B3
:103BA8002DE9F84380460F4690F80F90447B857BBB
:103BB800002603E01E2D1FD801350136BE423DD236
:103BC800012CF7D0032CF5D0052CF3D0072CF1D01D
:103BD800082CEFD00A2CEDD00C2CEBD0042C15D0EF
:103BE800062C13D0092C11D00B2C0FD0022CE4D1A9
:103BF8001B2D12D80135E0E70C2C02D00134012529
:103C0800DBE709F1010901252C46D6E71D2D01D86E
:103C18000135D2E701340125CFE71C2D04D01D2D35
:103C2800CBD101340125C8E71FFA89F0FFF74CFF13
:103C380008B10135C1E701340125BEE788F80F90C6
:103C4800E1B288F80D10EAB288F80E204846FFF76E
:103C58005BFF88F80C00BDE8F88338B50446FEF72A
:103C68006FFF054623685A6812F0200F07D1FEF748
:103C780067FF401BB0F57A7FF4D9032004E05A6847
:103C880042F010025A60002038BD38B50446026878
:103C9800536823F010035360FEF752FF054623686C
:103CA8005B6813F0200F07D1FEF74AFF401BB0F501
:103CB8007A7FF4D9032000E0002038BD38B50546E6
:103CC8000C46FFF7CAFF08B1012038BD2B68220C4B
:103CD8009A612B68A4B2DC612846FFF7D6FF00285A
:103CE800F3D00120F1E738B505460C46FFF7B5FFDC
:103CF80008B1012038BD2B68220C1A622B68A4B2C7
:103D08005C622846FFF7C1FF0028F3D00120F1E7E5
:103D180070B5002857D00D460646002955D0037CBB
:103D2800012B54D00123037402234374BAB90878D1
:103D38004B78C3EB03139C004FF4616303FB00440F
:103D48008878044421463046FFF7B8FF0546C8B1D5
:103D580004237374002333740125284670BD087842
:103D6800FFF7A8FE4FF4616400FB04F46878FFF7DE
:103D7800A1FEC0EB001004EB8004A878FFF79AFEC0
:103D88000444DFE73268536823F005035360304684
:103D9800FFF77EFEB0F1FF3F01D0844204D8012333
:103DA800737400233374D8E700F5A83101F5C071A6
:103DB8003046FFF798FF0028F1D0042373740023DE
:103DC80033740125C9E70125C7E70125C5E70225A1
:103DD800C3E7000000286FD02DE9F8430C461546CC
:103DE800074600296AD003685B6813F0040F02D005
:103DF8000120BDE8F883FFF737FE0646334BA3FBE7
:103E08000023DB0A4FF4616202FB13023049A1FB75
:103E180002014809C1F347116170C0EB0010A2EB21
:103E28008002A2702B4A964210D82370002D4BD0E6
:103E38002078FFF734FE20706078FFF730FE60705E
:103E4800A078FFF72CFEA0700020D2E7224AA2FB40
:103E580003284FEA181808EB4802A3EBC2032370A3
:103E68003846FFF715FE8146B0F1FF3F06D086427F
:103E780002D2A0EB060901E04FF0FF39174800FB1A
:103E8800186631463846FFF719FFC8B9B9F1FF3F40
:103E98000AD009EB06013846FFF725FF90B94146DD
:103EA8003846FFF77DFEC1E749463846FFF71BFF56
:103EB8000028F4D001209CE701207047012098E7F2
:103EC800012096E7012094E7002092E7C5B3A2916C
:103ED800898888887F510100ABAAAAAA805101006D
:103EE80000285AD038B50D460446002957D0037C1F
:103EF800012B56D00123037402234374BAB9CB783B
:103F0800C3734B7843738B788373A27B617BE07BAD
:103F1800FFF7FAFD207328702046FFF7A5FD224B16
:103F2800984211D8012363740020207438BDC878E2
:103F3800FFF7C0FDE0736878FFF7BCFD6073A878F1
:103F4800FFF7B8FDA073E0E7184DA5FB00352D0C71
:103F5800174B03FB150529462046FFF7AFFE28B18E
:103F680004236374002323740120DFE72046FFF74E
:103F78008FFDB0F1FF3FD5D08542D3D900F5A831E8
:103F880001F5C0712046FFF7AEFE0028CAD0042311
:103F98006374002323740120C8E7012070470120BF
:103FA800C4E70220C2E700BF8F5F010007452EC2A9
:103FB80080510100F0B583B00023ADF804308DF8CE
:103FC8000630002853D00C4615460646002951D025
:103FD800037C012B50D00123037402234374002275
:103FE80001A9FFF7F7FE002848D19DF804209DF8A5
:103FF8000530C3EB03139F004FF4616303FB0277A3
:104008009DF806301F44D5B920786378C3EB0313B5
:1040180099004FF4616303FB0011A0780144B94291
:1040280003D201F5A83101F5C0713046FFF75BFEF8
:10403800C0B10423737400233374012018E020787E
:10404800FFF738FD4FF4616500FB05F56078FFF771
:1040580031FDC0EB001005EB8005A078FFF72AFDC5
:104068002918DCE7012373740023337400E001206E
:1040780003B0F0BD0120FBE70220F9E70120F7E7D4
:10408800C0B138B505460268536823F00803536089
:10409800FEF756FD04462B685B6813F0080F07D13E
:1040A800FEF74EFD001BB0F57A7FF4D9032000E03F
:1040B800002038BD01207047002850D010B50446B4
:1040C800437C4BB1022363742046FFF7D9FF38B114
:1040D80004236374012010BD0374FDF7A3F9F1E70D
:1040E8002046FFF7BAFD28BB2268536823F0070370
:1040F8005360A36823B11B4A136B23F001031363B6
:10410800184AD36A23F46073A1680B43D3626368C7
:10411800B3F1FF3F12D02268C3F3034191602268D4
:104128009BB2D3602046FFF7B0FD88B104236374C7
:104138000120D0E7042363740120CCE70120FFF7B6
:10414800C9F808B1431EE6E7042363740120C2E7F7
:104158000023E37301236373A3736374BBE7012034
:10416800704700BF006C00402DE9F04782B005465B
:10417800884617461E46FEF7E3FC0A9B1B1A03EB0C
:104188000609FEF7DDFC82462B4B1B68C3F3CB33D5
:1041980009FB03F301932B689C6838EA04030CBFFE
:1041A8004FF0010C4FF0000CBC4540D0B6F1FF3F7A
:1041B800F1D0FEF7C5FCA0EB0A0048450AD2B9F1D8
:1041C800000F07D0019A02B14A46019B013B0193B7
:1041D8009146E0E72A68536823F0E00353606B6870
:1041E800B3F5827F0BD0AB6AB3F5005F14D001231F
:1041F80085F85130002385F85030032018E0AB686B
:10420800B3F5004F02D0B3F5806FECD12A6813687C
:1042180023F040031360E6E72A68136823F4005389
:1042280013602A68136843F400531360DFE7002023
:1042380002B0BDE8F08700BF2000002010B582B0B2
:1042480004460B46009200228021FFF78DFF08B933
:1042580002B010BD636D43F0200363650320F7E7E8
:10426800002856D010B50446436A33B94368B3F5FD
:10427800827F05D00023C36102E00023036143610C
:104288000023A36294F85130002B3CD0022384F819
:1042980051302268136823F040031360636803F405
:1042A8008273A26802F404421343E26802F40062D3
:1042B8001343226902F002021343626902F0010209
:1042C8001343A26902F400721343E26902F0380250
:1042D8001343226A02F080021343A26A02F40052D6
:1042E800216813430B60638B226803F00403536057
:1042F8002268D36923F40063D36100206065012339
:1043080084F8513010BD84F850302046FDF70EF97E
:10431800BCE7012070472DE9F04383B01D4690F8B3
:104328005030012B00F0D180044688469146012385
:1043380080F85030FEF704FC074694F85160F6B256
:10434800012E40F0BA80B8F1000F00F0B780B9F143
:10435800000F00F0B380032384F851300023636515
:10436800C4F83080A4F83490A4F83690A363A387E7
:10437800E38763642364A368B3F5004F1ED0236802
:104388001A6812F0400F03D11A6842F040021A600E
:10439800E368B3F5006F1CD0636813B1B9F1010F7E
:1043A80055D1226B236812781A73236B0133236368
:1043B800E38E9BB2013B9BB2E38648E02268136818
:1043C80023F0400313602268136843F480431360AA
:1043D800D5E7636813B1B9F1010F15D1226B2368D2
:1043E8001288DA60236B02332363E38E9BB2013BAE
:1043F8009BB2E38608E0FEF7A3FBC01BA84202D3EA
:10440800B5F1FF3F15D1A5B1E38E9BB2002B3CD08F
:1044180023689A6812F0020FEDD0226B1288DA60D6
:10442800236B02332363E38E9BB2013B9BB2E3868B
:10443800EAE7012384F8513003263FE0FEF780FBCA
:10444800C01BA84202D3B5F1FF3F19D1C5B1E38E15
:104458009BB2D3B123689A6812F0020FEED0226B98
:1044680012781A73236B01332363B4F836C01FFA2A
:104478008CFC0CF1FF3C1FFA8CFCA4F836C0E6E774
:10448800012384F85130032618E03A46294620468D
:10449800FFF7D4FE08B120236365A36833B90193FD
:1044A8002368DA6801929B680193019B636D2BB9BD
:1044B800012384F85130002600E00226002384F806
:1044C8005030304603B0BDE8F0830226F9E72DE905
:1044D800F04383B01F460A9D90F85030012B00F03E
:1044E8001681044688469146012380F85030FEF72D
:1044F80027FB064694F85130DBB26268012B0AD0DC
:10450800B2F5827F40F0F080A268002A40F0F38084
:10451800042B40F0F280B8F1000F00F0F080B9F100
:10452800000F00F0EE80002F00F0ED8094F851307D
:10453800DBB2042B02D0052384F8513000236365D5
:10454800C4F83890E787A787C4F83080E786A7863D
:104558002364636423681A6812F0400F03D11A6851
:1045680042F040021A60E368B3F5006F11D0636847
:104578000BB1012F0BD1226B236812781A73236BAE
:1045880001332363E38E9BB2013B9BB2E386012791
:104598006EE063680BB1012F0BD1226B2368128880
:1045A800DA60236B02332363E38E9BB2013B9BB239
:1045B800E38601271BE023689A6812F0010F0ED0EA
:1045C800E28F92B25AB1DA68A36B1A80A36B0233F6
:1045D800A363E38F9BB2013B9BB2E3870127FEF7FE
:1045E800AFFA801BA84202D3B5F1FF3F1ED1E38E7C
:1045F8009BB21BB9E38F9BB2002B5CD023689A68EF
:1046080012F0020FD7D0E28E92B2002AD3D0002F38
:10461800D1D0226B1288DA60236B02332363E38ED6
:104628009BB2013B9BB2E3860027C4E7012384F8D1
:104638005130032059E023689A6812F0010F0ED018
:10464800E28F92B25AB1DA68A36B1A70A36B013386
:10465800A363E38F9BB2013B9BB2E3870127FEF77D
:104668006FFA831BAB4202D3B5F1FF3F1ED1EDB108
:10467800E38E9BB213B9E38F9BB2E3B123689A68C8
:1046880012F0020FD7D0E28E92B2002AD3D0002FB8
:10469800D1D0226B12781A73236B01332363E38E14
:1046A8009BB2013B9BB2E3860027C4E7012384F851
:1046B8005130032019E0324629462046FFF7BEFD57
:1046C80070B9A36833B901932368DA6801929B68CB
:1046D8000193019B636DC3B9012384F8513004E051
:1046E80020236365012000E00220002384F8503075
:1046F80003B0BDE8F0830220F7E70220F5E70120C8
:10470800F3E70120F1E70120EFE70120EDE70220C0
:10471800EEE790F85100704710B4036A046A24F079
:1047280001040462846924F0F00C4CEA021223F0BC
:104738000A030B438261036210BC704710B4036A1A
:10474800046A24F010040462846924F4704C4CEA6E
:10475800023223F0A00343EA01138261036210BC12
:104768007047836823F070030B4343F007038360AB
:104778007047704770477047704710B50446036824
:104788001A6912F0020F11D0DA6812F0020F0DD078
:104798006FF002021A610123037703689B6913F023
:1047A800030F70D0FFF7E6FF0023237723681A6909
:1047B80012F0040F12D0DA6812F0040F0ED06FF066
:1047C80004021A610223237723689B6913F4407F4C
:1047D8005FD02046FFF7CEFF0023237723681A69AE
:1047E80012F0080F12D0DA6812F0080F0ED06FF02E
:1047F80008021A61042323772368DB6913F0030F87
:104808004ED02046FFF7B6FF0023237723681A69A6
:1048180012F0100F12D0DA6812F0100F0ED06FF0ED
:1048280010021A61082323772368DB6913F4407F99
:104838003DD02046FFF79EFF0023237723681A699F
:1048480012F0010F03D0DA6812F0010F36D1236895
:104858001A6912F0800F03D0DA6812F0800F34D191
:1048680023681A6912F0400F03D0DA6812F0400F7B
:1048780032D123681A6912F0200F03D0DA6812F0D7
:10488800200F30D110BDFFF774FF2046FFF773FFEC
:104898008AE72046FFF76DFF2046FFF76CFF9BE78E
:1048A8002046FFF766FF2046FFF765FFACE7204686
:1048B800FFF75FFF2046FFF75EFFBDE76FF00102DD
:1048C8001A612046FCF738FBC1E76FF080021A61D5
:1048D800204600F052F9C3E76FF040021A61204603
:1048E800FFF74AFFC5E76FF020021A61204600F083
:1048F80043F9C7E70368244A904212D002F50062E0
:1049080090420ED0B0F1804F0BD0A2F59832904271
:1049180007D002F58062904203D002F5806290428F
:1049280003D123F070034A681343174A904212D008
:1049380002F5006290420ED0B0F1804F0BD0A2F584
:104948009832904207D002F58062904203D002F577
:104958008062904203D123F44073CA68134323F062
:1049680080034A69134303608B68C3620B688362E0
:10497800054B984203D003F50063984201D10B69B7
:104988000363012343617047002C014040B310B515
:10499800044690F83D30F3B1022384F83D302146B7
:1049A80051F8040BFFF7A6FF012384F8463084F87A
:1049B8003E3084F83F3084F8403084F8413084F841
:1049C800423084F8433084F8443084F8453084F821
:1049D8003D30002010BD80F83C30FDF70DFDDBE7D1
:1049E8000120704710B4846824F47F4C42EA032203
:1049F8000A4342EA0C02826010BC704790F83C30CF
:104A0800012B78D010B50446012380F83C300223EE
:104A180080F83D300268936823F47F4323F07703DE
:104A280093600B68602B4CD029D8402B54D00CD9FC
:104A3800502B22D1CA6849680068FFF76DFE5021E3
:104A48002068FFF78EFE002005E0202B0DD009D945
:104A5800302B0AD00120012384F83D30002384F84C
:104A68003C3010BD0BB1102B05D119462068FFF75B
:104A780078FE0020EFE70120EDE70120EBE7B3F532
:104A8800805F34D0B3F5005F0CD1CB684A68896881
:104A98000068FFF7A7FF2268936843F48043936098
:104AA8000020D8E7702B24D1CB684A688968006851
:104AB800FFF798FF2268936843F07703936000201C
:104AC800C9E7CA6849680068FFF738FE60212068AE
:104AD800FFF747FE0020BEE7CA6849680068FFF78D
:104AE8001BFE40212068FFF73CFE0020B3E70020B2
:104AF800B1E70120AFE702207047000090F83C3092
:104B0800012B34D010B4012380F83C30022380F804
:104B18003D3003685A689C6822F0700C0A6842EAC3
:104B28000C025A600368134A934212D002F50062DD
:104B380093420ED0B3F1804F0BD0A2F59832934236
:104B480007D002F58062934203D002F58062934257
:104B580004D124F080044A6814439C60012380F83F
:104B68003D30002380F83C30184610BC70470220C6
:104B7800704700BF002C014070477047026802F17F
:104B88000C0353E8003F23F490730C3242E80031E1
:104B98000029F3D1026802F1140353E8003F23F01F
:104BA8000103143242E800310029F3D1036B012BD1
:104BB80005D0202380F84230002303637047026841
:104BC80002F10C0353E8003F23F010030C3242E8D3
:104BD80000310029F3D1ECE790F84130DBB2212B0A
:104BE80001D0022070478368B3F5805F17D0036A4D
:104BF8005A1C02621A7803685A60C38C9BB2013B44
:104C08009BB2C3844BB90268D36823F08003D36096
:104C18000268D36843F04003D360002070470369FB
:104C2800002BE4D1036A1B880268C3F308035360AE
:104C3800036A02330362E0E710B5044602681369A9
:104C480023F44053C1680B4313618368026913431B
:104C580042691A430168CB6823F4B05323F00C036C
:104C68001343CB600268536923F4407381690B4393
:104C780053610268134B9A4220D0FEF77FFA02462E
:104C880002EB820202EB820263689B00B2FBF3F242
:104C98000D48A0FB02314909642303FB11231B01C2
:104CA8003233A0FB03235B0903F0F00202EB01128D
:104CB80003F00F03216813448B6010BDFEF76EFAF2
:104CC8000246DDE7003801401F85EB512DE9F84326
:104CD80005460F4616469946DDF820802C6824685C
:104CE80037EA04030CBF4FF0010C4FF0000CB44539
:104CF8002DD1B8F1FF3FF1D0B8F1000F05D0FDF785
:104D08001FFFA0EB09004045E8D92A6802F10C030F
:104D180053E8003F23F4D0730C3242E800310029F5
:104D2800F3D12A6802F1140353E8003F23F001038A
:104D3800143242E800310029F3D1202385F84130AC
:104D480085F84230002385F84030032000E0002039
:104D5800BDE8F88360B310B5044690F8413013B34A
:104D6800242384F841302268D36823F40053D360A5
:104D78002046FFF761FF2268136923F4904313610B
:104D88002268536923F02A0353612268D36843F4E5
:104D98000053D36000206064202384F8413084F8F5
:104DA8004230606310BD80F84030FDF7CDFBD7E797
:104DB800012070472DE9F04182B01E4690F841303D
:104DC800DBB2202B4BD104460D46904600294AD031
:104DD8000AB9012044E000234364212380F84130CC
:104DE800FDF7AEFE0746A4F82480A4F82680A36841
:104DF800B3F5805F02D04FF000080FE02369FBB1E4
:104E08004FF000080AE038F8023B2268C3F30803B1
:104E18005360E28C92B2013A92B2E284E38C9BB284
:104E28008BB100963B46002280212046FFF74EFFBB
:104E3800D8B9002DE7D015F8012B23685A60E8E7A8
:104E4800A8460025EAE700963B4600224021204676
:104E5800FFF73CFF58B9202384F8413000E00220D6
:104E680002B0BDE8F0810120FAE70320F8E703204B
:104E7800F6E7704708B50168CA6822F04002CA60C0
:104E8800202280F84120FFF7F4FF002008BD70477A
:104E980008B5406A0023C385C384FFF7F8FF08BD3F
:104EA800704790F84230DBB2222B69D18368B3F5A2
:104EB800805F4FD0826AB3F5805F04D0002B56D153
:104EC8000369002B53D103685B681370836A01334D
:104ED8008362C38D9BB2013B9BB2C385002B51D12A
:104EE80000B583B00268D36823F02003D36002685A
:104EF800D36823F48073D3600268536923F00103F5
:104F08005361202380F8423000234363036B012B55
:104F180033D100230363026802F10C0353E8003F16
:104F280023F010030C3242E800310029F3D1036862
:104F38001A6812F0100F06D0002201921A68019226
:104F48005B680193019B818DFFF7AAFF002003B0E6
:104F58005DF804FB0269002AACD1826A03685B68C9
:104F6800C3F308031380836A02338362B1E70368DB
:104F78005B6803F07F031370A8E7FBF7C9FFE5E759
:104F8800022070470020704730B583B0044602689D
:104F98001368D068516913F00F0505D113F0200F7D
:104FA80002D010F0200F19D12DB111F0010119D143
:104FB80010F4907F16D1216B01297DD013F0800F5A
:104FC80003D010F0800F40F0188113F0400F03D089
:104FD80010F0400F40F0158103B030BD2046FFF7B8
:104FE80060FFF9E713F0010F06D010F4807F03D0BB
:104FF800626C42F00102626413F0040F04D019B12C
:10500800626C42F00202626413F0020F04D019B11C
:10501800626C42F00402626413F0080F07D010F0CB
:10502800200F00D119B1626C42F008026264626C10
:10503800002AD1D013F0200F02D010F0200F29D170
:1050480023685B6903F04003626C12F0080F00D11B
:1050580063B32046FFF792FD23685B6913F0400FA6
:1050680020D0226802F1140353E8003F23F04003E4
:10507800143242E800310029F3D1E36B73B1634A7B
:105088005A63E06BFEF7EAFA0028A5D0E06B436BA1
:105098009847A1E72046FFF704FFD1E72046FFF72E
:1050A800F6FE99E72046FFF7F2FE95E72046FFF760
:1050B800EEFE002363648FE713F0100F3FF47EAF1A
:1050C80010F0100F3FF47AAF002301931368019397
:1050D80053680193019B536913F0400F51D0E26B61
:1050E80013685B689BB2002B3FF476AFA18D9942A1
:1050F8007FF672AFE3859369202B37D0226802F1DF
:105108000C0353E8003F23F480730C3242E800316B
:105118000029F3D1226802F1140353E8003F23F079
:105128000103143242E800310029F3D1226802F168
:10513800140353E8003F23F04003143242E80031DF
:105148000029F3D1202384F8423000232363226806
:1051580002F10C0353E8003F23F010030C3242E83D
:1051680000310029F3D1E06BFEF754FA02236363A0
:10517800A18DE38D9BB2C91A89B22046FFF790FE34
:105188002AE7A18DE38D9BB2C91A89B2E38D9BB240
:10519800002B3FF421AF00293FF41EAF226802F133
:1051A8000C0353E8003F23F490730C3242E80030BC
:1051B8000028F3D1226802F1140353E8003F23F0DA
:1051C8000103143242E800300028F3D1202384F888
:1051D800423000232363226802F10C0353E8003FA6
:1051E80023F010030C3242E800300028F3D10223E8
:1051F80063632046FFF754FEEEE62046FFF7ECFC1B
:10520800EAE62046FFF736FEE6E600BF994E0008BC
:1052180081628285C28500234364222380F842305C
:10522800036923B10268D36843F48073D3600268CA
:10523800536943F0010353610268D36843F02003C4
:10524800D3600020704708B590F84230DBB2202BBD
:1052580008D149B10AB9012008BD00230363FFF74B
:10526800D7FFF9E70220F7E70120F5E770470000CC
:1052780008B50349034800F033F8034B187008BD1C
:1052880008080020040000200C080020134B5B7A5B
:10529800DBB2012B01D90120704710B404460F4B33
:1052A80093F809C05FFA8CFC002003F80C0093F80F
:1052B80009C003EB8C0CCCF804405C7A1C442272C5
:1052C8005A7A541CE4B25C7230320A703A234B703A
:1052D8002F238B70C87010BC704700BF10080020C7
:1052E80008B50022FFF7D2FF08BD0000FFF7BEFF98
:1052F8000B480C490C4A002302E0D458C45004332C
:10530800C4188C42F9D3094A094C002301E0136000
:105318000432A242FBD300F011F8FBF769FE704794
:1053280000000020F8010020F49F0008F801002088
:1053380030080020FEE7002100F0CABE70B5002644
:105348000C4D0D4C641BA410A64209D104F076FB49
:1053580000260A4D0A4C641BA410A64205D170BD54
:1053680055F8043B98470136EEE755F8043B984753
:105378000136F2E7EC9F0008EC9F0008EC9F00085C
:10538800F09F00080A44914200F1FF3300D17047B2
:1053980010B511F8014B914203F8014FF9D110BD36
:1053A80003460244934200D1704703F8011BF9E712
:1053B8000EB44FF4017230B59CB01FAC54F8045BC6
:1053C800ADF8142002900690FAF72AFF0B4B0390D1
:1053D8000B9300230F9314934FF6FF73079008481D
:1053E800ADF816302A46234602A90068019401F058
:1053F800E1FF1CB0BDE8304003B070472F540008EF
:105408002400002010B50C46B1F90E1002F034FC4F
:105418000028ABBF636DA3891B1823F48053ACBF6E
:105428006365A38110BD002070472DE9F0411F4638
:105438008B890546DB050C46164605D50223002256
:10544800B1F90E1001F0D8F9A389324623F480533C
:10545800A38128463B46B4F90E10BDE8F04100F0A0
:1054680043BE10B50C46B1F90E1001F0C5F9431C46
:10547800A38915BF606523F4805343F48053A38147
:1054880018BFA38110BDB1F90E1000F03FBE0A7815
:1054980070B56AB970BD9A4209D10C46054614F830
:1054A800013F002BF6D015F8016F9E42F7D001306E
:1054B8000378002BEFD11846ECE72DE9F0410F46B1
:1054C800904601F02DFD04460D46B8F1000F11D0AD
:1054D800C7F30A53C3F16B03002B0BDD00241B0534
:1054E80003F17F5505F5401522462B46FBF75CF87E
:1054F80004460D4620462946BDE8F081000000001C
:105508002DE9F04F9B4600239FB01A939E4B82468D
:105518001F680E4638461592FAF782FE4FF00008CB
:1055280004464FF000091996199B1A782B2A4CD07B
:105538003AD80D2A33D8082A33D8002A3DD0002378
:105548000A93199D2B78302B40F0AA806B7803F0D2
:10555800DF03582B66D10A9B504601931AAB009380
:105568008A4ACDF808B01BAB19A900F047FE10F025
:105578000706044605D0062E29D1002301351995C2
:105588000A93159B002B40F08A850A9BD3B14246AB
:1055980009F10043104619461FB0BDE8F08F202AD4
:1055A800CDD101331993BFE72D2AC8D101220A9220
:1055B8005A1C19925B78002BC3D1159B1996002BA6
:1055C80040F06B8542464B46E4E70022EFE71A9A23
:1055D8003AB135211CA801F0A7FD50461A9901F0EF
:1055E8006FF9013E042E06D8DFE806F00A03141707
:1055F8000A00DDE91C892107C3D549F00049C0E745
:105608001B9ADDE91C8302F2334223F4801343EA38
:105618000259F0E7DFF87891EDE76FF000494FF0B5
:10562800FF38E8E7199B5A1C19925B78302BF9D0A0
:10563800002BA6D001230793199B0A220893002365
:105648009B46CDE9053319980578A5F13003D9B201
:10565800092927D92246394602F06EFB002833D0A3
:1056680000202A465C4603460490652A01D0452A54
:1056780014D11CB9079A02439FD00024199E721CAA
:10568800199272782B2A79D02D2A00F0838000276E
:10569800A2F13001092940F28380199600259FE084
:1056A8000023C8E7BBF1080FD5BF0699059902FB8F
:1056B800013302FB013300F10100D4BF06930593C7
:1056C8000BF1010B1990BEE7199B1A1919921A5D73
:1056D800BBF1000F36D05C460490A2F13003092BD1
:1056E80012D90123C1E7199B01305A1C19925A7823
:1056F800302AF8D0A2F13103082B00F2D5840490A7
:1057080000200446199B0893303A00F1010313D096
:10571800049905191944049123460A21AB4213D16F
:105728002318082B04F1010404441BDC0A230699FE
:1057380003FB012306930023199A1846511C19915B
:105748005278CAE75846D3E7082B04DC069F4F4334
:1057580006970133E2E75F1C102FDEBF059F4F431A
:105768000597F6E7102CDFBF0A23059903FB0123F1
:105778000593E0E70023049301237BE70027B21C8D
:105788001992B27884E700BF549C0008689B00080F
:105798000000F07F0127F2E7199A511C19915278FD
:1057A800302AF9D0A2F1310108293FF677AF4FF03E
:1057B8000A0EA2F1300C199A0992199A511C1991E2
:1057C8005278A2F13005092D35D9099D491B0829C0
:1057D80044F61F6502DC6545A8BF654607B16D4202
:1057E800002C4CD1079901437FF4CBAE002B7FF4FA
:1057F800E4AE692A26D023DC492A23D04E2A7FF436
:10580800DCAE9D4919A800F047FF00283FF4D5AE4B
:10581800199B1B78282B2CD198491CAA19A800F091
:105828004FFF052825D11D9BDDF8708043F0FF4907
:1058380049F4E009A5E60EFB0C2CACF1300CBCE7F2
:105848006E2ADCE78E4919A800F026FF00283FF4ED
:10585800B4AE199B8B49013B19A8199300F01CFFA2
:1058680010B9199B013319934FF00008DFF818920B
:1058780087E6864802F012FA8046894681E6049B4C
:10588800BBF1000F08BFA346EB1A102C069826465A
:105898000793A8BF1026FAF70DFE092C8046894603
:1058A80013DD7B4B03EBC60353E91223FAF77CFEA7
:1058B800804605988946FAF7FDFD02460B464046A4
:1058C8004946FAF7BBFC804689460F2C36DC079B15
:1058D800002B3FF456AE22DD162B09DC6C494246FC
:1058E80001EBC3014B46D1E90001FAF75DFEC3E7BE
:1058F800079AC4F12503934220DB654DC4F10F04D8
:1059080005EBC4014246D1E900014B46FAF74CFECB
:10591800079B1C1B05EBC405D5E90023E5E7079B9E
:1059280016330BDB049B40465D1B594B494603EB82
:10593800C505D5E90023FAF761FF9DE7079BA61B7C
:105948001E44002E74DD16F00F030AD0504942465B
:1059580001EBC301D1E900014B46FAF725FE804669
:10596800894636F00F0652D0B6F59A7F27DD4FF0FC
:10597800000BCDF810B0CDF820B0CDF818B0222328
:105988004FF00008DFF80091CAF80030089B002BA0
:105998003FF4F7AD50461A9900F092FF5046069929
:1059A80000F08EFF5046049900F08AFF504608998F
:1059B80000F086FF5946504600F082FFE1E5354B7E
:1059C80040460593002349461F463611012E21DC27
:1059D8000BB1804689462F4BA9F1547903EBC707D1
:1059E8004246D7E900014B46FAF7DEFD264B0A4648
:1059F8000B40294980468B42B9D8A1F580118B42CA
:105A080086BF4FF0FF38DFF8949002F154790023F5
:105A180005937FE0F20705D5059BD3E90023FAF744
:105A2800C3FD0123059A0137083276100592CDE7A8
:105A3800EDD0764216F00F020AD0154B404603EB24
:105A4800C2034946D3E90023FAF7D8FE80468946BF
:105A58003611DCD01F2E23DD4FF0000BCDF810B02F
:105A6800CDF820B0CDF818B022234FF000084FF041
:105A78000009CAF8003089E7659B00087C9B00088C
:105A88005C9B00085F9B00080000F07F789E000880
:105A9800289D0008009D00080000A07CFFFFEF7F04
:105AA80016F0100318BF6A234046059349460023A1
:105AB800B04FF20704D5D7E90023FAF775FD0123A3
:105AC800761007F10807F4D10BB180468946059B8B
